:020000040008F2
:1000000000200820916408006B6008006B5808000D
:100010006D6008006F60080071600800000000005B
:1000200000000000000000000000000073600800F5
:10003000756008000000000077600800B7580800ED
:10004000796008007B6008007D6008007F60080020
:1000500081600800836008008560080087600800F0
:10006000E926080089600800F3580800475908008D
:100070008B60080007270800131A08003D1A0800C3
:100080008D6008008F600800916008009360080090
:100090009560080097600800996008009B60080060
:1000A0009D6008009F600800A1600800A360080030
:0C00B000A5600800A76008006960080057
:1000BC0010B584B001A8DFF824190CC90CC008399C
:1000CC000838DFF8940C00788DF806000024DFF86F
:1000DC00A40BDFF8A41B0860DFF8980BDFF83C1DBD
:1000EC000860DFF8900BDFF8381D08600020DFF89F
:1000FC00341D0870DFF8FC0C006800905FF40010F1
:10010C00DFF8241C08605FF40000DFF8201C086096
:10011C005FF08070DFF8141C0860642100A800F008
:10012C0027FF0028F9D05FF40010DFF8001C0860EE
:10013C00DFF8C00C006800904FF47A7100A800F052
:10014C0017FF0028F8D0DFF8AC0C00680090DFF83F
:10015C00240D0068C00709D4E4B2002C06D141F28A
:10016C00883100A800F004FF0400F0E7E4B2002C92
:10017C0018D100F018F8DFF8040B006830F080603C
:10018C00DFF8F81A086000F02BFC01A800F0A4FBC3
:10019C008DF8080001A800F006FA41F288313E20E3
:1001AC0000F0D5FA1FBD70B586B000A8DFF8D01AE4
:1001BC00112200F00FFFDFF8BC0C0068C00740F103
:1001CC00EC80DFF8C00A006806000020DFF8B81ADF
:1001DC000860DFF8A80A0068C00009D5DFF89C0A9F
:1001EC00006830F08050DFF8941A0860761E23E027
:1001FC000020B0F5967F01D2401CFAE75FF08070CA
:10020C00DFF8241B08605FF08070DFF8201B0860AB
:10021C00DFF8600C006800070ED4DFF86C0A006889
:10022C00DFF80C1B884207D2DFF85C0A0068401C20
:10023C00DFF8541A0860EBE7DFF84C0A0068DFF8C7
:10024C001C1B88420DD300F0AAF800A800F00EFF8A
:10025C00DFF8200C006840084000DFF8181C08602C
:10026C009BE0DFF8100C006830F00900DFF8041C8C
:10027C000860DFF8A80B00680078A42840F08080A4
:10028C00DFF8F809006850F08060DFF8F0190860BA
:10029C000020B0F5967F01D2401CFAE75FF0807029
:1002AC00DFF8841A08605FF08070DFF8801A08604D
:1002BC00DFF8C00B006880070ED4DFF8CC090068AB
:1002CC00DFF86C1A884207D2DFF8BC090068401CC2
:1002DC00DFF8B4190860EBE7DFF8980B00688007CB
:1002EC0059D5DFF8900B006830F00A00DFF8841B5A
:1002FC000860DFF890090068861BDFF8200B0068A7
:10030C000078040000F061F8DFF8100B006800784A
:10031C00801C0500EDB2A81C864207D0DFF85C09F2
:10032C00006850F00100DFF854190860DFF8EC0A9F
:10033C0000680078444000F048F86D1EEDB2002DC6
:10034C00F4D1DFF8D80A00680078E4B284420ED108
:10035C00DFF8D00A0078401CDFF8C81A0870DFF804
:10036C00C80A0068401CDFF8C01A086013E0DFF808
:10037C00AC0A0068DFF8A81A086000F03AF80AE046
:10038C00DFF8A80A0068401CDFF8A01A08600020FB
:10039C00DFF8E01A086000F018F806B070BD72B60D
:1003AC00DFF8D008DFF8D0180860DFF8C808DFF8ED
:1003BC006C1A0860DFF8BC08DFF8641A08600020CB
:1003CC00DFF8601A087062B67047DFF8500A0068F0
:1003DC00401CDFF8481A0860DFF8400A0068DFF8B4
:1003EC00981A884204D1DFF88C08DFF8301A0860BC
:1003FC007047DFF82C0A0068401CDFF8241A0860EC
:10040C00DFF81C0A0068DFF8701A884204D1DFF8A4
:10041C006408DFF80C1A0860704738B5DFF85C0A1E
:10042C000068C00109D5DFF8580A00F01FFEDFF89C
:10043C00540ADFF8541A0860AEE05FF40010DFF8DD
:10044C004C1A0860DFF8480A00F010FE0020DFF8B4
:10045C00441A08600020DFF8401A08600020DFF81A
:10046C00F81808701020DFF8F01848700020DFF83A
:10047C00E8188870FF20DFF8E018C870FF20DFF85C
:10048C00D81808710120DFF8D01848711020DFF857
:10049C00C8188871CD20DFF8C018C8710C20DFF89F
:1004AC00B81808723720DFF8B01848720320DFF84C
:1004BC00A81888720420DFF8E4190870DFF8E00946
:1004CC00DFF8D81948605FF48000DFF8D019886035
:1004DC000120DFF8C81908730220DFF8C01948732F
:1004EC000FF26530DFF8B41908610FF28D30DFF8C8
:1004FC00AC194861DFF87C07DFF8A0198861DFF8D8
:10050C007807DFF89819C8614FF48070DFF88C1900
:10051C000884DFF8880901F011F9DFF88819086000
:10052C000020DFF850190860FFF7C2FDDFF87809EA
:10053C000078C0060FD5DFF8740900F097FDDFF8DE
:10054C00700900F093FD00F0A3FD0FF61500DFF825
:10055C003819086020E0DFF85C0900F087FD5FF0D7
:10056C00307004005FF0F0700500DFF84C09046097
:10057C00DFF848090460DFF848090560DFF8200956
:10058C000560DFF840090460DFF83C0905600FF6F0
:10059C00B110DFF8F418086031BD80B5DFF8E80859
:1005AC000068804701BDF0B599B00400DFF81C0964
:1005BC00076810A8DFF81819212200F00BFD0AA813
:1005CC00DFF81019152200F005FD05A8DFF8081951
:1005DC00122200F0FFFC00A8DFF80019112200F035
:1005EC00F9FCDFF89806006810F0406F04D010A8F2
:1005FC0000F03CFD0020A8E00020DFF88C1608601D
:10060C005FF40000DFF820170860DFF86808006866
:10061C00C0070ED4DFF870060068DFF814178842A4
:10062C0007D2DFF864060068401CDFF85C1608602F
:10063C00EBE7DFF854060068DFF82017884209D38F
:10064C005FF40000DFF8E41608600AA800F00EFD65
:10065C0000207AE00020B0F5967F01D2401CFAE72A
:10066C005FF08070DFF8C01608605FF08070DFF814
:10067C00BC160860DFF8FC07006800070ED4DFF832
:10068C0008060068DFF8A816884207D2DFF8F805DC
:10069C000068401CDFF8F0150860EBE75FF4000021
:1006AC00DFF888160860DFF8E0050068DFF8AC16A4
:1006BC00884204D30AA800F0D9FC002045E0DFF8FA
:1006CC005C07006800780500EDB2A42D09D1DFF8B5
:1006DC00AC05006850F08050DFF8A01508600020D1
:1006EC0033E0FFF772FEFFF784FEDFF8880700683F
:1006FC0030F00900DFF87C170860EDB2A52D20D191
:10070C00DFF87805006850F00060DFF870150860BD
:10071C002078C01C060022003100DFF88807006832
:10072C0001F0B0F8DFF8B8170860DFF8B40700681C
:10073C00002801D0012008E005A800F097FC00205B
:10074C0003E000A800F092FC002019B0F0BDF0B559
:10075C0089B004000D0000260127DFF8700700683F
:10076C00009001A8DFF87C171A2200F033FCDFF8A8
:10077C00840600680090DFF86807006801F04AFC06
:10078C00042809D0F6B2002E06D141F2883100A817
:10079C0000F0EEFB0600EEE7F6B2002E20D1DFF8FB
:1007AC004807006830F00060DFF83C17086000F084
:1007BC00C1FA0020DFF828170860DFF83806006857
:1007CC000090DFF8B0060068C00709D4F6B2002E1E
:1007DC0006D141F2883100A800F0CAFB0600F0E710
:1007EC00F6B2002E1BD1FFF7DEFCDFF838060078DE
:1007FC00002814D0DFF828060068807840280ED135
:10080C00DFF81C0600680079E4B2A04207D1DFF8DB
:10081C00100600684079002801D10020070000F084
:10082C00DFF8F6B2002E02D001A800F01FFCDFF8B2
:10083C00B806006830F08060DFF8AC16086038004D
:10084C00C0B209B0F0BD0000DFF8A0060068401C83
:10085C00DFF8981608600020B0F5967F01D2401C96
:10086C00FAE75FF08070DFF8C01408605FF080700A
:10087C00DFF8B81408607047DFF808040068401C03
:10088C00DFF800140860DFF8A8050068401CDFF8EA
:10089C00A0150860DFF898050068DFF8DC158842C1
:1008AC0004D1DFF84C06DFF8881508600020B0F59D
:1008BC00967F01D2401CFAE7DFF8B8050068C00744
:1008CC0009D45FF08070DFF8601408605FF080700E
:1008DC00DFF858140860704710B401000878821CC7
:1008EC00A5200023DBB2D2B2934204D20C78604034
:1008FC00491C5B1CF6E7C0B210BC70472DE9F041F7
:10090C008AB0040000A8DFF8EC15282200F072FB76
:10091C00DFF8E4050068401CDFF8DC1508601C20DB
:10092C0001F0C6FC0700002F04D100A800F09EFBCC
:10093C0000203AE02078C01C05000020C0B2EDB2C7
:10094C00A84206D2C0B2015DC0B2C2191171401CDE
:10095C00F4E7DFF8A004006838600020B861DFF825
:10096C0038050068002803D1DFF82C0507601BE070
:10097C00DFF824050068804601200600D8F818002E
:10098C00002806D0F6B2202E03D2D8F81880761C98
:10099C00F4E7F6B2202E02D0C8F8187004E000A8D4
:1009AC0000F064FB002000E001200AB0BDE8F081FB
:1009BC0010B5DFF8E004006800280DD0DFF8D4048F
:1009CC0000680400DFF8CC0400680069DFF8C41488
:1009DC000860200001F0C4FC10BD00009C640800FD
:1009EC0030B585B0DFF83C040078002801D1012037
:1009FC001CE1DFF808050068401CDFF800150860F2
:100A0C00DFF820040078401EDFF818140870FFF798
:100A1C00F0FCDFF80C04006800780400E4B2122C3F
:100A2C0001DB012002E10025E01CEDB2C0B28542E1
:100A3C000AD2DFF8EC030068007800A9EDB2685424
:100A4C00FFF7D7FC6D1CEFE79DF801003E2800F086
:100A5C00CB8040280CD04E2800F0B8804F2800F0F6
:100A6C00A880522800F0BF806F2800F0D180D6E01B
:100A7C009DF80300012840D09DF8030041281DD0AB
:100A8C00422816D04B2802D04C280DD01BE0DFF8A2
:100A9C00700400F0EBFADFF85004006850F400200A
:100AAC00DFF84414086012E0DFF8580400F0DEFAB6
:100ABC000DE0DFF8540400F0D9FA08E0DFF84C043C
:100ACC0000F0D4FA03E0DFF8480400F0CFFA9DF808
:100ADC000400002804D1DFF8D40300F0C7FA67E063
:100AEC00DFF8300400F0C2FADFF8FC03006850F0C5
:100AFC000200DFF8F41308605AE09DF804000028A7
:100B0C000AD0022809D003282AD0052830D006287C
:100B1C003AD007283CD044E04AE0DFF8FC030078E8
:100B2C00401CDFF8F4130870DFF8EC0300780028A1
:100B3C0012D1DFF8E8030078401CDFF8E0130870EE
:100B4C00DFF8D8030078002806D1DFF8D40300784A
:100B5C00401CDFF8CC130870022000F069F827E085
:100B6C007D484078102802D1032000F061F81FE086
:100B7C00DFF87403006850F08070DFF86C130860C5
:100B8C00052000F055F813E0062000F051F80FE0B6
:100B9C00DFF85403006830F40020DFF84C130860D1
:100BAC0006E0DFF84403006850F00400CE4908600A
:100BBC003BE00DF10301012000F068F86648407835
:100BCC00002802D1002000F033F82EE00DF10301D3
:100BDC00012000F05BF860484078002802D100202A
:100BEC0000F026F821E020E00020C0B20A2808DA44
:100BFC0000A9C0B241188978AD4AC0B28154401CDA
:100C0C00F3E7A948006850F01000A74908600CE011
:100C1C00B548006850F48030B349086005E0B2482C
:100C2C00006850F00800B0490860002005B030BDE5
:100C3C001CB50400FF208DF800008DF80140FF204A
:100C4C008DF80200FF208DF80300FF208DF80400C2
:100C5C00B34800788DF80500B04800788DF8060090
:100C6C00AD4800788DF807000DF10301022000F06B
:100C7C000DF813BD14140020D81A0020B01A00204F
:100C8C000C640800C81A0020BC1A00202DE9F041A1
:100C9C008CB004000D0000A8A2492B2200F09AF998
:100CAC00142001F005FB0600002E04D100A800F072
:100CBC00DDF9002035E00020C0B2082806DAC0B209
:100CCC00415DC0B282195171401CF5E7494800687A
:100CDC0030603471002030616E480068002802D109
:100CEC006C4806601CE06B480068070001208046D9
:100CFC003869002808D05FFA88F8B8F1200F03D2C1
:100D0C003F6918F10108F3E75FFA88F8B8F1200F92
:100D1C0001D23E6104E000A800F0A8F9002000E038
:100D2C0001200CB0BDE8F081340E0E40300E0E40A8
:100D3C0040420F0010B55848006800280AD05648A9
:100D4C00006804005448006880695349086020001A
:100D5C0001F006FB10BD0000581A002041420F00A4
:100D6C0070B5012400256048006800041ED06E4850
:100D7C00EDB2142101FB050000F078F96D1C002682
:100D8C00F6B2042E12DA5848006820420BD066489E
:100D9C00EDB2142101FB050000F068F9524800681F
:100DAC00A043514908606400761CE9E7FFF718FE80
:100DBC0030480068C00704D50FF23D003249086086
:100DCC0016E047480068002812D133480068002814
:100DDC000ED031480068001DFFF7E5FB002807D056
:100DEC0052480068524908600FF2490026490860D1
:100DFC0070BD0000601B002080B54E480068401C90
:100E0C004C490860FFF7CFF93748006830F0806034
:100E1C003549086048481C49086001BDDC1A0020AF
:100E2C00E01A0020DE1B0020EC1A0020CC1A002057
:100E3C00D81A002010B52A48006801F0EBF804001D
:100E4C00E4B22000042804D0052811D13B4800F05E
:100E5C000DF9FFF76FFF0020214908602248006858
:100E6C0030F0006020490860334807490860FFE70C
:100E7C0010BD0000801B002014150020481B002012
:100E8C00E80000204D0F0800B81A0020100E0E408C
:100E9C0090020020B41A0020E41A00202819002027
:100EAC00000E0E40D41A00204C1B0020CC03002056
:100EBC00641A0020DC010020040C0E40000C0E40D3
:100ECC00040E0E40140C0E40140E0E40641B002039
:100EDC0024610800DC630800206408003464080006
:100EEC00D01A002034630800B01A0020C41A002065
:100EFC0014140020D4600800F41A0020F01A00200A
:100F0C004403002030030020080300207802002056
:100F1C005C020020D4030020E11B0020E01B002019
:100F2C00DF1B0020A860080084000020601B00204C
:100F3C00C01A0020E81A00206D0D0800FC010020EA
:100F4C00704710B450F8041B81B102681218001DD0
:100F5C0050F8043BDC0744BFA9F10104E31852F834
:100F6C00044B43F8044B091FF9D1EBE710BC704755
:100F7C0010B40200164800681468A04205D3144847
:100F8C0000681468001B030007E05FF0FF30146872
:100F9C00001B0F4C2468201803008B4201D2002048
:100FAC0000E0012010BC70470100FF20C9B20A29E3
:100FBC0003DA11F13002100008E0C9B20A2905DB8E
:100FCC00C9B2102902DA11F137021000C0B2704711
:100FDC00601B002062B38B0708D0521E11F8013B36
:100FEC0000F8013B00F024808B07F6D1830740F01A
:100FFC00208000BF103A07D330B4B1E83810103A53
:10100C00A0E83810F9D230BC530724BFB1E808105F
:10101C00A0E8081044BF51F8043B40F8043BD20749
:10102C0024BF31F8022B20F8022B44BF0B7803703D
:10103C007047083A07D3B1E80810083A40F8043B67
:10104C0040F804CBF7D25307E4E750F8041B61B126
:10105C0050F8042BD30744BFA9F101039A180023BD
:10106C00091F42F8043BFAD1EFE7704770B5040052
:10107C00250000262878002802D0761C6D1CF9E784
:10108C0022003100DFF8F805006801F073FA70BD3A
:10109C0080B5DFF8F0050088ADF8000000AA022149
:1010AC00DFF8DC05006801F065FA01BD2DE9FE43AF
:1010BC00040000250026DFF8D0850020C0B20A28E5
:1010CC0019DAB4FBF8F1303100AAC0B2815400A98E
:1010DC00C0B2415C302901D001210D00EDB2002DD0
:1010EC0000D0761CB4FBF8F108FB11440A21B8FBC4
:1010FC00F1F8401CE2E7EDB2002D01D10120060011
:10110C00F6B2300001F0D4F88146B9F1000F08D1E5
:10111C000220DFF8781508700FF23150DFF87015E7
:10112C000860092007003000C0B2002809D000A9CF
:10113C00795CC0B210EB090202F8011C7F1E401E44
:10114C00F2E74A46F6B23100DFF83405006801F0E8
:10115C0011FA484601F004F9BDE8F78370B5A6B062
:10116C0000A8DFF830150522FFF734FF14A8DFF8CC
:10117C0028154822FFF73EFF0124012502A8DFF8BD
:10118C001C154822FFF736FF14A8FFF76FFF002647
:10119C00F6B2072E12DADFF80805006804420AD10D
:1011AC000020050002A8F6B20A2101FB0600FFF799
:1011BC005DFFFFF76DFF6400761CE9E7EDB2002DD3
:1011CC0002D000A8FFF752FFFFF762FF26B070BDF8
:1011DC0000B585B0002080B2802806D20021DFF84F
:1011EC00C42480B28154401CF5E7DFF8B804DFF862
:1011FC00B8140860DFF8AC04DFF8B0140860DFF84E
:10120C00B004DFF8B014086002208DF80000DFF89D
:10121C0094040190DFF8940402908020ADF8020051
:10122C000FF25900039000A801F0F0F8DFF8501409
:10123C000860DFF84C040068002805D10FF20D405F
:10124C00DFF84C14086010E0DFF86C04FFF70EFFB9
:10125C00DFF84C04006850F00400DFF84414086018
:10126C000FF23520DFF82814086005B000BD80B5FA
:10127C00DFF81C040068804701BD0000DFF82C0477
:10128C000068401CDFF824140860DFF820040068B4
:10129C00DFF82814884204D1DFF80804DFF80C14B6
:1012AC000860704710B592B00AA8DFF81414192220
:1012BC00FFF790FE3A208DF8020020208DF80300F5
:1012CC000A208DF824000D208DF825000AA8FFF7C0
:1012DC00CDFE0024E4B2082C2CDAE4B20A2C07DB95
:1012EC00E4B20A2094FBF0F030308DF8000002E0FC
:1012FC0030208DF80000E4B20A2094FBF0F100FBE2
:10130C00114030308DF801000020C0B220280CDADA
:10131C00DFF8B013E4B251F83410C0B2415C00AA4B
:10132C00C0B282181171401CEFE700A8FFF79EFEB7
:10133C00641CCFE7FFF7ACFE12B010BD10B584B043
:10134C0000A8DFF884131CC91CC00C390C3800A889
:10135C00FFF78CFE1FBD10B584B000A8DFF86C132E
:10136C001CC91CC00C390C3800A8FFF77FFEDFF835
:10137C0060030078C0070CD5DFF854030068400800
:10138C004000DFF84C130860DFF84803FFF76EFEEF
:10139C000BE0DFF83C03006850F00100DFF830137D
:1013AC000860DFF83403FFF761FE1FBD10B50400C1
:1013BC00E4B2422C0BD1082001F026FB092001F0ED
:1013CC0023FB0A2001F020FB0B2001F01DFBE4B2F3
:1013DC00522C0BD1002001F017FB012001F014FB63
:1013EC00022001F011FB032001F00EFBE4B2472CAC
:1013FC000BD1042001F008FB052001F005FB0620B1
:10140C0001F002FB072001F0FFFA10BD00B589B016
:10141C0000A8B2492322FFF7DDFD00A8FFF726FE46
:10142C00AB480078C00709D5A948006840084000BF
:10143C00A7490860A748FFF719FE08E0A448006810
:10144C0050F00100A2490860A348FFF70FFE09B055
:10145C0000BD00B587B000A8A1491B22FFF7BAFD5B
:10146C0000A8FFF703FE9A480068C00309D5984806
:10147C00006830F48030964908609648FFF7F6FD16
:10148C0008E09348006850F4803091490860924815
:10149C00FFF7ECFD07B000BD38B5002482480068AA
:1014AC0082490968884262D0E4B2002C5FD17E4840
:1014BC000068007805008B480078012803D12800CB
:1014CC00C0B2FFF773FFEDB22800082802D00D2838
:1014DC0013D018E0774800687549884209D07548E0
:1014EC000068401E734908607F480088401E7E4992
:1014FC0008807E48FFF7BAFD2BE0012004000FF2B4
:10150C008100634908602900C9B25D48006801F098
:10151C0019F868480068057066480068401C654901
:10152C00086071480088401C6F4908806148006859
:10153C006F4988420DD3EDB20D2D0AD05C485D4940
:10154C0008600020684908806A48FFF78FFD6A49E7
:10155C00086055480068401C5349086052480068B0
:10156C00564988429AD34F484F49086096E76248DB
:10157C000068002803D06048006800F04BFD31BDC6
:10158C0070B50124002005004948EDB2285C5B4988
:10159C00EDB2695C884201D0002004006D1CE4B2FD
:1015AC00002C02D0EDB2042DEEDBE4B2002C2ED0D8
:1015BC00002004003E48EDB22856303806006D1C61
:1015CC0076B2002E23D476B20A2E20DA0A2000FB43
:1015DC0006F04B4908703648EDB2285630380600F4
:1015EC006D1C76B2002E12D476B20A2E0FDA444855
:1015FC00007830184249087041480078082806DA0B
:10160C002B48EDB2285C0D2801D101200400E4B276
:10161C00002C04D00FF21D001D49086005E039486C
:10162C00FFF724FD38481A49086021482149086011
:10163C0070BD000080B53448154908602148304918
:10164C00097810EBC1004068804701BD80B5204887
:10165C00006850F000401E4908602C48FFF706FD5A
:10166C000A480078FFF722FDFFF712FD00201E4903
:10167C0008800F480F49086023480549086001BDE0
:10168C00141B0020CE2C080000CA9A3BE51B00203E
:10169C00101B0020D4640800D85F080020600800EC
:1016AC004C1B0020A4160020201B00201C1B00201B
:1016BC0024180020241B002068010020241700207F
:1016CC005063080028010020786408008464080036
:1016DC000C1B0020FC030020F40300208C6208008B
:1016EC006C63080012040020DC1B0020080400209E
:1016FC00641800201C020020181B0020DC030020B2
:10170C00E61B00206C030020A5140800A802002092
:10171C00012110F01F029140DFF8842840B24309E8
:10172C0042F823107047012110F01F029140DFF89E
:10173C00742840B2430942F8231070472DE9F04752
:10174C0004002078022804D034D3042821D010D3EC
:10175C0030E0DFF85408050050200600DFF84C0894
:10176C000700082080467FF0080081461A20824638
:10177C0022E0DFF83C08050060200600DFF83408A2
:10178C000700002080465FF0FF3081463020824603
:10179C0012E0DFF82408050050200600DFF81C08D2
:1017AC0007005FF4002080465FF0FF308146002088
:1017BC00824601E0002063E02869C00201D50020C8
:1017CC005EE0DFF8FC070068012195F926209140C6
:1017DC000843DFF8EC17086060686860A068A860D0
:1017EC00207B2873607B6873206968616069A861DD
:1017FC00A069E861E0692862208CA884286950F40B
:10180C008010286128680660286847602868C0F83E
:10181C0008802868C0F80C902868C0F820A0687B65
:10182C0001281BD1A0692968C1F80001A069401CDE
:10183C002968C1F8100101202968C1F804010120B0
:10184C002968C1F814010020286240F201102968AF
:10185C00C1F820015FF4002029688860687B0228A9
:10186C0003D1DFF860072968886095F9260040B23B
:10187C00FFF759FF95F9260040B2FFF749FF280002
:10188C00BDE8F087F8B504000D0016003200290001
:10189C0014F1280000F0DAFB0700002F01D1002022
:1018AC0007E0DFF828070068002801D500F087F86A
:1018BC003800F2BD70B5DFF81C07DFF8EC160860D5
:1018CC000020DFF8E41648600020DFF8DC168862A0
:1018DC000020DFF8D416C8610020DFF8CC1688840D
:1018EC000020DFF8C41608620020DFF8BC1608617F
:1018FC000D20DFF8B41681F82600DFF8DC06DFF8DF
:10190C00B01608600020DFF8A81648600020DFF849
:10191C00A01688620020DFF89816C8610020DFF856
:10192C00901688840020DFF8881608620020DFF803
:10193C00801608610E20DFF8781681F82600DFF893
:10194C009C06DFF8741608600020DFF86C164860FF
:10195C000020DFF8641688620020DFF85C16C8618E
:10196C000020DFF8541688840020DFF84C1608623B
:10197C000020DFF8441608610F20DFF83C1681F8D0
:10198C002600DFF82406DFF8581608608024FF25AF
:10199C00DFF83C662A002100300001F05FF90FF2FD
:1019AC004940DFF824160860DFF83806FFF75EFBC5
:1019BC0070BD80B5DFF810060068804701BD80B5AA
:1019CC00DFF82406006850F00100DFF81C160860F0
:1019DC00DFF8D405DFF808160860DFF80C0600788D
:1019EC00C0070FD5DFF8E00500688047DFF8FC057D
:1019FC000068DFF8FC1508600121DFF8F405FFF73B
:101A0C00B7FAEAE701BD80B5DFF8A405DFF8E41505
:101A1C000860DFF8E805DFF8E0150860DFF8E0059E
:101A2C000068401CDFF8D815086000F016F801BDFE
:101A3C0080B5DFF88405DFF8BC150860DFF8C40555
:101A4C00DFF8B4150860DFF8C0050068401CDFF84B
:101A5C00B815086000F001F801BD38B5DFF8940541
:101A6C00006800680069000347D5DFF88805006846
:101A7C0000684069000340D5DFF8780500684068CD
:101A8C00C06BDFF8701509688968084214D1DFF85B
:101A9C0068050068006850F00100DFF85C15096803
:101AAC000860DFF854050068006830F00E00DFF8BD
:101ABC0048150968086020E0DFF83C0500680068FC
:101ACC0050F00200DFF8301509680860DFF82805CF
:101ADC000068006840084000DFF81C1509680860C1
:101AEC00DFF810050068407B012806D10120DFF8E3
:101AFC00041509680968C1F80401DFF8F8040068E6
:101B0C000068006980057CD5DFF8E804006800688F
:101B1C004069800575D5DFF8DC040068C06A401E9A
:101B2C00DFF8D0140968C862DFF8C8040068C06A1E
:101B3C00002825D0DFF8BC040068006B401CDFF8DF
:101B4C00B41409680863DFF8AC040068006B007813
:101B5C000400DFF8A0040068007B012803D194FA8C
:101B6C00A4F0000E04002000C0B2DFF8881409684D
:101B7C000968C861DFF87C0400684069804740E070
:101B8C004FF40070DFF86C1409680968C860DFF85E
:101B9C0064040068006930F40010DFF85814096818
:101BAC0008610421DFF84C040068806A006800F0CA
:101BBC0033FBDFF840040068283000F0C4FADFF88B
:101BCC003404006800684069C007F8D5DFF82404C5
:101BDC0000680068806904000120DFF818140968A7
:101BEC0009688860DFF810040068006850F0040091
:101BFC00DFF8041409680860DFF8F803006840692E
:101C0C008047DFF8F003006800680069C00737D52B
:101C1C00DFF8E003006800684069C00730D5DFF8E2
:101C2C00D403006800688069C0B20400DFF8C40304
:101C3C000068007B012803D194FAA4F0000E040084
:101C4C002000C0B2FF2806D1DFF8C0030068401C9A
:101C5C00DFF8B8130860DFF89C030068006A0068BE
:101C6C000470DFF894030068006850F00800DFF897
:101C7C00881309680860DFF87C0300688069804776
:101C8C00DFF87003006800680069000767D5DFF8AB
:101C9C006403006800684069000760D5DFF85403EE
:101CAC000068407B00282BD10421DFF84803006832
:101CBC00806A006800F0B0FADFF83803006828305A
:101CCC0000F041FADFF82C030068006930F4800062
:101CDC00DFF8201309680861DFF8180300688068D2
:101CEC00C4490968496808630220C249096809683F
:101CFC00C1F820010820BF4909680968C8602EE0B6
:101D0C00BD480068006850F00800BB4909680860CD
:101D1C00B84800680068D0F81001401CB549096843
:101D2C000968C1F81001B34800680068D0F80001D8
:101D3C00B0490968C969AF4A1268928C5118884237
:101D4C0007D1AC480068C069AA4909680968C1F89C
:101D5C0000010120A74909680968C1F81401A548C8
:101D6C00006800680069C0063DD5A248006800689C
:101D7C004069C00637D504219E480068806A006817
:101D8C0000F04AFA9B480068283000F0DCF99948CA
:101D9C000068006930F400109649096808614FF436
:101DAC000070944909680968C1F820011020914914
:101DBC0009680968C860002005008E480068006842
:101DCC004069800503D4642D01D26D1CF5E7894868
:101DDC000068407B002806D18648006880688549E9
:101DEC0009684968086331BD10B57D480068806A90
:101DFC00002800F0B1807A480068006910F4C00F28
:101E0C0040F0AA8076480068407B002806D17448D0
:101E1C0000688068724909684968486370480068BE
:101E2C00806A08306A4988422CD103216C480068CA
:101E3C00806A006800F0F0F969480068006950F4A5
:101E4C00800067490968086165480068806A083045
:101E5C00634909680968C1F8000161480068806A33
:101E6C0040685F4909680968C1F8040108205C49A9
:101E7C000968096888600120594909680968C1F82E
:101E8C00200169E0022156480068806A006800F071
:101E9C00C3F953480068006950F4001050490968B0
:101EAC0008614F480068407B022837D14C480068D5
:101EBC00806A40684A490968C86249480068806A73
:101ECC00083047490968086345480068006B00788A
:101EDC00040043480068007B012803D194FAA4F065
:101EEC00000E04004FF480703D49096809680860D1
:101EFC002000C0B23A4909680968C86101203D490F
:101F0C0009680968C8604FF40070354909680968A8
:101F1C00886033480068406980471DE0304800689D
:101F2C00806A08302E4909680968C1F808012C48F4
:101F3C000068806A40682A4909680968C1F80C0180
:101F4C00102027490968096888604FF4807024497B
:101F5C0009680968C1F820012148006890F826003A
:101F6C000D2804D015D30F2809D004D311E0104844
:101F7C001B49086013E01048194908600FE00A4833
:101F8C001749086018480068400840001649086066
:101F9C0005E01F48FFF76AF803481149086010BDB7
:101FAC0000E100E080E200E064180020C00840007E
:101FBC0098180020CE184500CC180020FF184100BE
:101FCC0010040E4001000800841B0020481B002058
:101FDC00A41700200000094000400940008009407F
:101FEC00901B0020D80200208C1B0020601B0020BE
:101FFC00881B0020941B0020981B00207C1B0020B9
:10200C009C1B0020801B0020A01B0020A41B002078
:10201C00F00200200100FF209A4A13688B4204D082
:10202C00994B9A4201D00C32F7E7974B9A420BD05E
:10203C0013791800C0B2042802D0C0B2052803D10D
:10204C000023136000231371C0B270472DE9F84FC1
:10205C0004000D001600AB465FF000098B480078B9
:10206C00102807D18A48006850F0010088490860A0
:10207C00002066E0BBF1000F62D084480078401C61
:10208C0082490870814800780E2806DB8048006879
:10209C0050F002007E49086005E07D48006830F091
:1020AC0002007B4908607B4882469AF800000028B1
:1020BC0002D11AF1900AF8E700208AF800001AF110
:1020CC0004000700BBF1810F04D380208146BBF1D3
:1020DC00800B02E0D946002083466F4800683860C8
:1020EC00C7F804900020C7F888000020796888425F
:1020FC0005D23178C2191172761C401CF6E72068A3
:10210C00002801D127600AE020688046D8F88800B2
:10211C00002802D0D8F88880F8E7C8F888705E48A4
:10212C00006800F087F85C480068401C5A49086059
:10213C005948006800289DD101205749086099E74B
:10214C003868BDE8F28F0268002A06D1504A12683E
:10215C0052F004024E4B1A601FE04E4A11000A1D49
:10216C0003689A4204D04D4A914201D09031F6E76F
:10217C004A4A914206D1464A126852F00802444B30
:10218C001A600AE00268D2F88820026001220A7004
:10219C003E4A1278521E3D4B1A70704700203B4944
:1021AC00087001203C490860002080B2102808DA31
:1021BC000121384A80B2902303FB00221170401C8D
:1021CC00F3E7002080B2402816DA00212D4A80B2B5
:1021DC000C2303FB0022116000212A4A80B20C233D
:1021EC0003FB002211710021264A80B20C2303FB51
:1021FC0000229160401CE5E7224829490860002034
:10220C00234908600FF2610026490860704780B5C9
:10221C0024480068804701BD1A4A1368834204D0E1
:10222C00194B9A4201D00C32F7E7174B9A4200D067
:10223C00117170471A49096808600121184A12681F
:10224C00117119490968164A126891601449096894
:10225C000C31134A1160124909680B4A914202D1A0
:10226C0008490F4A1160704710480068401E0F491A
:10227C0008600E480068002803D14FF47A700B49AF
:10228C00086070471411002014140020EA1B002071
:10229C00501B002014040020581B0020140D00209B
:1022AC005C1B0020541B0020601B00200C04002031
:1022BC0070B5054605F10F00C408E400C046C046E1
:1022CC00A54232D2082C04D2082402E0083000F0D7
:1022DC0047F82248026811000CD1011D0A6802B3AC
:1022EC001368A34238BF111DF8D310E01D68A54236
:1022FC000DD2191D0B68002BF8D11268011D00E0DE
:10230C00191D0B6893420CD01D68A542F8D361B11E
:10231C000D682A68A2F10803A3420AD26A680A600F
:10232C000FE000F0CFFC0028D0D1C046C046002002
:10233C0070BD63190B60121B6E685E600B681A60CF
:10234C002C60096800291DBF4A68002A091D00215C
:10235C000160C046C04605F1080070BDA81A0020F7
:10236C0000B9704738B5A0F108042068082833D3A9
:10237C0010F0070F30D1C046C0461848416809B16B
:10238C008C4203D26160446017E019464B680BB174
:10239C00A342FAD30B685D18AC421BD3A54204D1FF
:1023AC002268D2180A600C4607E04A681AB1236802
:1023BC001B199A420ED362604C60616851B122685D
:1023CC0013198B4206D10023036008688018206023
:1023DC0048686060C046C04631BD0000A81A0020A5
:1023EC00012110F01F029140DFF8FC2440B2430998
:1023FC0042F823107047012110F01F029140DFF8C2
:10240C00EC2440B2430942F8231070472DE9F04701
:10241C0004002078012806D046D3032823D012D3F9
:10242C00042830D040E0DFF8C80405005020060036
:10243C00DFF8C0040700002080465FF0FF308146C3
:10244C001A20824632E0DFF8B00405005020060066
:10245C00DFF8A0040700082080467FF008008146C2
:10246C001A20824622E0DFF8940405006020060062
:10247C00DFF88C040700002080465FF0FF308146B7
:10248C003020824612E0DFF87C0405005020060064
:10249C00DFF8740407005FF4002080465FF0FF3023
:1024AC0081460020824601E0002049E02879C007DF
:1024BC0001D5002044E0DFF854040068012195F9AF
:1024CC00222091400843DFF844140860606868617A
:1024DC0060882884A068A861E068E861686850F0AA
:1024EC000100686028680660286847602868C0F8A2
:1024FC0008802868C0F80C902868C0F820A0606894
:10250C002968C1F800016068401C2968C1F81001F5
:10251C0001202968C1F8040101202968C1F81401BF
:10252C0040F201102968C1F8200195F9220040B24F
:10253C00FFF761FF95F9220040B2FFF751FF280029
:10254C00BDE8F08770B582B004000D008DF8005026
:10255C0000AA012114F10800FFF778FD0600002EF7
:10256C0006D0DFF8B0030068002801D500F09BF816
:10257C00300076BDF8B504000D00160032002900BD
:10258C0014F10800FFF762FD0700002F06D0DFF8FA
:10259C0084030068002801D500F085F83800F2BDEE
:1025AC000020DFF874130860DFF87003DFF84013C5
:1025BC0008600020DFF8381388600020DFF8301343
:1025CC0048610020DFF8281308840020DFF820136E
:1025DC0088610020DFF8181348600820DFF810131A
:1025EC0081F82200DFF83803DFF80C1308600020B4
:1025FC00DFF8041388600020DFF8FC12486100202B
:10260C00DFF8F41208840020DFF8EC128861002057
:10261C00DFF8E41248600D20DFF8DC1281F82200AC
:10262C00DFF80003DFF8D41208600020DFF8CC12CA
:10263C0088600020DFF8C41248610020DFF8BC126B
:10264C0008840020DFF8B41288610020DFF8AC1297
:10265C0048600E20DFF8A41281F82200DFF8C802CF
:10266C00DFF8A01208600020A64988600020A54968
:10267C0048610020A34908840020A24988610020F9
:10268C00A04948600F209F4981F822009848A7492B
:10269C0008600FF27D109E490860704780B59C4819
:1026AC000068804701BD80B59B48006850F0010070
:1026BC00994908608E489D49086097480078C00782
:1026CC000BD5934800688047994800689949086081
:1026DC0001219848FEF74CFCEFE701BD80B584481A
:1026EC009549086095489649086096480068401CD2
:1026FC009449086000F010F801BD80B57E488E4901
:10270C00086091488E49086090480068401C8F49C9
:10271C00086000F001F801BD80B5874800680068CA
:10272C000069000738D584480068006840690007D4
:10273C0032D583480068006850F00200804909686F
:10274C0008607D4800680068D0F81001401C7A4988
:10275C0009680968C1F81001774800680068D0F86A
:10276C001001754909684969734A1268128C51182D
:10277C00884207D17048006840696F490968096848
:10278C00C1F810016C480068C069804701206A4993
:10279C0009680968C1F81401674800680068006995
:1027AC00C00632D56448006800684069C0062CD564
:1027BC0004216148006880680068FFF72DFD5E48C1
:1027CC0000680830FFF7BFFC5B480068406830F4D5
:1027DC0000105949096848604FF40070564909685F
:1027EC000968C1F820011020534909680968C860BC
:1027FC0057480078002805D055480078401E5449A9
:10280C00087002E05348FEF731FC01BD00000000E7
:10281C0080B5464800688068002836D04348006878
:10282C004068800231D4022140480068806800680A
:10283C00FFF7F2FC3D480068406850F400103B493B
:10284C000968486039480068806808303749096869
:10285C000968C1F808013548006880684068334948
:10286C0009680968C1F80C01102030490968096829
:10287C00886037480078401C354908704FF48070E8
:10288C002A4909680968C1F820012848006890F8AD
:10289C002200082806D00D2808D00E280AD00F28B0
:1028AC000CD01DE01448214908601CE013481F4956
:1028BC00086018E013481D49086014E00C481B49D7
:1028CC00086014480068002809D5214800780028C1
:1028DC0005D111480068400840000F49086002E02B
:1028EC0003481249086001BD00E100E080E200E00D
:1028FC0070190020C008400094190020B81900205D
:10290C00CE184500DC190020FF18410010040E40C1
:10291C00B01B0020481B0020B81B002000060E40F6
:10292C00000009400040094000800940BC1B002009
:10293C00601B0020B41B0020C01B0020A81B002023
:10294C00C41B0020C81B0020AC1B0020CC1B00208B
:10295C00EC1B00201463080010B4B84AC0B20A2360
:10296C0003FB0022D279012A0AD1B54AB34BC0B27B
:10297C000A2404FB00331B7A12EB8302110009E0DA
:10298C00B04AAE4BC0B20A2404FB00331B7A12EBE4
:10299C0083021100AC4AC0B252F820200A60002217
:1029AC00A64BC0B20A2404FB00331A7010BC70474B
:1029BC0010B4A24AC0B20A2303FB0022D279012A26
:1029CC000AD1A04A9D4BC0B20A2404FB00331B7AE7
:1029DC0012EB8302110009E0994A984BC0B20A2409
:1029EC0004FB00331B7A12EB83021100964AC0B22F
:1029FC0052F820200A600022904BC0B20A2404FB3B
:102A0C0000331A7010BC704790498C4AC0B20A232C
:102A1C0003FB0022127A11EB82010A688A4BC0B2C6
:102A2C0053F820305A400A6070472DE9F04182B0CB
:102A3C004FF47A644FF4FA75601B1421B0FBF1F675
:102A4C001427FFB2002F30D05FF028081FFA88F847
:102A5C00B8F1000F0DD07E4800680090012100A84D
:102A6C00FEF786FA0028F9D000F035F8B8F1010825
:102A7C00ECE7FFB2142F06D140F2DC5100A8FEF7B0
:102A8C0077FA0028F8D00020C0B20D2809DAFFB27E
:102A9C00791E6A4AC0B20A2303FB00225180401CF3
:102AAC00F2E7A41B75197F1ECBE700F014F8C821C0
:102ABC0000A8FEF75DFA0028F9D00C20FFF74CFFB8
:102ACC006448006850F00100624908606248FEF7F3
:102ADC00CDFABDE8F38110B50024E4B20D2C80F2E0
:102AEC00AA805648E4B20A2101FB040000780128B0
:102AFC0072D15248E4B20A2101FB0400B0F9020081
:102B0C00002804D12000C0B2FFF752FF5CE04B4814
:102B1C00E4B20A2101FB0400B0F90200142804D12C
:102B2C002000C0B2FFF718FF4EE04448E4B20A217F
:102B3C0001FB04008088401E4049E4B20A2202FBDB
:102B4C00041188803D48E4B20A2101FB040080880E
:102B5C00002839D13948E4B20A2101FB04008079FC
:102B6C0001281AD12000C0B2FFF722FF3348E4B28B
:102B7C000A2101FB0400B0F90200D0F114002F4926
:102B8C00E4B20A2202FB0411888000202B49E4B233
:102B9C000A2202FB0411887116E02000C0B2FFF774
:102BAC00DBFE2648E4B20A2101FB040040882349DD
:102BBC00E4B20A2202FB0411888001201F49E4B20E
:102BCC000A2202FB0411887101201C49E4B20A227A
:102BDC0002FB041108702CE01848E4B20A2101FB36
:102BEC0004000078022824D11448E4B20A2101FB25
:102BFC0004008088401E1149E4B20A2202FB041131
:102C0C0088800E48E4B20A2101FB04008088002869
:102C1C000FD12000C0B2FFF7F7FE0848E4B20A213A
:102C2C0001FB040040880549E4B20A2202FB0411AE
:102C3C008880641C51E710BD0000000000000020DB
:102C4C00300C0E40340C0E40A8010020380C0E4005
:102C5C00601B00204C1B0020C002002062F30F22DE
:102C6C0062F31F42401810F0030308D0C91A1FD397
:102C7C00DB0748BF00F8012D28BF20F8022D1300F8
:102C8C0030B414461546103928BF20E93C00FAD858
:102C9C00490728BF20E90C0048BF40F8042D8900E3
:102CAC0028BF20F8022D48BF00F8012D30BC70471A
:102CBC00C91818BF00F8012DCB0728BF00F8012D4B
:102CCC0070470A0D0749086808B10020704706488C
:102CDC00C008C00008600549C908C900091A01608C
:102CEC00704700BFD01B0020F71B0020F03B0020DA
:102CFC00F0B583B004000D0016003088ADF800006C
:102D0C007088ADF80200EDB2002D08D10620070046
:102D1C000720ADF804000520ADF8060007E00B20F5
:102D2C0007000E20ADF804000A20ADF8060020784C
:102D3C00002824D0BDF80200802820DAEDB2002D46
:102D4C000AD100A9DFF878082278072303FB0200D8
:102D5C00E03800F015F80AE000A9DFF868082278DE
:102D6C001C2303FB0200B0F5A86000F009F8BDF8C5
:102D7C000200FFB23818ADF80200641CD7E7F7BDAB
:102D8C002DE9F84F04000D002888402880F2AF8010
:102D9C006888802880F2AB80A8888DF8000028888D
:102DAC009DF800100818412804DB2888D0F1400059
:102DBC008DF80000E888834668881FFA8BFB1BEBB4
:102DCC000000812803DB6888D0F180008346002155
:102DDC009DF8000089B280B2814280F0858001208C
:102DEC0006000020804601206A88082392FBF3FC31
:102DFC000CFB132C10FA0CF007006888082290FBCF
:102E0C00F2F08146002292B21FFA8BFB5A4569D22E
:102E1C00E888082390FBF3FC0CFB130CBCF1000FAF
:102E2C000AD189B2E888082390FBF3F01FFA88F8DE
:102E3C0000FB018082460AE089B2E888082390FBF7
:102E4C00F3F0401C1FFA88F800FB018082461FFA41
:102E5C008AFA1AF80400304219D0DFF86C0789B2EC
:102E6C002B885B1810EB03101FFA89F9DFF8583721
:102E7C0089B2B5F800C01CEB010C13EB0C131FFA54
:102E8C0089F919F803303B4309F8003018E0DFF8F2
:102E9C00380789B22B885B1810EB03101FFA89F9DD
:102EAC00DFF8243789B2B5F800C01CEB010C13EB2A
:102EBC000C131FFA89F919F80330BB4309F80030D9
:102ECC007600F6B2002E03D10120060018F101089D
:102EDC007F00FFB2002F03D10120070019F1010977
:102EEC00521C90E7491C73E7280000F07CFABDE8FF
:102EFC00F18F2DE9F0410400A08807002088FFB273
:102F0C003818412803DB2088D0F140000700E08806
:102F1C00804660881FFA88F818EB0000812803DBD4
:102F2C006088D0F180008046208880B22188FFB272
:102F3C00791888422EDA6188082291FBF2F10E0092
:102F4C0001216288082392FBF3FC0CFB132C11FA71
:102F5C000CF10D00002189B21FFA88F8414517D2F7
:102F6C00DFF8642680B212EB0012B6B2DFF85836E6
:102F7C0080B213EB0013B6B2F35CAB43B3546D00E9
:102F8C00EDB2002D02D101221500761C491CE2E79E
:102F9C00401CCAE7200000F026FABDE8F08180B59D
:102FAC00002080B240280FDA002189B2102909DAFA
:102FBC00DFF8142680B212EB001289B200238B5476
:102FCC00491CF2E7401CECE7DFF8000600F00BFAB6
:102FDC0001BD10B50400DFF8F8050078C00722D455
:102FEC00DFF8EC05006850F00100DFF8E41508602C
:102FFC00DFF8E00504704FF40040DFF8DC150860E2
:10300C00DFF8D0250121DFF8D4050068FEF73AFC83
:10301C00DFF8CC1508600020DFF8C815086000F058
:10302C0026F9012000E0002010BD70B584B00C2002
:10303C00FFF792FCDFF8B0050068DFF8A815086010
:10304C000FF24140DFF8A4150860DFF8A405DFF8A3
:10305C00A41508600320DFF8A0150870DFF89C05A4
:10306C00DFF8941548604FF48050DFF88C158860B9
:10307C00DFF87C05DFF880158861DFF87805DFF86C
:10308C007815C8610120DFF8701508840020DFF87E
:10309C00681508730020DFF860154873DFF85805D1
:1030AC00FEF74CFBDFF8341508604FF48050DFF866
:1030BC00281508604FF48040DFF8441508600020A4
:1030CC000A2801D2401CFBE74FF48040DFF80815BA
:1030DC000860DFF814050068DFF828150860022185
:1030EC00DFF82005FDF744FF0028F8D04FF48040AE
:1030FC00DFF80C150860DFF8F0040068DFF8041541
:10310C0008600221DFF8FC04FDF732FF0028F8D03C
:10311C000B2004000025EDB2E4B2A54214D2DFF876
:10312C00E804EDB2285CFFF754FFDFF8BC0400683C
:10313C00DFF8D01408600521DFF8C804FDF718FF8C
:10314C000028F8D06D1CE6E7DFF88004FFF7D1FE0D
:10315C0000F08DF8DFF890040068DFF8A814086020
:10316C004FF4FA71DFF89C04FDF702FF0028F7D04A
:10317C00A420FFF72EFF00250026F6B2282E63DAD6
:10318C00DFF84804FFF7B5FE0020ADF80000F6B2FA
:10319C00ADF802601920ADF804001920ADF8060056
:1031AC0000A9DFF86804FFF7EBFD0020ADF8000084
:1031BC00F6B2D6F16700ADF8020000A9DFF85004B2
:1031CC00FFF7DEFDEDB2D5F12700ADF80000F6B249
:1031DC00ADF8026000A9DFF83C04FFF7D1FDEDB2B9
:1031EC00D5F12700ADF80000F6B2D6F16700ADF8C6
:1031FC00020000A9DFF82004FFF7C2FDDFF81C0471
:10320C0000F024FA062148434008D0F14000ADF804
:10321C000A003820ADF8080002AA0021DFF8FC03F0
:10322C00FFF766FD00F023F8F6B2032096FBF0F1F1
:10323C0000FB1160002805D16D1CEDB20D2D01D1E4
:10324C000E200500761C98E7DFF8D403006850F0D8
:10325C000800DFF8CC130860DFF8C803FDF706FFA1
:10326C007FBD80B5DFF884030068804701BD80B561
:10327C00DFF8B403006800281FD50020DFF86413C2
:10328C000860DFF84C03006850F08050DFF8401302
:10329C000860DFF83C030068C0000ED5DFF84C0373
:1032AC0000688047DFF8400300680090012100A807
:1032BC00FDF75EFE0028ECD1F8E701BD38B504003F
:1032CC00DFF868034088D0F18000DFF86013C9880C
:1032DC00451ABF480078C00721D454F0B000BD494E
:1032EC000870C5F3031050F01000BA49487015F07F
:1032FC000F00B84988704FF40040B7490860B448D3
:10330C00006850F00100B2490860B24A0321B3488A
:10331C000068FEF7B7FAB2490860012000E000200F
:10332C0032BD2DE9F0470400AA480600BF4840888A
:10333C00BE49C9880818401E082190FBF1F007000F
:10334C000120BA494988B94AD2885118491E082225
:10335C0091FBF2F303FB121398408146E4B2A4B242
:10336C00E0000500012080460021B048C08889B2E9
:10337C00814229D2002082460022D2B2082A12DAD7
:10338C009148ADB2D2B2531910EB0310FFB2385CB6
:10339C0010EA090F05D05FFA88F818FA02F050EA23
:1033AC000A0A521CE9E786F800A0761C5FFA89F934
:1033BC005FEA59095FFA89F9B9F1000F02D180204F
:1033CC0081467F1E491CD0E74FF400408C490860B1
:1033DC00804A9648C18881480068FEF753FA8049B4
:1033EC000860BDE8F087924A9288002A0CD1428886
:1033FC008F4B5A8002888E4B1A80C2888C4BDA8095
:10340C0082888B4B9A803BE04288894B5B889A423E
:10341C0002D24288864B5A800288854B1B889A427E
:10342C0002D20288824B1A80B0F90020B0F9043025
:10343C009A187F4BB3F90030D21A7D4BB3F9043094
:10344C00D21A110009B2012904DB794A92888A1830
:10345C00774B9A80B0F90220B0F906309A18744B69
:10346C00B3F90230D21A724BB3F90630D21A1100EA
:10347C0009B2012904DB6E4AD2888A186C4BDA80B7
:10348C007047000080B552480078C0070BD55648ED
:10349C0000685C4908606748674908600FF2AD0036
:1034AC005249086051E019214E48FDF761FD002892
:1034BC0045D04D4800684B4908605D48808800281D
:1034CC0043D05B488088594988805948C0885749FF
:1034DC00C88057480088554908805548408853494A
:1034EC00488000205249888000205149C880002023
:1034FC004F49088000204E4948804C4800884B4971
:10350C0089880818401E082190FBF1F0474909886A
:10351C00082291FBF2F1401A401C484908704348BC
:10352C000088082190FBF1F0454908704448007868
:10353C00FFF7C4FE0FF215002C49086005E0244883
:10354C00006830F080502249086001BD80B52448E5
:10355C000068FEF75FFD042831D138480078002858
:10356C0020D01B480078C00714D5194800684008C3
:10357C0040001749086032480078FFF7D2FE304807
:10358C000078401C2E4908702C480078401E2B49AE
:10359C00087003E02A480078FFF790FE2948264976
:1035AC00086008E00A480068274908400849086094
:1035BC00204821490860204800680C49086001BD7A
:1035CC00585508007C5C0800140D0020E403002012
:1035DC002C1B002024170020340E0E40401B002012
:1035EC003C1B0020341B0020601B0020281B0020EB
:1035FC00E91B0020441B00204C190020000E0E403B
:10360C00300E0E40301B0020B4030020485E080032
:10361C00AC5E0800105F0800745F0800A80300206F
:10362C004C1B00209C030020481B0020901A0020FB
:10363C00881A002091340800381B0020E71B00205A
:10364C00E81B002059350800FEFFFFEF00F10103D5
:10365C00810704D010F8011B89B18107FAD10268E7
:10366C00B2F10131914311F0803F04BF50F8042FA7
:10367C00F6E710F8011B11B110F8011BFBE7C01A9B
:10368C00704700002DE9F14F98B000F061FB0B90F2
:10369C00002000908046DFF8A044DFF8A0040178F9
:1036AC00012946D0012101702068020CA2606168DA
:1036BC000B0CE360DFF888542F683F0CAF606D682B
:1036CC002D0CDFF87C74FD601343A360C4F80C80F0
:1036DC00CDF8008000250122009F02FA05F61E405D
:1036EC00AE40374300976D1C102DF5D3009BA360A3
:1036FC00DFF84C34009D6D009D60C3F80C800843CE
:10370C002060C4F80480CDF800800027009902FAEC
:10371C0007F30340BB40194300917F1C102FF5D3D6
:10372C000098206000984000DFF814140860C1F87D
:10373C00048004A80CA916AA13AB11AD189F04EBB6
:10374C0087070397189EDFF8F8E30EEB860CA64666
:10375C00022657F8089BC0F800905CF8089B41F8CB
:10376C00049B50F8049B42F8049BDEF80090DEF8B2
:10377C0004A04AEA090943F8049B45F8048B0EF1AE
:10378C00080E761EE5D1012000F0E6FADFF8B453FE
:10379C000498002800F0488102900C980190189829
:1037AC0054F820006862189854F820002860189883
:1037BC0054F820006865189854F820006865029841
:1037CC0028650198286502986860019868600298DD
:1037DC00286201986862019828605FEA884033D4B7
:1037EC000B9800F0B9FA00BF012000F0B5FA01986F
:1037FC0068600298286000BF00BF00BF00BF00BF18
:10380C0000BF00BF00BF00BF00BF029868600198F6
:10381C00286008F10108CC480178491C0170C9B234
:10382C00022905D3032903D3042924BF00210170E5
:10383C000498E96A0840119011980028CDD02068AE
:10384C006168084313902FE0002013A916AA04AB5B
:10385C0027464FF0020C4FF4005E3E68D7F80490F8
:10386C0059EA0606D3F8009010D05FEAC97A44BF33
:10387C00DFF8D8A22AF810E002D45FEAC67A01D5A4
:10388C00401CC0B276084FEA5909EED142F8049BAD
:10389C0041F8046B08371B1DBCF1010CDDD1002075
:1038AC0004900C9005900D900B9800F055FA0020A8
:1038BC008DF840000021074613AA04AB0A9316ABFF
:1038CC00099311AB08930CAB9D4E079606941668A2
:1038DC00002E7BD00A9E36680F96002E76D0089E5E
:1038EC00D6F800E0CDF838E0079ED6F800C0079E69
:1038FC00766846EA0C064FF000094FEA471C4FEA7F
:10390C005C0ACDF854A00AE05FEACA7C01D5401CE1
:10391C00C0B24FEA5E0E4FEA5A0CC2F800C0DDF896
:10392C0024C0CCF800E0D2F800A0BAF1000F32D0DD
:10393C00DDF824C0DCF800C0BCF1000F2BD05FEA2E
:10394C00CE7C04D4E0E7491C760809F10109002E6D
:10395C00DDD05FEAC67CF7D5C9B28842F3D1D3F883
:10396C0000C04FF0010B0BFA09FB2CEA0B0CC3F84F
:10397C0000C0DDF854C05FFA89F90CEB690BDFF875
:10398C00CCC12CF81B801EF0FE0CC0D14FF0010BEB
:10399C008DF840B0BBE70F9EDDF838E026EA0E0646
:1039AC00DDF828E0CEF80060089E4FF0000EC6F857
:1039BC0000E0C2F800E09DF84060012E18D104A888
:1039CC0050F82700002828D1F04626E0069E3668DD
:1039DC00DDF818E0DEF804E04EEA060E03E0009E87
:1039EC00009E4FEA560ECDF800E0009E002EF6D158
:1039FC007F1C069E08360696079E083607961B1DEA
:103A0C00089E361D0896099E361D09960A9E361D7F
:103A1C000A96121D022FFFF65AAF012000F09CF9F6
:103A2C00049800287FF4D9AE059F494E002F55D03D
:103A3C00189854F820006862189854F820002860F0
:103A4C00189854F820006865189854F82000686598
:103A5C0002970D9801900298306501983065029894
:103A6C0070600198706002983062019870620198E1
:103A7C0030605FEA88403FF5E7AE0B9800F06CF9D8
:103A8C0000BF012000F068F9019870600298306066
:103A9C0000BF00BF00BF00BF00BF00BF00BF00BF22
:103AAC0000BF00BF029870600198306008F10108F7
:103ABC0025480178491C0170C9B2022905D3032994
:103ACC0003D3042924BF00210170F06A38401290FE
:103ADC00CFD0A068E16808431490E5E603988068AD
:103AEC0070620398806830600398806870650398F2
:103AFC0080687065189854F820006862189854F81B
:103B0C0020002860189854F820006865189854F81C
:103B1C002000686503988068706203988068306044
:103B2C000398806870650398806870650B9800F046
:103B3C0013F919B0BDE8F08F241A0020ED1B0020FA
:103B4C00341A0020100C0E40130400201416002010
:103B5C00100E0E40F8B504460D460026754F387809
:103B6C0038B1304600F0FCF8761C3878F6B2864254
:103B7C00F7D371480021018104612846BDE8F24069
:103B8C0000F010BB44F204510180002141804FF43D
:103B9C0088618180704738B50024664D287838B12B
:103BAC00204600F0DDF8641C2878E4B28442F7D398
:103BBC0031BD10B55F4800210170604801705E4C4A
:103BCC00042060701420207105206071E1701420B5
:103BDC00A070012020700320A07100F0E8FA0020F2
:103BEC00E06010BD2DE9F04100250027DFF8508181
:103BFC00A8F88C50504E3189411A89B2308108F2A4
:103C0C008C025088091889B2C82908D3C8230846E1
:103C1C00B0FBF3F007464FF6387303FB00115180ED
:103C2C004848027822B1FFB2BA4234BF0022D21BFC
:103C3C00027045480068800800F07F70B0F1007F8A
:103C4C0002D0B0F1017F01D100F0C1FAF06801009F
:103C5C0018BF80470024374E307890B1F9B2204617
:103C6C0000F01DF90543611C3078CCB28442F5D3C9
:103C7C00EDB235B1B8F88C004FF480710843A8F858
:103C8C008C0040460421002280F88020401C491EF4
:103C9C00FAD100203178A1B12C4A137818252B4287
:103CAC000AD008EBD00393F88050012600F00707E8
:103CBC00BE40354383F88050401C0832C0B2884265
:103CCC00EBD3B8F88C00BDE8F08138B50346002082
:103CDC001E4901EBC3046179E278174D2D5642FA67
:103CEC0005F5EDB2042D38BF0425124A1278934223
:103CFC001ED22079C022104213D1084600F03EFAA1
:103D0C00C5EBA501814203DA217901F0FB01217198
:103D1C00694209B281420BDB217941F00401217126
:103D2C0032BD00F0FB0020712A46184600F09EFAC6
:103D3C0032BD0000001A0020441A0020EE1B0020A7
:103D4C0014160020011A002040070E401415002004
:103D5C00EFF310807047704780F3108870477047FE
:103D6C0010B5044600F00AF8DFF82404012100F82D
:103D7C00341000EBC4000F21417010BD30B4DFF8DB
:103D8C00103403EBC0046279A179022503F830509A
:103D9C00DFF80004038843F0020303800020A070C6
:103DAC0091420ADBDFF8F033D018001D802300F8B5
:103DBC00013B521CD2B29142F9DA30BC7047F0B4DC
:103DCC00DFF8CC1301EBC00081794279DFF8C43302
:103DDC001D88914220DBDFF8C47307EB420407EB2C
:103DEC004206378890F801C0BCF10A0F0AD2B4F829
:103DFC0040C0674538BFACF1010703D3BC4505D2C1
:103E0C0067467F1CA4F8407045F00805521CB61C90
:103E1C00A41CD2B29142E4DA1D80F0BC7047F0B51C
:103E2C00DFF870231388DFF8704304192779DFF863
:103E3C006CC30CEB4005B5F840603CF810E07645DF
:103E4C0012D2C8192071D64949798039C0B2C9B289
:103E5C00884222D380202071B5F84000401CA5F880
:103E6C00400043F0080318E0B6450DD2781A2071D3
:103E7C00CB490979C1F18001C9B2C0B281420CD3DE
:103E8C0080202071701EEAE7812F24BF781E2071DC
:103E9C00207980283CBF401C20711380F0BD2DE997
:103EAC00F04F83B081460F4600208DF808000024A7
:103EBC004846FFF70AFF0646CB46DFF8D48208EBEC
:103ECC00CB05E878297901F00301491CC840022888
:103EDC0038BF0220E978091A89B218F83B0001288A
:103EEC000DD0022822D0042855D0082800F00681D5
:103EFC00102800F0BA80202800F01D813AE101243E
:103F0C00A44E30884FF40071084330804846FFF7C8
:103F1C0056FF6878401E6870C0B210B94846FFF76B
:103F2C002DFF9D489E498978417023E128794007EF
:103F3C000CD56879984940180471202008F83B008A
:103F4C000124944E308840F4805012E1002E48BF7A
:103F5C000026B6B2E878864206DB042008F83B005F
:103F6C00AC7001248B4E01E1002F00F003818A48D4
:103F7C004078002840F0FE8095F806906E79B145A7
:103F8C00C0F2F88039463046FFF749FF761CF6B28E
:103F9C00B145F7DAEEE0300048BF002080B2E97896
:103FAC0088425EDBDFF8F8A17B489AF8021041707A
:103FBC00A878401CA8702879C0F3C200019070B397
:103FCC00002775480078012829DB5F451ED008EBD7
:103FDC00C70000900079C0F3C2000199C9B28842B1
:103FEC0014D13846FFF771FEE978711A009AD2782D
:103FFC00801A814204DAAC7001208DF8080005E0CB
:10400C0018F837001028F6D00828F4D0781CC7B25E
:10401C00614800788742D8DB9DF8080040B99AF8CF
:10402C00010028B101245B4E308840F400603080E0
:10403C00A8789AF801108842C0F09C80554E3088C0
:10404C0040F003003080102008F83B00002068701E
:10405C002879C021084200F08D80484600F036FADD
:10406C0088E04846FFF78AFE84E0287940070ED5A1
:10407C0068794949401880210171202008F83B00DB
:10408C000124444E308840F48050308049E73000A1
:10409C0048BF00203F4E328880B2884206DA0820A2
:1040AC0008F83B00012442F48060EEE742F0010086
:1040BC003080A878DFF8E8B09BF8011088423CBF4C
:1040CC00401CA8702879C02108421CBF484600F04B
:1040DC0023F99BF8030000283FF423AF6978814251
:1040EC003CBF78186870FFF41CAF4846FFF738FEE9
:1040FC00012430884FF400710843C6E72648284A4B
:10410C0092784270A8780028ABD0300048BF0020CD
:10411C00204E328880B28142BEBF102008F83B008E
:10412C0042F00100A4BF012442F480603080A878E2
:10413C00401EA8701EE06879174940180179491C87
:10414C0001712879400705D408068AD5102008F893
:10415C003B000FE00F4E12488079C9B2814204D364
:10416C004846FFF7FDFD0124ECE60124308840F4BD
:10417C0080603080204603B0BDE8F08F074901EB2A
:10418C004002B2F9402031F91000101A00B2704709
:10419C0014150020A0160020001A00201416002070
:1041AC00441A002080B5010018BF804701BD134898
:1041BC0000F110010222002340F8043B40F8043BBC
:1041CC0041F8043B41F8043B521EF5D1704710B541
:1041DC000A4C2068A168084305D00948016808000A
:1041EC001CBF002088476068E168084305D004487C
:1041FC00016808001CBF0120884710BD241A00204C
:10420C00541A00202DE9F041069C079DCF4E3778BB
:10421C00DFF83CC30CEBC70C8CF8033000238CF894
:10422C000430CC4B93F800E08CF807E09CF8048049
:10423C0062F3C5088CF804808CF805008CF8061025
:10424C00C54800EB8E00690181700EF101001870F9
:10425C009CF8040064F301008CF8040040F080002A
:10426C008CF80400781C3070BDE8F08138B5044639
:10427C000846154600F036F9B748B0F920100A4642
:10428C00B0F922309342B8BF1A46B0F924009042DC
:10429C00B8BF024659184018694209B200B28142AF
:1042AC0006DBAB4901EBC4010B7943F004030B7142
:1042BC00A2EB8201081800B232BD0023521C49B98E
:1042CC004FF6FF73D2B20AB14FF6FF7398B2704734
:1042DC00521E40005FEA004C02D4D2B2002AF7D141
:1042EC005FEA014C12D5D2B2002AEFD05FEA034C40
:1042FC00EAD45B00521E80B289B2884224BF401AB5
:10430C005B1C4908D2B2002AF0D1DFE7521C4900ED
:10431C005FEA014CFAD5E6E72DE9F84F00268C4907
:10432C0001EBC00999F807A0DFF82CB20BEB8A0758
:10433C00B878400900F1010899F8050000F0D2F8AE
:10434C00BBF92420BBF92210BBF920408C420BDBBB
:10435C00914204DB4FF48055084613460BE00025D0
:10436C0020460B46144606E0A242F3DB4FF4005500
:10437C00104623460C460C222118A1EB430189B2AE
:10438C00C01A80B2FFF799FF401985B242F6FF7050
:10439C00ADF800004FF4405099F8049009F0C001BA
:1043AC00802916D1A5F2672042F63231884228BF07
:1043BC00012608D240F23370854223BF40F232709E
:1043CC00281A85B2002542F29B10ADF80000002E91
:1043DC007AD14FF480745FFA88F2082A05D2C2F1C0
:1043EC000801C9B26408491EFCD121464E1E052A9B
:1043FC0038BF490002D3072A28BF49080022FFF71B
:10440C005CFF09F0C001402916D13BF82A10B1F528
:10441C00C05F08D3A1F5C05189B28D420CDA05F505
:10442C0040518DB208E001F5C05292B2AA42BCBF15
:10443C0001F540512BF82A10B978CA0705D501F0BF
:10444C00FE00B8700021002004E0890746BF014639
:10445C00002000213BF82A2051188D42A4BFB878C7
:10446C0000F0FD0005DA4019824205DBB87840F017
:10447C000200B8702BF82A503BF82A00B0F5405FC8
:10448C0024BFA0F540502BF82A0000222146BDF88D
:10449C000000FFF712FF002201463BF82A00FFF74D
:1044AC000CFF0146F0B2884238BF01462B485044FD
:1044BC0090F88420CBB29A4206D080F88410284819
:1044CC00018841F004010180BDE8F18F204901EB26
:1044DC00C000C079204901EB8000817841F00101D6
:1044EC0081707047F8B504461C4E06EB440505F286
:1044FC0040070C22B5F840107888FFF7DEFE06EB7B
:10450C0044060C2201467088FFF7D7FEADF8000078
:10451C000C22B5F84010B888FFF7CFFE01460C22EC
:10452C00B088FFF7CAFE0646ADF802600A4F204677
:10453C00FFF724FE3884B5F84000BDF90010411A8D
:10454C007984801BB884F1BD00000000001A0020A3
:10455C0014150020EE1B002000190020141600205A
:10456C00A016002000B589B000A8DFF8DC131F22CC
:10457C00FCF730FD0020DFF8D41308600820FEF7AC
:10458C00EBF90920FEF7E8F90A20FEF7E5F90B2014
:10459C00FEF7E2F90420FEF7DFF90520FEF7DCF95F
:1045AC000620FEF7D9F90720FEF7D6F90020FEF712
:1045BC00D3F90120FEF7D0F90220FEF7CDF9032044
:1045CC00FEF7CAF900F0E2F9DFF88403FEF791FC7C
:1045DC003220DFF8801388803220DFF87813C8800F
:1045EC000720DFF8701308802820DFF86813488054
:1045FC00DFF86013DFF86003FEF7C2FB0020DFF882
:10460C005C1308701020DFF8541348700020DFF89A
:10461C004C1388703420D149C8701220CF490871CE
:10462C006020CE4948710120CC4988710020CB49CB
:10463C00C8712020C94908723220C8494872032029
:10464C00C6498872012000F0CBFA4FF4FA710120B0
:10465C0000F05EFD012000F074FD00A8FCF706FDE3
:10466C00BF48006850F02000BD490860BD48FCF709
:10467C00FDFC0FF28900BC49086009B000BD80B593
:10468C00B9480068804701BD70B5002400F083F97B
:10469C00050000F083F90600EDB20E2D02DA0020C1
:1046AC0005000AE0EDB2F62D05DAEDB2281F032164
:1046BC0090FBF1F501E04E200500F6B2701D1221C1
:1046CC0090FBF1F6A34840882900C9B289B2884210
:1046DC0004D0EDB29F484580012004009D4800881D
:1046EC003100C9B289B2884204D0F6B2994806802A
:1046FC00012004002000C0B270BD000010B588B0CD
:10470C0064219A48FCF734FC00280DD098480068C6
:10471C0096490860FFF7B8FF002805D0FEF73FFC6C
:10472C008C498D48FEF72CFB002000F0D9FD0028A9
:10473C0060D0002000F0DDFD8E48007800282ED0DF
:10474C0000208C490870A420FEF743FC0820FEF7DB
:10475C0003F90920FEF700F90A20FEF7FDF80B20FB
:10476C00FEF7FAF80420FEF7F7F80520FEF7F4F848
:10477C000620FEF7F1F80720FEF7EEF80020FEF712
:10478C00EBF80120FEF7E8F80220FEF7E5F803202D
:10479C00FEF7E2F80FF29D10734908602AE0012041
:1047AC00744908700820FEF703F90920FEF700F998
:1047BC000A20FEF7FDF80B20FEF7FAF80420FEF7AE
:1047CC00F7F80520FEF7F4F80620FEF7F1F80720BD
:1047DC00FEF7EEF80020FEF7EBF80120FEF7E8F804
:1047EC000220FEF7E5F80320FEF7E2F80FF2311095
:1047FC005D490860012000F073FD00280FD000F027
:10480C00E8FA022802D100F0D2FA05E000F0E1FA51
:10481C00032801D100F0B9FA012000F06AFD00F084
:10482C00D8FA022809D149480078000705D447482E
:10483C00006850F008004549086000F0CAFA0328E7
:10484C0008D1012000F07DFC4048006830F00800E1
:10485C003E49086000F0E6FA00285ED04648007831
:10486C0001283CD10024E4B2082C28DA4348E4B2F5
:10487C00205C102190FBF1F0C0B2FCF795FB00A975
:10488C00E4B2032202FB041108703C48E4B2215C40
:10489C00102291FBF2F000FB1210C0B2FCF784FB6B
:1048AC0000A9E4B2032202FB041148702D2000A9D8
:1048BC00E4B2032202FB04118870641CD3E70A20C3
:1048CC008DF817000D208DF8180000208DF81900B8
:1048DC002B48FCF7CBFB00A8FCF7C8FB1DE02648D7
:1048EC000078022819D12748C079401C2549C87185
:1048FC002448C07900280DD122488079401C2149D8
:10490C00887120488079002804D11E484079401CC9
:10491C001C4948711B4800F06AFA08B010BD000031
:10492C0080B5A520FEF755FB002802D016480E498D
:10493C00086001BD80B5A420FEF74BFB002802D017
:10494C0011480949086001BDF4620800741B00207D
:10495C00E4030020981A0020D4590800581A0020AB
:10496C004C1B0020EC030020701B0020781B002047
:10497C00601B0020EB1B0020E21B0020701A0020A3
:10498C00C0030020A01A0020094708000FF28D1068
:10499C008049086070478048007870477F480078ED
:1049AC007047E0B500F043F8012801D0002038E052
:1049BC00FFF7FFF8002002900720019000200090E4
:1049CC003223002202210020FFF71CFC0020029061
:1049DC000720019000200090322300221521132083
:1049EC00FFF710FC6E496F48FFF7B4F8FFF7D3F8E8
:1049FC0000F065F800206C49086000206B490860E5
:104A0C000020654908700020644908700FF20910F5
:104A1C00604908606648006850F0400064490860CE
:104A2C0001200EBD80B55B480068804701BD1CB5F8
:104A3C0000240020FFF7D6F800A8FFF7A3F8BDF874
:104A4C000000C00703D45B48FCF710FB03E05A4896
:104A5C00FCF70CFB641CBDF80000C0F3C60080B270
:104A6C00202800D0641CBDF80000C0F3802080B268
:104A7C00002804D15148FCF7F9FA641C02E05048B4
:104A8C00FCF7F4FABDF8000080B2C00A80B2082826
:104A9C0000D0641C4B48FCF7E9FABDF80400FCF7A5
:104AAC0005FBFCF7F5FABDF80400B0F5886F00D0F3
:104ABC00641C002C01D1012000E0002016BD042054
:104ACC004149487014204049087105203E494871FD
:104ADC0000203D49C87014203B49887001203A4998
:104AEC000870032038498871704770B504000025A0
:104AFC000026200080B2FFF775F8050015F48070D1
:104B0C000600B6B2002EF4D1012070BD2F49C0B200
:104B1C00401890F8840070477047000080B5192148
:104B2C002248FCF725FA002812D0294800681F49B2
:104B3C0008602748006880B2FFF7D7FF0020FFF716
:104B4C00E5FF154908700120FFF7E0FF13490870D5
:104B5C0020480068C00319D5FA211F48FCF708FA51
:104B6C00002813D01A4800681B4908601B48FCF742
:104B7C007DFA09480078FCF799FA05A0FCF776FA5B
:104B8C0006480078FCF792FAFCF782FA01BD0000A7
:104B9C003A000000001B0020E31B0020E41B002057
:104BAC00355B080091360800501A0020041B0020C9
:104BBC004C1B00205C64080048640800F463080087
:104BCC00486108006C640800441A00201416002088
:104BDC00601B00200C1B0020081B00208003002001
:104BEC0030B58BB0040002A8A1490CC90CC008391F
:104BFC000838A04800788DF80A009E4840788DF857
:104C0C000B009C4880788DF80C0000A89A490CC9C0
:104C1C000CC008390838974800788DF80200954880
:104C2C00C0788DF80300934800798DF80400914802
:104C3C0040798DF805008F4880798DF8060004A81E
:104C4C008E490CC90CC0083908388A4800788DF890
:104C5C0012008848C0798DF813008648007A8DF8C8
:104C6C00140008A886490CC90CC0083908388148BA
:104C7C0000788DF822007F48407A8DF8230006A832
:104C8C0080490CC90CC0083908387A4800788DF86E
:104C9C001A007848807A8DF81B0000257A48006845
:104CAC0030F0020078490860E4B2002C05D10020F5
:104CBC008DF80B0000206F49487002A8FBF70CFE22
:104CCC008DF80D0002A8FBF76EFC41F288314220F2
:104CDC00FBF73DFD4019050000A8FBF7FDFD8DF825
:104CEC00070000A8FBF75FFC41F288315120FBF76D
:104CFC002EFD4019050004A8FBF7EEFD8DF81500FC
:104D0C0004A8FBF750FC41F288314320FBF71FFD50
:104D1C004019050008A8FBF7DFFD8DF8240008A852
:104D2C00FBF741FC41F288314520FBF710FD40199F
:104D3C00050006A8FBF7D0FD8DF81C0006A8FBF7B4
:104D4C0032FC41F288314720FBF701FD4019050088
:104D5C004E48FCF78BF9EDB2002D0AD04C48006898
:104D6C0030F010004A4908604A48FCF77FF90020EF
:104D7C0009E04948FCF77AF94348006850F4802070
:104D8C004149086001200BB030BD80B500A84349F3
:104D9C000A680260374800788DF8020000A8FBF71B
:104DAC009BFD8DF8030000A8FBF7A8FD02BD80B5A4
:104DBC0000A83B490A6802602E4800788DF8020072
:104DCC0000A8FBF789FD8DF8030000A8FBF796FD02
:104DDC0002BD2D480068400301D4002006E02A489B
:104DEC000068000301D5022000E00320704710B5D5
:104DFC000400204800782B4988700020C0B2082895
:104E0C0007DAC0B2015D274AC0B282189170401C0B
:104E1C00F4E72448FBF760FD2249C8722148FBF7F0
:104E2C006DFD10BD10B52048006800281CD01E4830
:104E3C00006800681D4908601B48006800791C491F
:104E4C00087019480068401D04000020C0B20828F2
:104E5C0006DAC0B2015D174AC0B28154401CF5E7B6
:104E6C00FBF7A6FD012000E0002010BD00000000B3
:104E7C00A4640800581A0020AC640800B46408004C
:104E8C00BC640800C4640800B01A00201C03002095
:104E9C00481B0020D4030020CC030020DC64080055
:104EAC00E064080090030020B41A0020F81A0020D7
:104EBC00E21B0020701A0020A448A54908600420B9
:104ECC00A44908604FF48070A3490860A348A44922
:104EDC000860A4480068C007FBD5A1480068A24937
:104EEC0008439F490860A148A14908609D48006893
:104EFC008007FBD54FF400709E49086042F2110008
:104F0C009D490860974800680007FBD542F21200E3
:104F1C0099490860934800680007FBD597480068DA
:104F2C0050F44410954908608E4800684006FBD543
:104F3C00704700209249086000209249086041F2B5
:104F4C006F709149086000209049086003209049D7
:104F5C000860704780B58A4800688E490968401A15
:104F6C00012817D08C480068401C8B4908608B487E
:104F7C00006850F020008949086089480078C00713
:104F8C0008D58848FCF772F883480068FCF78EF85F
:104F9C00FCF77EF87A4800687E4908608248006811
:104FAC0030F48010804908608048006830F00400BC
:104FBC007E4908607948006850F080407749086065
:104FCC0076480068400001D530BFF9E701BD78484C
:104FDC0078490860784879490860704780B5784806
:104FEC0078490860784879490860794879490860B7
:104FFC0079487A490860002079490860002079498D
:10500C00086079487949086079487A4908604FF412
:10501C00C060794908607FF4C060784908605FF02F
:10502C00FF30774908600020764908605FF0D8505F
:10503C0075490860002075490860002074490860B3
:10504C000020744908607448744908600020744951
:10505C00086074487449086074487549086075485C
:10506C0075490860754876490860002075490860E4
:10507C00002075490860754875490860754876497F
:10508C0008600020754908607548764908607448C6
:10509C00754908605FF400107449086063487449EE
:1050AC0008600020734908600020734908600020E4
:1050BC0072490860724873490860002072490860A0
:1050CC0000F00BF871480068C00705D4334800683D
:1050DC0050F080703149086001BD5FF001106C49DF
:1050EC00086000206B49086003206B49086041F29E
:1050FC0070706A49086041F270706949086042F644
:10510C00E0606849086042F6E060674908607047F3
:10511C0010B4664B89B2B3FBF1F31A0001280ED11F
:10512C00634B1B68DB0705D55D4B1A6053085E4C5F
:10513C00236004E0594B1A6053085A4C236010BC8E
:10514C0070475C49086070470000000073EDFC2755
:10515C0010040E4040040E4000040E4009F03700CD
:10516C0020040E4068040E4000003701013F072068
:10517C0028040E4000080E4030040E401C040E4063
:10518C00601B0020641B002014E000E018E000E02D
:10519C0010E000E06C1B0020681B0020481B002066
:1051AC000C1B00203C02002070040E4010ED00E0AF
:1051BC000085011054120E40010000A550120E4043
:1051CC00FF0123E4000C0E4000FEDC1B040C0E401F
:1051DC00D5D755BF100C0E402A28AA40140C0E40EF
:1051EC00200C0E40240C0E4000000188300C0E40A8
:1051FC00D5010034340C0E40500C0E40540C0E40B3
:10520C00600C0E40640C0E40700C0E40800C0E4076
:10521C00840C0E408C0C0E40FF0101B4A00C0E400F
:10522C00A40C0E40E7FFBF01000E0E40180040001A
:10523C00040E0E4066F59F01100E0E40990A4000B8
:10524C00140E0E40200E0E40240E0E4000D0A10174
:10525C00300E0E4066251E00340E0E40500E0E40D1
:10526C00FFFFDF01540E0E40600E0E40640E0E4028
:10527C00700E0E40800E0E40840E0E408C0E0E40B2
:10528C00E6FF1F00A00E0E40A40E0E403C0E0E407A
:10529C0000C0084020C0084000C208400CC20840B2
:1052AC0010C2084004C2084008C20840808D5B0050
:1052BC000CC0084008C00840012110F01F029140AA
:1052CC008D4A40B2430942F823107047012110F077
:1052DC001F029140894A40B2430942F8231070479B
:1052EC0001008848085C012801D1012000E0002061
:1052FC0070470021834A8154704738B5002400253B
:10530C000020C0B202280DDA0021804AC0B28154BC
:10531C0000217B4AC0B2815400217D4AC0B2815425
:10532C00401CEEE70020C0B202281ADA7949C0B25C
:10533C0011EB40014978002905D17749C0B251F8E9
:10534C0020100C430BE07349C0B211EB40014978BB
:10535C00802904D17049C0B251F820100D43401C73
:10536C00E1E76E4804606E4805606E480068040012
:10537C006D48006805000A20FFF7A8FF0B20FFF717
:10538C00A5FF0A20FFF798FF0B20FFF795FF0FF200
:10539C004D00664908606648006850F00200644998
:1053AC0008606448FBF762FE31BD80B55F48006859
:1053BC00804701BD0200D2B2022A0CDA5548D2B2A3
:1053CC0010EB42004078C9B2884204D15248D2B2A4
:1053DC0050F8220000E00020704700000020C0B20E
:1053EC0002280ADA4949C0B2415C002903D00FF205
:1053FC000D014E4A1160401CF1E7704770B54E48E4
:10540C004A4908600026F6B2022E74DA4B4841492C
:10541C00F6B211EB4601497810EB810004003F48CD
:10542C003C49F6B211EB4601497810EB81000500BE
:10543C003648F6B2305C00285BD041483B490860E6
:10544C0019214048F6B210EB8600FBF791FD0028BD
:10545C004FD03048F6B210F81600002811D1206851
:10546C00C0432D49F6B251F82610084204D0012051
:10547C002749F6B2705414E000202549F6B2705456
:10548C000FE020682449F6B251F82610084204D0E7
:10549C0001201F49F6B2705403E000201C49F6B2FB
:1054AC0070541B48F6B2305C1549F6B2715C8842F8
:1054BC0014D01748F6B2305C1149F6B2705410484B
:1054CC00F6B2305C012809D101200E49F6B27054B5
:1054DC001D4800680C49F6B241F8260000200B4923
:1054EC00F6B2705428680C49F6B251F826100843ED
:1054FC002860761C87E770BD00E100E080E200E0E8
:10550C00D61B0020DA1B0020801A0020D41B0020A0
:10551C00D81B002004040020CC640800400C0E4072
:10552C00400E0E404C0C0E404C0E0E40FC1A00204F
:10553C004C1B002058030020E95308003C0C0E4083
:10554C0009540800781A0020601B0020000000009D
:10555C00000000040404040000040A0A0A0000000D
:10556C00000A0A1F0A1F0A0A041E050E140F040360
:10557C001308040219180609050205091606040287
:10558C0000000000080402020204080204080808D3
:10559C0004020004150E1504000004041F0404008A
:1055AC00000000000604020000001F0000000000C4
:1055BC000000000606001008040201000E11191567
:1055CC0013110E0406040404040E0E111008040238
:1055DC001F1F08040810110E080C0A091F08081FC9
:1055EC00010F1010110E0C02010F11110E1F1008DB
:1055FC00040202020E11110E11110E0E11111E10C9
:10560C000806000606000606000006060006040250
:10561C000804020102040800001F001F000002041D
:10562C0008100804020E1110080400040E111016C4
:10563C0015150E0E11111F1111110F11110F111142
:10564C000F0E11010101110E070911111109071F8C
:10565C0001010F01011F1F01010F0101010E1101B9
:10566C001D11110E1111111F1111110E040404043E
:10567C00040E1C0808080809061109050305091180
:10568C000101010101011F111B151511111111113E
:10569C0013151911110E11111111110E0F11110FEA
:1056AC000101010E1111111509160F11110F050928
:1056BC00111E01010E10100F1F0404040404041128
:1056CC0011111111110E11111111110A04111111D5
:1056DC001115150E11110A040A11111111110A04D8
:1056EC0004041F10080402011F0E02020202020E23
:1056FC00000102040810000E08080808080E040A2D
:10570C0011000000000000000000001F020408004F
:10571C0000000000000E101E111E01010F111111CE
:10572C000F00000E0101110E1010161911111E00A0
:10573C00000E111F010E0C120207020202001E11B4
:10574C00111E100E01010D13111111040006040499
:10575C00040E08000C0808090601010905030509D7
:10576C000604040404040E00000B151511110000AE
:10577C000D1311111100000E1111110E00000F115B
:10578C000F0101000016191E101000000D1301016D
:10579C000100000E010E100F0202070202120C0093
:1057AC0000111111191600001111110A0400001139
:1057BC001111150A0000110A040A11000011111E22
:1057CC00100E00001F0804021F0804040204040841
:1057DC00040404040404040204040804040212155E
:1057EC0009000000001F1F1F1F1F1F1F012110F0A9
:1057FC001F029140664A40B2430942F82310704799
:10580C00012110F01F029140624A40B2430942F854
:10581C002310704710B588B000A85F492022FBF711
:10582C00E9FB0020C0B2082809DA00A9C0B251F87F
:10583C0020105A4AC0B242F82010401CF2E7002453
:10584C00E4B21D2C09DA200040B2FFF7CFFF200094
:10585C0040B2FFF7D5FF641CF2E708B010BD80B56D
:10586C000820FDF7A5F80920FDF7A2F80A20FDF79E
:10587C009FF80B20FDF79CF80420FDF799F8052004
:10588C00FDF796F80620FDF793F80720FDF790F842
:10589C000120FDF78DF80220FDF78AF80320FDF7B3
:1058AC0087F80020FDF758F8FEE73D480068401CDB
:1058BC003B4908603B48006830F08040394908603B
:1058CC0039480088401E384908803748008800282D
:1058DC0008D14FF47A703449088034480068401C71
:1058EC00324908607047F8B531480068040014F478
:1058FC0000300500002D1CD00027FFB2022F18DA53
:10590C0000213800C0B2FFF755FD060035420ED01D
:10591C002848006830432749086001202649FFB217
:10592C0078541F4800682549FFB241F827007F1CB6
:10593C00E3E70A20FFF764FFF1BDF8B520480068E3
:10594C00040014F001000500002D1CD00027FFB24C
:10595C00022F18DA80213800C0B2FFF72BFD0600A9
:10596C0035420ED0174800683043164908600120B4
:10597C001149FFB278540A4800681049FFB241F847
:10598C0027007F1CE3E74FF4006002490860F1BD7B
:10599C0080E100E080E200E0D462080000E400E076
:1059AC00601B0020481B002010040020641B0020FA
:1059BC004C0C0E40440C0E40D41B0020781A0020D6
:1059CC004C0E0E40440E0E40FFFFFFFFFFFF03FF87
:1059DC00FFFFFFFFFF03FFFFFFFFFFFF03FFFFFFC3
:1059EC00FFFFFF03FFFFFFFFFFFF03FFFFFFFFFFB3
:1059FC00FF03FFFFFFFFFFFF03FFFFFFFFF0FF03AE
:105A0C00FFFFFF7FE0FF03FF0F0000C6FF03FF0F48
:105A1C000000CFFF03FF0F0000CFFF03FF0F0000BC
:105A2C00C6FF03FF0FFF7FE0FF03FF0FFFFFF0FF39
:105A3C0003FF0FFFFFFFFF03FF0FFFFFFFFF03FF3E
:105A4C000FFFFFFFFF03FF0FFFFFFFFF03FF0FFF22
:105A5C00FFFFFF03FF0FFFFFF0FF03FF0FFF7FE0D0
:105A6C00FF03FF0F0000C6FF03FF0F0000CFFF0373
:105A7C00FF0F0000CFFF03FF0F0000C6FF03FF0F57
:105A8C00FF7FE0FF03FF0FFFFFF0FF03FF0FFFFFA0
:105A9C00FFFF03FF0FFFFFFFFF03FF0FFFFFFFFFE2
:105AAC0003FF0FFFFFFFFF03FF0FFFFFFFFF03FFCE
:105ABC000FFFFFFFFF03FF0FFFFFF0FF03FF0FFFC1
:105ACC007FE0FF03FF0F0000C6FF03FF0F0000CFB6
