:020000040008F2
:100000000020082009610800210F0800BB530800E8
:10001000230F0800250F0800270F0800000000002C
:10002000000000000000000000000000290F080090
:100030002B0F0800000000002D0F080007540800D7
:100040002F0F0800310F0800330F0800350F08008C
:10005000370F0800390F08003B0F08003D0F08005C
:10006000792608003F0F0800435408009754080001
:10007000410F080097260800D7190800011A080048
:10008000430F0800450F080069370800470F0800B4
:10009000490F08004B0F08004D0F08004F0F0800D4
:1000A000510F0800530F0800550F0800570F0800A4
:0C00B000590F08005B0F08001F0F08002C
:1000BC0010B584B001A8DFF858180CC90CC0083969
:1000CC000838DFF8200C00788DF806000024DFF8E3
:1000DC00EC0ADFF8EC1A0860DFF8E00ADFF8081C1D
:1000EC000860DFF8D80ADFF8041C08600020DFF88D
:1000FC00001C0870DFF8FC0B006800905FF4001027
:10010C00DFF8101808605FF40000DFF8EC1B0860E3
:10011C005FF08070DFF8E01B0860642100A800F03D
:10012C0017FF0028F9D05FF40010DFF8CC1B086033
:10013C00DFF8C00B006800904FF47A7100A800F053
:10014C0007FF0028F8D0DFF8AC0B00680090DFF850
:10015C00500C0068C00709D4E4B2002C06D14FF44F
:10016C007A7100A800F0F4FE0400F0E7E4B2002C71
:10017C0010D100F025F800F0CFFB01A800F0B5FB82
:10018C008DF8080001A800F049FA4FF47A713E206E
:10019C0000F00AFB1FBD0020C82801D2401CFBE761
:1001AC005FF08070DFF86C1708600020142801D213
:1001BC00401CFBE75FF08070DFF83C1B0860704769
:1001CC00F0B58BB006A8DFF8401A112200F0DEFE65
:1001DC0000A8DFF8381A182200F0E8FE0027DFF834
:1001EC00C00B0068C00740F10B81DFF8240A0068DF
:1001FC0006000020DFF81C1A0860DFF81C0A0068F3
:10020C00C00009D5DFF8100A006830F08050DFF824
:10021C00081A0860761E15E0FFF7BDFFDFF8800BAB
:10022C00006840070ED4DFF8EC09006842F2107148
:10023C00884207D2DFF8DC090068401CDFF8D419CB
:10024C000860EBE7DFF8CC09006842F211718842D4
:10025C0005D300F0D7F806A800F0EAFED0E0DFF8EE
:10026C00400B006830F00400DFF8341B0860DFF846
:10027C00780A00680078A42840F08680DFF8980996
:10028C00006850F08060DFF890190860FFF783FF7A
:10029C00DFF80C0B0068C0070ED5DFF87809006892
:1002AC0042F21071884207D2DFF868090068401CDE
:1002BC00DFF860190860EBE7DFF85C09006830F0E4
:1002CC008060DFF854190860DFF8D40A006830F059
:1002DC000400DFF8CC1A0860DFF83809006842F235
:1002EC001071884246D2DFF828090068861BDFF8B7
:1002FC00F80900680078040000F09AF8DFF8E809C3
:10030C0000680078801C0500EDB2A81C864207D05E
:10031C00DFF80409006850F00100DFF8FC180860F1
:10032C00DFF8C40900680078444000F081F86D1EC5
:10033C00EDB2002DF4D1DFF8B00900680078E4B21A
:10034C0084420ED1DFF8A8090078401CDFF8A01910
:10035C000870DFF8A8090068401CDFF8A0190860D5
:10036C001BE0DFF884090068DFF88019086000F0F2
:10037C0073F812E0DFF888090068401CDFF8801978
:10038C0008600120070008E0DFF878090068401CCD
:10039C00DFF87019086001200700FFB2002F2DD084
:1003AC0000A800F045FEDFF8F8090068C00710D57A
:1003BC00DFF86008006842F21071884209D2DFF859
:1003CC0054080068401CDFF84C180860FFF7E3FE87
:1003DC00E9E7DFF8EC070068DFF80C190860DFF8D4
:1003EC00E0070068DFF804190860DFF8B40900685A
:1003FC0030F00600DFF8A819086001E000F018F8EA
:10040C000BB0F0BD72B6DFF8B407DFF8B4170860B4
:10041C00DFF8A807DFF8D0180860DFF8A007DFF8CE
:10042C00CC1808600020DFF8C818087062B6704756
:10043C00DFF8B4080068401CDFF8AC180860DFF87F
:10044C00A8080068DFF87419884204D1DFF86C073B
:10045C00DFF8941808607047DFF890080068401CBB
:10046C00DFF888180860DFF884080068DFF84C199A
:10047C00884204D1DFF84407DFF870180860704731
:10048C0038B5DFF8BC090068C00109D5DFF8B4093C
:10049C0000F0CEFDDFF8B009DFF8B0190860B6E067
:1004AC005FF40010DFF8A8190860DFF8A80900F065
:1004BC00BFFD0020DFF8A01908600020DFF89C19B0
:1004CC0008600020DFF81C1808701020DFF81418E2
:1004DC0048700020DFF80C188870FF20DFF8041833
:1004EC00C870FF20DFF8FC1708710120DFF8F41743
:1004FC0048711020DFF8EC178871CD20DFF8E41775
:10050C00C8710C20DFF8DC1708723720DFF8D4171D
:10051C0048720320DFF8CC1788720420DFF84019EA
:10052C000870DFF84009DFF8381948605FF4800084
:10053C00DFF82C1988600120DFF8241908730220D9
:10054C00DFF81C1948730FF24530DFF814190861F5
:10055C000FF25130DFF808194861DFF86006DFF858
:10056C0000198861DFF85806DFF8F418C8614FF4F9
:10057C008070DFF8EC180884DFF8E40801F0C0F8AC
:10058C00DFF8E41808600020DFF814180860FFF7A3
:10059C008FFDDFF8D8080078C00617D5DFF8D00833
:1005AC0000F046FDDFF8CC0800F042FD00F052FDF3
:1005BC00DFF8C408006830F48030DFF8BC1808603D
:1005CC000FF24570DFF88418086020E0DFF8AC0803
:1005DC0000F02EFD5FF0307004005FF0F07005004D
:1005EC00DFF89C080460DFF89C080460DFF89808CA
:1005FC000560DFF870080560DFF890080460DFF82C
:10060C00900805600FF60910DFF84018086031BD3E
:10061C0080B5DFF838080068804701BDF0B599B0A7
:10062C000400DFF87008076810A8DFF86C182122A6
:10063C0000F0ACFC0AA8DFF86418152200F0A6FC48
:10064C0005A8DFF85C18122200F0A0FC00A8DFF867
:10065C005418112200F09AFCDFF8BC05006810F069
:10066C00406F04D010A800F0E3FC00209AE00020BA
:10067C00DFF8A01508605FF40000DFF8981208603E
:10068C00DFF81C070068C0070ED4DFF88805006887
:10069C0042F21071884207D2DFF878050068401CDE
:1006AC00DFF870150860EBE7DFF86805006842F2C8
:1006BC001171884209D35FF40000DFF83C16086022
:1006CC000AA800F0B5FC00206CE0FFF764FDDFF831
:1006DC00D006006840070ED4DFF83805006842F2F7
:1006EC001071884207D2DFF82C050068401CDFF837
:1006FC0024150860EBE75FF40000DFF8FC150860D8
:10070C00DFF81005006842F21171884204D30AA880
:10071C0000F08EFC002045E0DFF8CC050068007886
:10072C000500EDB2A42D09D1DFF8EC04006850F0FF
:10073C008050DFF8E4140860002033E0FFF778FE07
:10074C00FFF78AFEDFF85806006830F00400DFF887
:10075C0050160860EDB2A52D20D1DFF8BC0400685E
:10076C0050F00060DFF8B01408602078C01C060060
:10077C0022003100DFF8F006006801F065F8DFF8C0
:10078C0028170860DFF820070068002801D0012036
:10079C0008E005A800F04CFC002003E000A800F0E5
:1007AC0047FC002019B0F0BDF0B589B004000D0075
:1007BC0000260127DFF8DC060068009001A8DFF8AE
:1007CC00EC161A2200F0E2FBDFF828050068009016
:1007DC00DFF8CC050068C00709D5F6B2002E06D1AB
:1007EC004FF47A7100A800F0B3FB0600F0E7F6B204
:1007FC00002E20D1DFF88006006830F00060DFF8B2
:10080C007816086000F05DFA0020DFF89C1608608E
:10081C00DFF8E00400680090DFF884050068C0078A
:10082C0009D4F6B2002E06D14FF47A7100A800F06C
:10083C008FFB0600F0E7F6B2002E1BD1FFF7C0FCD1
:10084C00DFF8AC040078002814D0DFF8A0040068AE
:10085C00807840280ED1DFF8940400680079E4B267
:10086C00A04207D1DFF8840400684079002801D148
:10087C000020070000F050F8F6B2002E02D001A8BC
:10088C0000F0D6FB3800C0B209B0F0BD80B5DFF87F
:10089C0020060068401CDFF818160860FFF77BFC88
:1008AC0001BD000080B5DFF868030068401CDFF86C
:1008BC0060130860DFF808050068401CDFF80015BD
:1008CC000860DFF8FC040068DFF8F014884204D1FB
:1008DC00DFF8F004DFF8E8140860DFF89C05006826
:1008EC00400101D5FFF757FC01BD10B40100087899
:1008FC00821CA5200023DBB2D2B2934204D20C7826
:10090C006040491C5B1CF6E7C0B210BC704700008D
:10091C0014610800340E0E4030B585B0DFF8D003FA
:10092C000078002801D1012046E1DFF88C05006831
:10093C00401CDFF884150860DFF8B4030078401E13
:10094C00DFF8AC130870FFF787FDDFF8A003006831
:10095C0000780400E4B2122C01DB01202CE100250C
:10096C00EDB2E4B2E01C85420ADADFF880030068DD
:10097C00007800A9EDB26854FFF76EFD6D1CEFE72F
:10098C009DF801003E2800F0F58040280CD04E2840
:10099C0000F0E2804F2800F0D280522800F0E9806D
:1009AC006F2800F0FB8000E19DF80300012859D06E
:1009BC009DF8030041282DD0422826D04B2802D088
:1009CC004C2815D034E0DFF8F40400F031FBDFF8EC
:1009DC00A804006850F40020DFF89C140860DFF8CD
:1009EC009804006830F48020DFF88C14086023E051
:1009FC00DFF8CC0400F01CFBDFF87C04006830F45A
:100A0C00C010DFF87414086016E0DFF8B80400F0CA
:100A1C000FFB11E0DFF8B00400F00AFBDFF858041C
:100A2C000068DFF8A8140840DFF84C14086003E0F5
:100A3C00DFF89C0400F0FCFA9DF80400002804D1B7
:100A4C00DFF82C0400F0F4FA78E0DFF8880400F00A
:100A5C00EFFADFF82404006850F00200DFF81814F5
:100A6C0008606BE09DF8040000280ED001284CD0E3
:100A7C0002280BD0032830D0052836D0062840D0C9
:100A8C00072846D0082824D050E057E0DFF8480467
:100A9C000078401CDFF840140870DFF83C04007844
:100AAC00002812D1DFF834040078401CDFF82C1435
:100ABC000870DFF828040078002806D1DFF820043D
:100ACC000078401CDFF818140870022000F07AF847
:100ADC0034E0082000F076F830E0824840781028A6
:100AEC0002D1032000F06EF828E0DFF88C030068D8
:100AFC0050F08070DFF880130860052000F062F879
:100B0C001CE0062000F05EF818E0012000F05AF816
:100B1C0014E0DFF8D00300F08BFADFF85C03006818
:100B2C0030F4C010DFF85013086007E0DFF848031A
:100B3C00006850F00400DFF8401308603BE00DF152
:100B4C000301012000F06AF866484078002802D1C1
:100B5C00002000F037F82EE00DF10301012000F029
:100B6C005DF860484078002802D1002000F02AF897
:100B7C0021E020E00020C0B20A2808DA00A9C0B2A7
:100B8C0041188978BB4AC0B28154401CF3E7B7487E
:100B9C00006850F01000B54908600CE0B6480068D9
:100BAC0050F48030B449086005E0B348006850F058
:100BBC000800B1490860002005B030BDD0130020FA
:100BCC00901B00201CB50400FF208DF800008DF850
:100BDC000140FF208DF80200FF208DF80300FF205C
:100BEC008DF80400BE4800788DF80500BB480078ED
:100BFC008DF80600B84800788DF8070000A902208F
:100C0C0000F00CF813BD00007060080028600800AC
:100C1C007C1B0020701B0020641B00202DE9F04180
:100C2C008CB004000D005FF0000800A8AE492B2228
:100C3C0000F0ACF9142001F0B5F90600002E04D137
:100C4C0000A800F0F5F9002038E00020C0B2082818
:100C5C0006DAC0B2415DC0B282195171401CF5E791
:100C6C002448006830603471002030617A48006894
:100C7C00002807D1784806608E480068401C8D49D2
:100C8C0008601AE07448006807003869002803D02F
:100C9C003F6918F10108F8E75FFA88F8B8F1200FFE
:100CAC0006D23E6183480068401C8249086004E01B
:100CBC0000A800F0BDF9002000E001200CB0BDE858
:100CCC00F08110B56548006800280AD063480068B8
:100CDC00040062480068806960490860200001F0E7
:100CEC00B9F910BD241B0020941B0020981B002078
:100CFC00A01C0020101C0020300E0E40A81B002051
:100D0C00801B0020841B002070B5012400255A484C
:100D1C000068000420D0754800F08AF96D1C00268C
:100D2C00F6B2042E12DA5448006820420BD07048F8
:100D3C00EDB2142101FB050000F07AF94E48006871
:100D4C00A0434D4908606400761CE9E74A480068F6
:100D5C00000C000448490860FFF7DEFD10480068ED
:100D6C00C00704D50FF23D003849086016E04E4824
:100D7C000068002812D13948006800280ED0374886
:100D8C000068001DFFF74AFC002807D0594800688E
:100D9C00594908600FF231002C49086070BD000001
:100DAC003C1C002080B555480068401C5349086025
:100DBC00FFF706FA52482549086001BDD0140020FF
:100DCC00901B0020D013002010B53748006801F0AC
:100DDC0081F90400E4B22000001F01282ED8FFF78F
:100DEC0070FF0020304908602348006830F0006034
:100DFC002149086043480068C0070BD53E4800688D
:100E0C0042F21071884205D23B480068401C3A49B6
:100E1C000860EFE73C48006842F21171884209D340
:100E2C003A4800F005F937480068C00702D5FFF7CB
:100E3C00B2F9F8E7324805490860FFE710BD000039
:100E4C00F81B0020180100201D0F08006C1B00204F
:100E5C00100E0E4080020020681B0020A01B0020FA
:100E6C00E4190020000E0E408C1B0020FC1B0020FF
:100E7C0090030020301B0020641B0020CC010020BC
:100E8C00040C0E40000C0E40040E0E40140C0E40D0
:100E9C00140E0E40141C0020905D080040600800E9
:100EAC008460080098600800881B0020805F0800A0
:100EBC00781B00209C1B0020AC1B00202003002072
:100ECC000C030020F802002068020020FEFFE3FF64
:100EDC004C02002098030020A31C0020A21C002020
:100EEC00A11C0020AC6008003C5D08005C030020E5
:100EFC0084000020101C0020741B0020A41B002068
:100F0C00150D08003C1C0020701B0020EC0100207B
:100F1C007047FEE7FEE7FEE7FEE7FEE7FEE7FEE7CB
:100F2C00FEE7FEE7FEE7FEE7FEE7FEE7FEE7FEE78D
:100F3C00FEE7FEE7FEE7FEE7FEE7FEE7FEE7FEE77D
:100F4C00FEE7FEE7FEE7FEE7FEE7FEE7FEE7FEE76D
:100F5C0010B402000C4800681468A04205D30A487B
:100F6C0000681468001B030007E05FF0FF30146892
:100F7C00001B054C2468201803008B4201D2002072
:100F8C0000E0012010BC7047101C002062B38B07DE
:100F9C0008D0521E11F8013B00F8013B00F02480F0
:100FAC008B07F6D1830740F0208000BF103A07D39F
:100FBC0030B4B1E83810103AA0E83810F9D230BC8F
:100FCC00530724BFB1E80810A0E8081044BF51F83B
:100FDC00043B40F8043BD20724BF31F8022B20F825
:100FEC00022B44BF0B7803707047083A07D3B1E863
:100FFC000810083A40F8043B40F804CBF7D25307EA
:10100C00E4E710B450F8041B81B102681218001DFB
:10101C0050F8043BDC0744BFA9F10104E31852F873
:10102C00044B43F8044B091FF9D1EBE710BC704794
:10103C0070B50400250000262878002802D0761C04
:10104C006D1CF9E722003100DFF8F805006801F0AB
:10105C0059FA70BD80B5DFF8F0050088ADF80000D6
:10106C0000AA0221DFF8DC05006801F04BFA01BD93
:10107C002DE9FE43040000250026DFF8D085002072
:10108C00C0B20A2819DAB4FBF8F1303100AAC0B2A8
:10109C00815400A9C0B2415C302901D001210D005E
:1010AC00EDB2002D00D0761CB4FBF8F108FB114416
:1010BC000A21B8FBF1F8401CE2E7EDB2002D01D19A
:1010CC0001200600F6B2300000F06CFF8146B9F149
:1010DC00000F08D10220DFF8781508700FF231509C
:1010EC00DFF870150860092007003000C0B2002836
:1010FC0009D000A9795CC0B210EB090202F8011CFE
:10110C007F1E401EF2E74A46F6B23100DFF8340586
:10111C00006801F0F7F9484600F09CFFBDE8F78342
:10112C0070B5A4B000A8DFF830150522FFF72EFF2C
:10113C0011A8DFF828154822FFF738FF01240125F4
:10114C0002A8DFF81C153C22FFF730FF11A8FFF7AF
:10115C006FFF0026F6B2062E12DADFF808050068DB
:10116C0004420AD10020050002A8F6B20A2101FBB4
:10117C000600FFF75DFFFFF76DFF6400761CE9E7E3
:10118C00EDB2002D02D000A8FFF752FFFFF762FF6F
:10119C0024B070BD00B585B0002080B2802806D286
:1011AC000021DFF8C42480B28154401CF5E7DFF83D
:1011BC00B804DFF8B8140860DFF8AC04DFF8B0143A
:1011CC000860DFF8B004DFF8B014086002208DF876
:1011DC000000DFF894040190DFF894040290802062
:1011EC00ADF802000FF25900039000A801F0D6F8F8
:1011FC00DFF850140860DFF84C040068002805D1B3
:10120C000FF20D40DFF84C14086010E0DFF86C04AE
:10121C00FFF70EFFDFF84C04006850F00400DFF815
:10122C00441408600FF23520DFF82814086005B06C
:10123C0000BD80B5DFF81C040068804701BD0000CC
:10124C00DFF82C040068401CDFF824140860DFF879
:10125C0020040068DFF82814884204D1DFF8080461
:10126C00DFF80C140860704710B592B00AA8DFF8CC
:10127C0014141922FFF78AFE3A208DF80200202060
:10128C008DF803000A208DF824000D208DF8250020
:10129C000AA8FFF7CDFE0024E4B2082C2CDAE4B245
:1012AC000A2C07DBE4B20A2094FBF0F030308DF806
:1012BC00000002E030208DF80000E4B20A2094FB1C
:1012CC00F0F100FB114030308DF801000020C0B26D
:1012DC0020280CDADFF8B013E4B251F83410C0B2A5
:1012EC00415C00AAC0B282181171401CEFE700A843
:1012FC00FFF79EFE641CCFE7FFF7ACFE12B010BDEB
:10130C0010B584B000A8DFF884131CC91CC00C39BC
:10131C000C3800A8FFF78CFE1FBD10B584B000A8D8
:10132C00DFF86C131CC91CC00C390C3800A8FFF773
:10133C007FFEDFF860030078C0070CD5DFF854039C
:10134C00006840084000DFF84C130860DFF84803E1
:10135C00FFF76EFE0BE0DFF83C03006850F0010075
:10136C00DFF830130860DFF83403FFF761FE1FBDB0
:10137C0010B50400E4B2422C0BD1082001F00EFB96
:10138C00092001F00BFB0A2001F008FB0B2001F0F7
:10139C0005FBE4B2522C0BD1002001F0FFFA012026
:1013AC0001F0FCFA022001F0F9FA032001F0F6FA40
:1013BC00E4B2472C0BD1042001F0F0FA052001F027
:1013CC00EDFA062001F0EAFA072001F0E7FA10BD69
:1013DC0000B589B000A8B2492322FFF7D7FD00A8B9
:1013EC00FFF726FEAB480078C00709D5A94800686E
:1013FC0040084000A7490860A748FFF719FE08E01D
:10140C00A448006850F00100A2490860A348FFF707
:10141C000FFE09B000BD00B587B000A8A1491B2282
:10142C00FFF7B4FD00A8FFF703FE9A480068C0035D
:10143C0009D59848006830F4803096490860964881
:10144C00FFF7F6FD08E09348006850F480309149AE
:10145C0008609248FFF7ECFD07B000BD38B50024DA
:10146C008248006882490968884262D0E4B2002C44
:10147C005FD17E480068007805008B480078012811
:10148C0003D12800C0B2FFF773FFEDB22800082883
:10149C0002D00D2813D018E07748006875498842AF
:1014AC0009D075480068401E734908607F48008861
:1014BC00401E7E4908807E48FFF7BAFD2BE00120D4
:1014CC0004000FF28100634908602900C9B25D482D
:1014DC00006800F0FFFF6848006805706648006807
:1014EC00401C6549086071480088401C6F490880A1
:1014FC00614800686F4988420DD3EDB20D2D0AD0BA
:10150C005C485D4908600020684908806A48FFF71C
:10151C008FFD6A49086055480068401C53490860B3
:10152C0052480068564988429AD34F484F49086040
:10153C0096E762480068002803D06048006800F015
:10154C00C9FD31BD70B50124002005004948EDB23C
:10155C00285C5B49EDB2695C884201D00020040034
:10156C006D1CE4B2002C02D0EDB2042DEEDBE4B223
:10157C00002C2ED0002004003E48EDB22856303806
:10158C0006006D1C76B2002E23D476B20A2E20DA19
:10159C000A2000FB06F04B4908703648EDB228567D
:1015AC00303806006D1C76B2002E12D476B20A2E9C
:1015BC000FDA4448007830184249087041480078E6
:1015CC00082806DA2B48EDB2285C0D2801D1012041
:1015DC000400E4B2002C04D00FF21D001D49086079
:1015EC0005E03948FFF724FD38481A4908602148BE
:1015FC002149086070BD000080B534481549086069
:10160C0021483049097810EBC1004068804701BD82
:10161C0080B52048006850F000401E4908602C48F6
:10162C00FFF706FD0A480078FFF722FDFFF712FDD1
:10163C0000201E4908800F480F49086023480549BF
:10164C00086001BDC41B00209635080000CA9A3BF7
:10165C00A61C0020C01B002024610800B85C0800F8
:10166C00005D0800FC1B002060170020D01B002030
:10167C00CC1B0020E0180020D41B0020D40000203C
:10168C00E01700209C5F080058010020F060080063
:10169C00FC600800BC1B0020B8030020B003002035
:1016AC00F85E0800B85F0800CE0300209C1C0020E8
:1016BC00C4030020201900200C020020C81B0020AD
:1016CC00A0030020A71C0020480300206914080078
:1016DC0098020020012110F01F029140DFF85028E1
:1016EC0040B2430942F823107047012110F01F0249
:1016FC009140DFF8402840B2430942F8231070476C
:10170C002DE9F04704002078022804D034D30428B3
:10171C0021D010D330E0DFF820080500502006005F
:10172C00DFF818080700082080467FF00800814683
:10173C001A20824622E0DFF8080805006020060027
:10174C00DFF800080700002080465FF0FF3081467C
:10175C003020824612E0DFF8F0070500502006002A
:10176C00DFF8E80707005FF4002080465FF0FF30E9
:10177C0081460020824601E0002063E02869C00217
:10178C0001D500205EE0DFF8C8070068012195F95B
:10179C00262091400843DFF8B8170860606868603D
:1017AC00A068A860207B2873607B687320696861DF
:1017BC006069A861A069E861E0692862208CA8844E
:1017CC00286950F4801028612868066028684760F2
:1017DC002868C0F808802868C0F80C902868C0F801
:1017EC0020A0687B01281BD1A0692968C1F80001E1
:1017FC00A069401C2968C1F8100101202968C1F8B2
:10180C00040101202968C1F814010020286240F26B
:10181C0001102968C1F820015FF400202968886054
:10182C00687B022803D1DFF82C072968886095F9BA
:10183C00260040B2FFF759FF95F9260040B2FFF79A
:10184C0049FF2800BDE8F087F8B504000D0016002C
:10185C003200290014F1280000F058FC0700002F7A
:10186C0001D1002007E0DFF8F4060068002801D55C
:10187C0000F087F83800F2BD70B5DFF8E806DFF845
:10188C00B81608600020DFF8B01648600020DFF8BA
:10189C00A81688620020DFF8A016C8610020DFF8C7
:1018AC00981688840020DFF8901608620020DFF874
:1018BC00881608610D20DFF8801681F82600DFF805
:1018CC00A806DFF87C1608600020DFF87416486064
:1018DC000020DFF86C1688620020DFF86416C861FF
:1018EC000020DFF85C1688840020DFF854160862AC
:1018FC000020DFF84C1608610E20DFF8441681F842
:10190C002600DFF86806DFF8401608600020DFF8D4
:10191C00381648600020DFF8301688620020DFF8A7
:10192C002816C8610020DFF8201688840020DFF814
:10193C00181608620020DFF8101608610F20DFF877
:10194C00081681F82600DFF8F005DFF82416086089
:10195C008024FF25DFF808662A002100300001F002
:10196C004FF90FF20D40DFF8F0150860DFF80406B0
:10197C00FFF75EFB70BD80B5DFF8DC0500688047C3
:10198C0001BD80B5DFF8F005006850F00100DFF80C
:10199C00E8150860DFF8A005DFF8D4150860DFF85B
:1019AC00D8050078C0070FD5DFF8AC050068804774
:1019BC00DFF8C8050068DFF8C81508600121DFF8FA
:1019CC00C005FFF7C5FAEAE701BD80B5DFF8700581
:1019DC00DFF8B0150860DFF8B405DFF8AC15086067
:1019EC00DFF8AC050068401CDFF8A415086000F0B7
:1019FC0016F801BD80B5DFF85005DFF888150860D2
:101A0C00DFF89005DFF880150860DFF88C050068BA
:101A1C00401CDFF88415086000F001F801BD70B5BA
:101A2C00DFF860050068006840690600DFF85405BF
:101A3C00006800680069000338D5300336D5DFF83C
:101A4C00440500684068C06BDFF838150968896880
:101A5C00084214D1DFF830050068006850F001002E
:101A6C00DFF8241509680860DFF81C0500680068B9
:101A7C0030F00600DFF810150968086016E0DFF892
:101A8C0008050068006840084000DFF8FC1409688D
:101A9C000860DFF8F0040068407B012806D10120C3
:101AAC00DFF8E01409680968C1F80401DFF8D40410
:101ABC00006800680069800570D5B0056ED5DFF848
:101ACC00C4040068C06A401EDFF8B8140968C86214
:101ADC00DFF8B0040068006880690400DFF8A40433
:101AEC000068C06A002825D0DFF898040068006BF5
:101AFC00401CDFF8901409680863DFF8880400685C
:101B0C00006B00780400DFF87C040068007B01287F
:101B1C0003D194FAA4F0000E04002000C0B2DFF848
:101B2C00641409680968C861DFF8580400684069E2
:101B3C00804733E04FF40070DFF8481409680968F7
:101B4C00C860DFF840040068006930F40010DFF86A
:101B5C003414096808610421DFF828040068806ADD
:101B6C00006800F0B9FBDFF81C040068283000F0B6
:101B7C004AFB0120DFF80C14096809688860DFF85B
:101B8C0008040068006850F00200DFF8FC130968D4
:101B9C000860DFF8F003006840698047DFF8E40371
:101BAC00006800680069C00737D5DFF8D803006803
:101BBC0000684069C00730D5DFF8C80300680068CA
:101BCC008069C0B20400DFF8BC030068007B012808
:101BDC0003D194FAA4F0000E04002000C0B2FF2838
:101BEC0006D1DFF8B8030068401CDFF8B0130860BA
:101BFC00DFF890030068006A00680470DFF888035F
:101C0C000068006850F00400DFF87C130968086075
:101C1C00DFF87003006880698047DFF868030068AC
:101C2C0000680069000762D5300760D5DFF85403FF
:101C3C000068407B00282BD10421DFF848030068A2
:101C4C00806A006800F048FBDFF838030068283031
:101C5C0000F0D9FADFF82C030068006930F480003A
:101C6C00DFF8201309680861DFF818030068806842
:101C7C00C4490968496808630220C24909680968AF
:101C8C00C1F820010820BF4909680968C8602EE026
:101C9C00BD480068006850F00400BB490968086042
:101CAC00B84800680068D0F81001401CB5490968B4
:101CBC000968C1F81001B34800680068D0F8000149
:101CCC00B0490968C969AF4A1268928C51188842A8
:101CDC0007D1AC480068C069AA4909680968C1F80D
:101CEC0000010120A74909680968C1F81401A54839
:101CFC00006800680069C00639D5F00637D50421A4
:101D0C00A0480068806A006800F0E6FA9D48006808
:101D1C00283000F078FA9B480068006930F4001015
:101D2C009849096808614FF4007096490968096878
:101D3C00C1F820011020934909680968C860002087
:101D4C0005009048006800684069800503D4642D44
:101D5C0001D26D1CF5E78B480068407B002806D14A
:101D6C00884800688068874909684968086370BDBD
:101D7C0010B57F480068806A002800F0B5807C4868
:101D8C000068006910F4C00F40F0AE80784800681D
:101D9C00407B002806D17648006880687449096841
:101DAC004968486372480068806A08306C49884208
:101DBC002CD103216E480068806A006800F08CFA10
:101DCC006B480068006950F4800069490968086133
:101DDC0067480068806A0830654909680968C1F875
:101DEC00000163480068806A4068614909680968B5
:101DFC00C1F8040108205E4909680968886001205F
:101E0C005B4909680968C1F820016DE00221584856
:101E1C000068806A006800F05FFA55480068006945
:101E2C0050F4001052490968086151480068407B21
:101E3C0002283BD14E480068806A40684C490968CA
:101E4C00C8624B480068806A0830494909680863D1
:101E5C0047480068006B0078040045480068007B28
:101E6C00012803D194FAA4F0000E04000820404984
:101E7C0009680968086040203D49096809680860DC
:101E8C002000C0B23A4909680968C8610120384984
:101E9C0009680968C8604FF4007035490968096819
:101EAC00886033480068406980471DE0304800680E
:101EBC00806A08302E4909680968C1F808012C4865
:101ECC000068806A40682A4909680968C1F80C01F1
:101EDC00102027490968096888604FF480702449EC
:101EEC0009680968C1F820012148006890F82600AB
:101EFC000D2804D015D30F2809D004D311E01048B5
:101F0C001B49086013E01048194908600FE00A48A3
:101F1C0017490860184800684008400016490860D6
:101F2C0005E01F48FFF784F803481149086010BD0D
:101F3C0000E100E080E200E020190020C008400031
:101F4C0054190020CE18450088190020FF184100B4
:101F5C0010040E4001000800401C0020F81B00205B
:101F6C006018002000000940004009400080094032
:101F7C004C1C0020C8020020481C0020101C002013
:101F8C00441C0020501C0020541C0020381C002035
:101F9C00581C00203C1C00205C1C0020601C0020F5
:101FAC00E002002070B5054605F10F00C408E400FE
:101FBC00C046C046A54232D2082C04D2082402E006
:101FCC00083000F047F82248026811000CD1011DBE
:101FDC000A6802B31368A34238BF111DF8D310E08E
:101FEC001D68A5420DD2191D0B68002BF8D1126883
:101FFC00011D00E0191D0B6893420CD01D68A54211
:10200C00F8D361B10D682A68A2F10803A3420AD281
:10201C006A680A600FE000F037FE0028D0D1C04695
:10202C00C046002070BD63190B60121B6E685E60A9
:10203C000B681A602C60096800291DBF4A68002AC9
:10204C00091D00210160C046C04605F1080070BDA5
:10205C005C1B002000B9704738B5A0F1080420685B
:10206C00082833D310F0070F30D1C046C0461848AB
:10207C00416809B18C4203D26160446017E0194693
:10208C004B680BB1A342FAD30B685D18AC421BD35F
:10209C00A54204D12268D2180A600C4607E04A68AF
:1020AC001AB123681B199A420ED362604C606168A6
:1020BC0051B1226813198B4206D1002303600868C2
:1020CC008018206048686060C046C04631BD000082
:1020DC005C1B00200100FF209A4A13688B4204D03D
:1020EC00994B9A4201D00C32F7E7974B9A420BD09E
:1020FC0013791800C0B2042802D0C0B2052803D14D
:10210C000023136000231371C0B270472DE9F84F00
:10211C0004000D001600AB465FF000098B480078F8
:10212C00102807D18A48006850F0010088490860DF
:10213C00002066E0BBF1000F62D084480078401CA0
:10214C0082490870814800780E2806DB80480068B8
:10215C0050F002007E49086005E07D48006830F0D0
:10216C0002007B4908607B4882469AF800000028F0
:10217C0002D11AF1900AF8E700208AF800001AF14F
:10218C0004000700BBF1810F04D380208146BBF112
:10219C00800B02E0D946002083466F480068386007
:1021AC00C7F804900020C7F888000020796888429E
:1021BC0005D23178C2191172761C401CF6E72068E2
:1021CC00002801D127600AE020688046D8F88800F2
:1021DC00002802D0D8F88880F8E7C8F888705E48E4
:1021EC00006800F087F85C480068401C5A49086099
:1021FC005948006800289DD101205749086099E78B
:10220C003868BDE8F28F0268002A06D1504A12687D
:10221C0052F004024E4B1A601FE04E4A11000A1D88
:10222C0003689A4204D04D4A914201D09031F6E7AE
:10223C004A4A914206D1464A126852F00802444B6F
:10224C001A600AE00268D2F88820026001220A7043
:10225C003E4A1278521E3D4B1A70704700203B4983
:10226C00087001203C490860002080B2102808DA70
:10227C000121384A80B2902303FB00221170401CCC
:10228C00F3E7002080B2402816DA00212D4A80B2F4
:10229C000C2303FB0022116000212A4A80B20C237C
:1022AC0003FB002211710021264A80B20C2303FB90
:1022BC0000229160401CE5E7224829490860002073
:1022CC00234908600FF2610026490860704780B509
:1022DC0024480068804701BD1A4A1368834204D021
:1022EC00194B9A4201D00C32F7E7174B9A4200D0A7
:1022FC00117170471A49096808600121184A12685F
:10230C00117119490968164A1268916014490968D3
:10231C000C31134A1160124909680B4A914202D1DF
:10232C0008490F4A1160704710480068401E0F4959
:10233C0008600E480068002803D14FF47A700B49EE
:10234C0008607047D0100020D0130020AB1C002078
:10235C00001C0020D0030020081C0020D00C002002
:10236C000C1C0020041C0020101C0020C8030020A2
:10237C00012110F01F029140DFF8FC2440B2430908
:10238C0042F823107047012110F01F029140DFF832
:10239C00EC2440B2430942F8231070472DE9F04772
:1023AC0004002078012806D046D3032823D012D36A
:1023BC00042830D040E0DFF8C804050050200600A7
:1023CC00DFF8C0040700002080465FF0FF30814634
:1023DC001A20824632E0DFF8B004050050200600D7
:1023EC00DFF8A0040700082080467FF00800814633
:1023FC001A20824622E0DFF89404050060200600D3
:10240C00DFF88C040700002080465FF0FF30814627
:10241C003020824612E0DFF87C04050050200600D4
:10242C00DFF8740407005FF4002080465FF0FF3093
:10243C0081460020824601E0002049E02879C0074F
:10244C0001D5002044E0DFF854040068012195F91F
:10245C00222091400843DFF84414086060686861EA
:10246C0060882884A068A861E068E861686850F01A
:10247C000100686028680660286847602868C0F812
:10248C0008802868C0F80C902868C0F820A0606804
:10249C002968C1F800016068401C2968C1F8100166
:1024AC0001202968C1F8040101202968C1F8140130
:1024BC0040F201102968C1F8200195F9220040B2C0
:1024CC00FFF761FF95F9220040B2FFF751FF28009A
:1024DC00BDE8F08770B582B004000D008DF8005097
:1024EC0000AA012114F10800FFF710FE0600002ECF
:1024FC0006D0DFF8B0030068002801D500F09BF887
:10250C00300076BDF8B504000D001600320029002D
:10251C0014F10800FFF7FAFD0700002F06D0DFF8D2
:10252C0084030068002801D500F085F83800F2BD5E
:10253C000020DFF874130860DFF87003DFF8401335
:10254C0008600020DFF8381388600020DFF83013B3
:10255C0048610020DFF8281308840020DFF82013DE
:10256C0088610020DFF8181348600820DFF810138A
:10257C0081F82200DFF83803DFF80C130860002024
:10258C00DFF8041388600020DFF8FC12486100209B
:10259C00DFF8F41208840020DFF8EC1288610020C8
:1025AC00DFF8E41248600D20DFF8DC1281F822001D
:1025BC00DFF80003DFF8D41208600020DFF8CC123B
:1025CC0088600020DFF8C41248610020DFF8BC12DC
:1025DC0008840020DFF8B41288610020DFF8AC1208
:1025EC0048600E20DFF8A41281F82200DFF8C80240
:1025FC00DFF8A01208600020A64988600020A549D9
:10260C0048610020A34908840020A2498861002069
:10261C00A04948600F209F4981F822009848A7499B
:10262C0008600FF27D109E490860704780B59C4889
:10263C000068804701BD80B59B48006850F00100E0
:10264C00994908608E489D49086097480078C007F2
:10265C000BD59348006880479948006899490860F1
:10266C0001219848FEF774FCEFE701BD80B5844862
:10267C009549086095489649086096480068401C42
:10268C009449086000F010F801BD80B57E488E4971
:10269C00086091488E49086090480068401C8F493A
:1026AC00086000F001F801BD80B58748006800683B
:1026BC000069000738D58448006800684069000745
:1026CC0032D583480068006850F0020080490968E0
:1026DC0008607D4800680068D0F81001401C7A49F9
:1026EC0009680968C1F81001774800680068D0F8DB
:1026FC001001754909684969734A1268128C51189E
:10270C00884207D17048006840696F4909680968B8
:10271C00C1F810016C480068C069804701206A4903
:10272C0009680968C1F81401674800680068006905
:10273C00C00632D56448006800684069C0062CD5D4
:10274C0004216148006880680068FFF7C5FD5E4899
:10275C0000680830FFF757FD5B480068406830F4AC
:10276C0000105949096848604FF4007056490968CF
:10277C000968C1F820011020534909680968C8602C
:10278C0057480078002805D055480078401E544919
:10279C00087002E05348FEF74BFC01BD000000003E
:1027AC0080B5464800688068002836D043480068E9
:1027BC004068800231D4022140480068806800687B
:1027CC00FFF78AFD3D480068406850F400103B4913
:1027DC0009684860394800688068083037490968DA
:1027EC000968C1F8080135480068806840683349B9
:1027FC0009680968C1F80C0110203049096809689A
:10280C00886037480078401C354908704FF4807058
:10281C002A4909680968C1F820012848006890F81D
:10282C002200082806D00D2808D00E280AD00F2820
:10283C000CD01DE01448214908601CE013481F49C6
:10284C00086018E013481D49086014E00C481B4947
:10285C00086014480068002809D521480078002831
:10286C0005D111480068400840000F49086002E09B
:10287C0003481249086001BD00E100E080E200E07D
:10288C002C1A0020C0084000501A0020741A002096
:10289C00CE184500981A0020FF18410010040E4075
:1028AC006C1C0020F81B0020741C002000060E403D
:1028BC00000009400040094000800940781C0020BD
:1028CC00101C0020701C00207C1C0020641C0020AC
:1028DC00801C0020841C0020681C0020881C002008
:1028EC00AF1C0020605F080010B4DFF8F422C0B207
:1028FC000A2303FB0022D279012A0BD1DFF8E42250
:10290C00B74BC0B20A2404FB00331B7A12EB8302D0
:10291C00110009E0B44AB24BC0B20A2404FB0033E4
:10292C001B7A12EB83021100B04AC0B252F820207D
:10293C000A600022AA4BC0B20A2404FB00331A70AE
:10294C0010BC704710B4A64AC0B20A2303FB002285
:10295C00D279012A0AD1A44AA14BC0B20A2404FBA1
:10296C0000331B7A12EB8302110009E09D4A9C4B49
:10297C00C0B20A2404FB00331B7A12EB8302110051
:10298C009A4AC0B252F820200A600022944BC0B27E
:10299C000A2404FB00331A7010BC70479449904A07
:1029AC00C0B20A2303FB0022127A11EB82010A68DF
:1029BC008E4BC0B253F820305A400A6070472DE954
:1029CC00F04182B04FF47A644FF4FA75601B142115
:1029DC00B0FBF1F61427FFB2002F30D05FF02808BF
:1029EC001FFA88F8B8F1000F0DD0824800680090EB
:1029FC00012100A8FEF7ACFA0028F9D000F03EF84F
:102A0C00B8F10108ECE7FFB2142F06D140F2DC510B
:102A1C0000A8FEF79DFA0028F8D00020C0B20D28BF
:102A2C0009DAFFB2791E6E4AC0B20A2303FB0022F8
:102A3C005180401CF2E7A41B75197F1ECBE700F0F8
:102A4C001DF8C82100A8FEF783FA0028F9D0002051
:102A5C00C0B20D2804DA0021614A1170401CF7E75E
:102A6C000C20FFF741FF6448006850F001006249F8
:102A7C0008606248FEF7DCFABDE8F38110B500246B
:102A8C00E4B20D2C80F2AA805548E4B20A2101FB75
:102A9C0004000078012872D15148E4B20A2101FBEC
:102AAC000400B0F90200002804D12000C0B2FFF7E6
:102ABC0049FF5CE04A48E4B20A2101FB0400B0F98A
:102ACC000200142804D12000C0B2FFF70DFF4EE025
:102ADC004348E4B20A2101FB04008088401E4049AF
:102AEC00E4B20A2202FB041188803D48E4B20A21B8
:102AFC0001FB04008088002839D13948E4B20A214E
:102B0C0001FB0400807901281AD12000C0B2FFF724
:102B1C0019FF3348E4B20A2101FB0400B0F90200AA
:102B2C00D0F114002E49E4B20A2202FB0411888071
:102B3C0000202B49E4B20A2202FB0411887116E032
:102B4C002000C0B2FFF7D0FE2548E4B20A2101FBF9
:102B5C00040040882249E4B20A2202FB0411888056
:102B6C0001201F49E4B20A2202FB041188710120E2
:102B7C001B49E4B20A2202FB041108702CE018482D
:102B8C00E4B20A2101FB04000078022824D1144885
:102B9C00E4B20A2101FB04008088401E1049E4B213
:102BAC000A2202FB041188800D48E4B20A2101FBC1
:102BBC000400808800280FD12000C0B2FFF7EEFE81
:102BCC000748E4B20A2101FB040040880449E4B23E
:102BDC000A2202FB04118880641C51E710BD00001E
:102BEC0000000020300C0E40340C0E4098010020E8
:102BFC00380C0E40101C0020FC1B0020B0020020E2
:102C0C0062F30F2262F31F42401810F0030308D046
:102C1C00C91A1FD3DB0748BF00F8012D28BF20F8C5
:102C2C00022D130030B414461546103928BF20E984
:102C3C003C00FAD8490728BF20E90C0048BF40F8EF
:102C4C00042D890028BF20F8022D48BF00F8012D63
:102C5C0030BC7047C91818BF00F8012DCB0728BF2E
:102C6C0000F8012D704750F8041B61B150F8042B8B
:102C7C00D30744BFA9F101039A18002342F8043B7F
:102C8C00091FFAD1EFE770470749086808B100201F
:102C9C0070470648C008C00008600549C908C9004B
:102CAC00091A0160704700BF901C0020BF1C002057
:102CBC00B83C0020F0B583B004000D00160030883D
:102CCC00ADF800007088ADF80200EDB2002D08D10F
:102CDC00062007000720ADF804000520ADF806001B
:102CEC0007E00B2007000E20ADF804000A20ADF819
:102CFC0006002078002824D0BDF80200802820DAB5
:102D0C00EDB2002D0AD100A9DFF8C80722780723FD
:102D1C0003FB0200E03800F015F80AE000A9DFF828
:102D2C00B80722781C2303FB0200B0F5A86000F062
:102D3C0009F8BDF80200FFB23818ADF80200641CA7
:102D4C00D7E7F7BD2DE9F84F04000D00288840287F
:102D5C0080F2AF806888802880F2AB80A8888DF8DC
:102D6C00000028889DF800100818412804DB2888EA
:102D7C00D0F140008DF80000E888834668881FFA7F
:102D8C008BFB1BEB0000812803DB6888D0F18000F3
:102D9C00834600219DF8000089B280B2814280F008
:102DAC008580012006000020804601206A880823C7
:102DBC0092FBF3FC0CFB132C10FA0CF00700688848
:102DCC00082290FBF2F08146002292B21FFA8BFB94
:102DDC005A4569D2E888082390FBF3FC0CFB130CD2
:102DEC00BCF1000F0AD189B2E888082390FBF3F0FC
:102DFC001FFA88F800FB018082460AE089B2E88855
:102E0C00082390FBF3F0401C1FFA88F800FB0180AC
:102E1C0082461FFA8AFA1AF80400304219D0DFF8F9
:102E2C00BC0689B22B885B1810EB03101FFA89F9CA
:102E3C00DFF8A83689B2B5F800C01CEB010C13EB17
:102E4C000C131FFA89F919F803303B4309F80030C9
:102E5C0018E0DFF8880689B22B885B1810EB03109A
:102E6C001FFA89F9DFF8743689B2B5F800C01CEB8B
:102E7C00010C13EB0C131FFA89F919F80330BB433F
:102E8C0009F800307600F6B2002E03D101200600BE
:102E9C0018F101087F00FFB2002F03D101200700B9
:102EAC0019F10109521C90E7491C73E7280000F046
:102EBC0023FABDE8F18F2DE9F0410400A08807004A
:102ECC002088FFB23818412803DB2088D0F140005D
:102EDC000700E088804660881FFA88F818EB00002D
:102EEC00812803DB6088D0F180008046208880B286
:102EFC002188FFB2791888422EDA6188082291FB6A
:102F0C00F2F10E0001216288082392FBF3FC0CFB0A
:102F1C00132C11FA0CF10D00002189B21FFA88F85C
:102F2C00414517D2DFF8B42580B212EB0012B6B2CD
:102F3C00DFF8A83580B213EB0013B6B2F35CAB43E9
:102F4C00B3546D00EDB2002D02D101221500761C98
:102F5C00491CE2E7401CCAE7200000F0CDF9BDE8AF
:102F6C00F08110B50400DFF87C050078C00722D48E
:102F7C00DFF87005006850F00100DFF86815086094
:102F8C00DFF8640504704FF40040DFF8601508604A
:102F9C00DFF854250121DFF858050068FEF754FCD2
:102FAC00DFF8501508600020DFF84C15086000F0C1
:102FBC00E7F8012000E0002010BD3EB50C20FFF723
:102FCC0093FCDFF838050068DFF82C1508600FF269
:102FDC00C930DFF82C150860DFF82805DFF8281554
:102FEC0008600320DFF824150870DFF82405DFF8EB
:102FFC001C1548604FF48050DFF810158860DFF81E
:10300C000405DFF808158861DFF8FC04DFF8FC1410
:10301C00C8610120DFF8F41408840020DFF8EC14F8
:10302C0008730020DFF8E4144873DFF8E004FEF7BF
:10303C0067FBDFF8BC1408604FF48050DFF8AC1469
:10304C0008604FF48040DFF8CC14086000200A2898
:10305C0001D2401CFBE74FF48040DFF8901408606D
:10306C00DFF898040068DFF8B01408600221DFF87C
:10307C00A804FDF76DFF0028F8D04FF48040DFF86E
:10308C0094140860DFF874040068DFF88C1408608E
:10309C000221DFF88404FDF75BFF0028F8D00B2039
:1030AC0004000025EDB2E4B2A54214D2DFF86C04A2
:1030BC00EDB2285CFFF755FFDFF840040068DFF83D
:1030CC00581408600521DFF85004FDF741FF002873
:1030DC00F8D06D1CE6E7DFF80804FFF7ECFE00F013
:1030EC004FF8DFF818040068DFF82C1408604FF470
:1030FC00FA71DFF82404FDF72BFF0028F7D0A42089
:10310C00FFF72FFFDFF8D803FFF7D5FE0020ADF84F
:10311C0004002820ADF806003220ADF8080032205B
:10312C00ADF80A0001A9DFF8F803FFF70BFEDFF892
:10313C00F40300F00FFA062148434008D0F1400098
:10314C00ADF802003820ADF8000000AA0021DFF82D
:10315C00D403FFF7AFFD00F013F8DFF8CC030068E1
:10316C0050F00800DFF8C0130860DFF8C003FDF76B
:10317C005FFF37BD80B5DFF888030068804701BD6D
:10318C0080B5DFF8AC03006800281FD50020DFF8FD
:10319C0068130860DFF84C03006850F08050DFF8CB
:1031AC0044130860DFF83C030068C0000ED5DFF85C
:1031BC00500300688047DFF8440300680090012149
:1031CC0000A8FDF7C5FE0028ECD1F8E701BD38B525
:1031DC000400DFF860034088D0F18000DFF854135E
:1031EC00C988451ABF480078C00721D454F0B000F4
:1031FC00BD490870C5F3031050F01000BA4948706F
:10320C0015F00F00B84988704FF40040B7490860BA
:10321C00B448006850F00100B2490860B24A03217A
:10322C00B3480068FEF710FBB2490860012000E0CB
:10323C00002032BD2DE9F0470400AB480600BD4824
:10324C004088BC49C9880818401E082190FBF1F041
:10325C0007000120B7494988B64AD2885118491E3F
:10326C00082291FBF2F303FB121398408146E4B25F
:10327C00A4B2E0000500012080460021AD48C088C2
:10328C0089B2814229D2002082460022D2B2082A79
:10329C0012DA9248ADB2D2B2531910EB0310FFB24E
:1032AC00385C10EA090F05D05FFA88F818FA02F0BA
:1032BC0050EA0A0A521CE9E786F800A0761C5FFA6D
:1032CC0089F95FEA59095FFA89F9B9F1000F02D15E
:1032DC00802081467F1E491CD0E74FF400408D4969
:1032EC000860814A9348C18881480068FEF7ACFAAF
:1032FC0080490860BDE8F0878F4A9288002A0CD17B
:10330C0042888D4B5A8002888B4B1A80C2888A4B1C
:10331C00DA808288884B9A803BE04288864B5B88B7
:10332C009A4202D24288844B5A800288824B1B8874
:10333C009A4202D20288804B1A80B0F90020B0F970
:10334C0004309A187C4BB3F90030D21A7A4BB3F98B
:10335C000430D21A110009B2012904DB764A928892
:10336C008A18754B9A80B0F90220B0F906309A1879
:10337C00714BB3F90230D21A6F4BB3F90630D21A33
:10338C00110009B2012904DB6B4AD2888A186A4BF6
:10339C00DA8070470000000080B552480078C00702
:1033AC000BD5564800685C4908606448644908605D
:1033BC000FF2AD005249086051E019214E48FDF75B
:1033CC00C7FD002845D04D4800684B4908605A4855
:1033DC008088002843D058488088564988805648B1
:1033EC00C0885449C88054480088524908805248C3
:1033FC0040885049488000204F49888000204E4921
:10340C00C88000204C49088000204B49488049481E
:10341C000088484989880818401E082190FBF1F063
:10342C0044490988082291FBF2F1401A401C454995
:10343C00087040480088082190FBF1F04249087060
:10344C0041480078FFF7C3FE0FF215002C490860C5
:10345C0005E02448006830F080502249086001BD26
:10346C0080B524480068FEF735FE042831D1354874
:10347C000078002820D01B480078C00714D51948C4
:10348C00006840084000174908602F480078FFF793
:10349C00D1FE2D480078401C2B4908702948007833
:1034AC00401E2849087003E027480078FFF78FFE7C
:1034BC0026482349086008E00A4800682449084067
:1034CC00084908601D481E4908601D4800680C49E1
:1034DC00086001BD304E0800E45A0800D00C0020F2
:1034EC00A8030020DC1B0020E0170020340E0E4047
:1034FC00F01B0020EC1B0020E41B0020101C002003
:10350C00D81B0020AA1C0020F41B0020081A002045
:10351C00000E0E40300E0E40E01B002084030020F5
:10352C003C58080078030020FC1B00206C03002092
:10353C00F81B0020541B00204C1B0020A533080056
:10354C00E81B0020A81C0020A91C00206D340800DA
:10355C00FEFFFFEF00F10103810704D010F8011BFF
:10356C0089B18107FAD10268B2F10131914311F0AE
:10357C00803F04BF50F8042FF6E710F8011B11B17F
:10358C0010F8011BFBE7C01A70470A0D012110F05F
:10359C001F029140DFF8A42540B2430942F82310E2
:1035AC007047012110F01F029140DFF8942540B2C2
:1035BC00430942F82310704710B51224DFF8940524
:1035CC0000680121A1400843DFF88815086000203D
:1035DC00DFF884150860DFF88405DFF86C150860E7
:1035EC000020DFF86C1508700020DFF874150870E7
:1035FC000020DFF850150870DFF86805DFF85C155F
:10360C0008600020DFF8541548600020DFF84C15E6
:10361C0088600020DFF84415C860DFF82C050068CE
:10362C000068006850F08000DFF81C150968096814
:10363C000860DFF834050068DFF8301508600521F4
:10364C00DFF82805FDF784FC0028F8D0DFF820050A
:10365C00DFF8F4140968096808612420DFF8E8141D
:10366C000968096808600020DFF8DC14096809683B
:10367C0048604FF4A170DFF8D014096809684862FB
:10368C004FF63560DFF8C0140968096888622000BD
:10369C0040B2FFF786FF200040B2FFF777FF002013
:1036AC00DFF8D01408600020DFF8CC1408600FF2AB
:1036BC006910DFF8C814086010BD80B5DFF8BC04D1
:1036CC000068804701BD0120C0B200281DD0DFF882
:1036DC00A4140968002918D0DFF89C14096809782B
:1036EC00DFF86424126812685163DFF88C140968DF
:1036FC00491CDFF884241160DFF878140968491E2E
:10370C00DFF870241160401EDEE7DFF868140968EA
:10371C0000291CD10421DFF8302412681268916250
:10372C00DFF82814DFF83824127811EB0211897AAB
:10373C00002912D1DFF8101409680968096851F0E2
:10374C000201DFF8042412681268116005E00421FC
:10375C00DFF8F423126812685162704710B5DFF875
:10376C00200400680400DFF81C0400680440E00535
:10377C0008D5DFF8E403006850F08070DFF8D81348
:10378C00086046E0A00731D5DFF8BC030068007B79
:10379C0000072BD5DFF8B00300680068006BDFF87A
:1037AC00A813096889680870DFF89C0300688068B2
:1037BC00401CDFF8941309688860DFF8B8030068D0
:1037CC00401EDFF8B0130860DFF8A803006801287A
:1037DC001FD1DFF8740300680068006850F0020025
:1037EC00DFF8641309680968086012E0600708D5FF
:1037FC00DFF854030068007B800702D5FFF763FFF6
:10380C0007E0DFF85403006850F00070DFF848134D
:10381C00086010BD0000000080B5DFF834030078AC
:10382C00DFF83C130978884200F096800020DFF81E
:10383C0018130968096848602420DFF80C1309681C
:10384C0009680860DFF80403DFF81413097809012C
:10385C00085C002832D1BC48006800684068BB494D
:10386C00DFF8FC22127811EB0211097A50EA0140C0
:10387C00B549096809684860B34800684068406801
:10388C00BC490860B048006840680830BA49086014
:10389C00FFF719FF0221AC48006840680068FEF78A
:1038AC001BFDA9480068C06850F00600A6490968CD
:1038BC00C8600FF2A900B149086044E0A348A849C8
:1038CC0009780901085C01283DD19F48006800680F
:1038DC0040689D490968096848609C48A049097876
:1038EC0010EB01104068A349086098489C4909787E
:1038FC0010EB0110C0689449096888609D48006805
:10390C0001280AD1904800680068006850F0030054
:10391C008D4909680968086009E08B4800680068EF
:10392C00006850F0010088490968096808608648F9
:10393C000068C06850F0080083490968C8600FF23D
:10394C00F1008E4908608448006810F07F4F03D066
:10395C000FF255108949086001BD000080B57B4805
:10396C007F49097810EB0110807A002818D1814822
:10397C000068002826D1744800680068006A400777
:10398C0020D5714800680068006AC0071AD56E48D7
:10399C000068C06830F006006B490968C86011E027
:1039AC007448006800280DD1674800680068006AF8
:1039BC00400707D564480068C06830F002006249CF
:1039CC000968C86060480068007B800725D4042122
:1039DC005D48006840680068FEF77EFC5A48006845
:1039EC00001DFEF710FC5C480068400840005A4976
:1039FC00086065486149086059480078401C58497E
:103A0C00087050480078401E4E49087054480078A1
:103A1C00102802D10020524908704F48006810F05D
:103A2C007F4F03D00FF281005449086001BD0000A4
:103A3C005048006800282DD1434800680068006A8F
:103A4C00800727D5404800680068006AC00721D568
:103A5C003D480068C06830F008003B490968C86000
:103A6C003D480068400840003B49086046484349CF
:103A7C0008603B480078401C394908703148007890
:103A8C00401E3049087036480078102802D10020BA
:103A9C00334908703048006810F07F4F03D00FF2A4
:103AAC00090036490860704780B52B480068C00192
:103ABC003AD526482649097810EB0110407A401C6B
:103ACC002249234A127811EB021148721F482049EF
:103ADC00097810EB0110407A032821D12048007896
:103AEC00401C1F49087017480078401E1549087083
:103AFC001B480078102802D1002019490870124880
:103B0C000068007B80070BD506210F4800684068D1
:103B1C000068FEF7E1FB0C480068001DFEF773FB24
:103B2C00002009490968C8600B4800680002000AB7
:103B3C000949086014481149086001BD00E100E022
:103B4C0080E200E0AE1C00202C1C0020D0140020D1
:103B5C00AC1C002010040E40281C0020141B00205C
:103B6C00AD1C002000400840101C0020241C00202C
:103B7C001D1D0200301C0020341C0020201C0020C5
:103B8C002C40084020400840253808002DE9F14F12
:103B9C0098B000F061FB0B90002000908046DFF89D
:103BAC00A044DFF8A0040178012946D0012101705E
:103BBC002068020CA26061680B0CE360DFF888548B
:103BCC002F683F0CAF606D682D0CDFF87C74FD60C6
:103BDC001343A360C4F80C80CDF8008000250122AB
:103BEC00009F02FA05F61E40AE40374300976D1C4D
:103BFC00102DF5D3009BA360DFF84C34009D6D00B5
:103C0C009D60C3F80C8008432060C4F80480CDF894
:103C1C0000800027009902FA07F30340BB401943C8
:103C2C0000917F1C102FF5D3009820600098400065
:103C3C00DFF814140860C1F8048004A80CA916AAB3
:103C4C0013AB11AD189F04EB87070397189EDFF891
:103C5C00F8E30EEB860CA646022657F8089BC0F834
:103C6C0000905CF8089B41F8049B50F8049B42F8C8
:103C7C00049BDEF80090DEF804A04AEA090943F838
:103C8C00049B45F8048B0EF1080E761EE5D101203D
:103C9C0000F0E6FADFF8B4530498002800F04881ED
:103CAC0002900C980190189854F8200068621898AB
:103CBC0054F820002860189854F82000686518986B
:103CCC0054F82000686502982865019828650298C8
:103CDC00686001986860029828620198686201988F
:103CEC0028605FEA884033D40B9800F0B9FA00BF23
:103CFC00012000F0B5FA019868600298286000BFB6
:103D0C0000BF00BF00BF00BF00BF00BF00BF00BFAF
:103D1C0000BF029868600198286008F10108CC483F
:103D2C000178491C0170C9B2022905D3032903D3B8
:103D3C00042924BF002101700498E96A08401190FD
:103D4C0011980028CDD020686168084313902FE0AB
:103D5C00002013A916AA04AB27464FF0020C4FF40F
:103D6C00005E3E68D7F8049059EA0606D3F8009036
:103D7C0010D05FEAC97A44BFDFF8D8A22AF810E065
:103D8C0002D45FEAC67A01D5401CC0B276084FEA6D
:103D9C005909EED142F8049B41F8046B08371B1DFE
:103DAC00BCF1010CDDD1002004900C9005900D901D
:103DBC000B9800F055FA00208DF8400000210746C2
:103DCC0013AA04AB0A9316AB099311AB08930CAB73
:103DDC009D4E079606941668002E7BD00A9E366878
:103DEC000F96002E76D0089ED6F800E0CDF838E07D
:103DFC00079ED6F800C0079E766846EA0C064FF080
:103E0C0000094FEA471C4FEA5C0ACDF854A00AE0BF
:103E1C005FEACA7C01D5401CC0B24FEA5E0E4FEA85
:103E2C005A0CC2F800C0DDF824C0CCF800E0D2F87F
:103E3C0000A0BAF1000F32D0DDF824C0DCF800C0CD
:103E4C00BCF1000F2BD05FEACE7C04D4E0E7491C18
:103E5C00760809F10109002EDDD05FEAC67CF7D5A2
:103E6C00C9B28842F3D1D3F800C04FF0010B0BFA62
:103E7C0009FB2CEA0B0CC3F800C0DDF854C05FFA48
:103E8C0089F90CEB690BDFF8CCC12CF81B801EF008
:103E9C00FE0CC0D14FF0010B8DF840B0BBE70F9E6C
:103EAC00DDF838E026EA0E06DDF828E0CEF80060F2
:103EBC00089E4FF0000EC6F800E0C2F800E09DF836
:103ECC004060012E18D104A850F82700002828D1F2
:103EDC00F04626E0069E3668DDF818E0DEF804E0D1
:103EEC004EEA060E03E0009E009E4FEA560ECDF8F9
:103EFC0000E0009E002EF6D17F1C069E083606962A
:103F0C00079E083607961B1D089E361D0896099EAF
:103F1C00361D09960A9E361D0A96121D022FFFF6B3
:103F2C005AAF012000F09CF9049800287FF4D9AE18
:103F3C00059F494E002F55D0189854F82000686200
:103F4C00189854F820002860189854F820006865D8
:103F5C00189854F82000686502970D980190029803
:103F6C003065019830650298706001987060029815
:103F7C00306201987062019830605FEA88403FF5CA
:103F8C00E7AE0B9800F06CF900BF012000F068F967
:103F9C00019870600298306000BF00BF00BF00BF86
:103FAC0000BF00BF00BF00BF00BF00BF0298706021
:103FBC000198306008F1010825480178491C01700E
:103FCC00C9B2022905D3032903D3042924BF002134
:103FDC000170F06A38401290CFD0A068E1680843B5
:103FEC001490E5E6039880687062039880683060EE
:103FFC00039880687065039880687065189854F809
:10400C0020006862189854F820002860189854F81A
:10401C0020006865189854F820006865039880683B
:10402C0070620398806830600398806870650398AC
:10403C00806870650B9800F013F919B0BDE8F08F2B
:10404C00E01A0020B21C0020F01A0020100C0E40C8
:10405C00CF030020D0160020100E0E40F8B50446F9
:10406C000D460026754F387838B1304600F0FCF814
:10407C00761C3878F6B28642F7D37148002101815C
:10408C0004612846BDE8F24000F010BB44F2045134
:10409C000180002141804FF488618180704738B5E0
:1040AC000024664D287838B1204600F0DDF8641CF9
:1040BC002878E4B28442F7D331BD10B55F480021B3
:1040CC000170604801705E4C0420607014202071F7
:1040DC0005206071E1701420A07001202070032075
:1040EC00A07100F0E8FA0020E06010BD2DE9F0416D
:1040FC0000250027DFF85081A8F88C50504E3189EC
:10410C00411A89B2308108F28C025088091889B2A0
:10411C00C82908D3C8230846B0FBF3F007464FF66E
:10412C00387303FB001151804848027822B1FFB26A
:10413C00BA4234BF0022D21B027045480068800886
:10414C0000F07F70B0F1007F02D0B0F1017F01D19F
:10415C0000F0C1FAF068010018BF80470024374E08
:10416C00307890B1F9B2204600F01DF90543611C7E
:10417C003078CCB28442F5D3EDB235B1B8F88C00BE
:10418C004FF480710843A8F88C00404604210022AB
:10419C0080F88020401C491EFAD100203178A1B152
:1041AC002C4A137818252B420AD008EBD00393F82D
:1041BC008050012600F00707BE40354383F880503D
:1041CC00401C0832C0B28842EBD3B8F88C00BDE872
:1041DC00F08138B5034600201E4901EBC304617918
:1041EC00E278174D2D5642FA05F5EDB2042D38BF85
:1041FC000425124A127893421ED22079C022104212
:10420C0013D1084600F03EFAC5EBA501814203DA52
:10421C00217901F0FB012171694209B281420BDB6A
:10422C00217941F00401217132BD00F0FB002071B5
:10423C002A46184600F09EFA32BD0000BC1A002037
:10424C00001B0020B31C0020D0160020BD1A00203B
:10425C0040070E40D0150020EFF3108070477047D8
:10426C0080F310887047704710B5044600F00AF8C8
:10427C00DFF82404012100F8341000EBC4000F21F6
:10428C00417010BD30B4DFF8103403EBC004627918
:10429C00A179022503F83050DFF80004038843F0BD
:1042AC00020303800020A07091420ADBDFF8F03398
:1042BC00D018001D802300F8013B521CD2B2914251
:1042CC00F9DA30BC7047F0B4DFF8CC1301EBC00066
:1042DC0081794279DFF8C4331D88914220DBDFF805
:1042EC00C47307EB420407EB4206378890F801C011
:1042FC00BCF10A0F0AD2B4F840C0674538BFACF124
:10430C00010703D3BC4505D267467F1CA4F8407057
:10431C0045F00805521CB61CA41CD2B29142E4DA3A
:10432C001D80F0BC7047F0B5DFF870231388DFF800
:10433C00704304192779DFF86CC30CEB4005B5F812
:10434C0040603CF810E0764512D2C8192071D6496D
:10435C0049798039C0B2C9B2884222D380202071F9
:10436C00B5F84000401CA5F8400043F0080318E0E5
:10437C00B6450DD2781A2071CB490979C1F180016B
:10438C00C9B2C0B281420CD380202071701EEAE702
:10439C00812F24BF781E2071207980283CBF401CBF
:1043AC0020711380F0BD2DE9F04F83B081460F468C
:1043BC0000208DF8080000244846FFF70AFF064647
:1043CC00CB46DFF8D48208EBCB05E878297901F0ED
:1043DC000301491CC840022838BF0220E978091A99
:1043EC0089B218F83B0001280DD0022822D00428ED
:1043FC0055D0082800F00681102800F0BA8020283B
:10440C0000F01D813AE10124A44E30884FF4007174
:10441C00084330804846FFF756FF6878401E6870A6
:10442C00C0B210B94846FFF72DFF9D489E498978C8
:10443C00417023E1287940070CD5687998494018D8
:10444C000471202008F83B000124944E308840F47D
:10445C00805012E1002E48BF0026B6B2E8788642A2
:10446C0006DB042008F83B00AC7001248B4E01E104
:10447C00002F00F003818A484078002840F0FE802D
:10448C0095F806906E79B145C0F2F8803946304601
:10449C00FFF749FF761CF6B2B145F7DAEEE03000D3
:1044AC0048BF002080B2E97888425EDBDFF8F8A1D3
:1044BC007B489AF802104170A878401CA8702879A3
:1044CC00C0F3C200019070B3002775480078012832
:1044DC0029DB5F451ED008EBC70000900079C0F3C4
:1044EC00C2000199C9B2884214D13846FFF771FE57
:1044FC00E978711A009AD278801A814204DAAC7089
:10450C0001208DF8080005E018F837001028F6D0C7
:10451C000828F4D0781CC7B2614800788742D8DBF1
:10452C009DF8080040B99AF8010028B101245B4EAF
:10453C00308840F400603080A8789AF801108842E6
:10454C00C0F09C80554E308840F003003080102025
:10455C0008F83B00002068702879C021084200F060
:10456C008D80484600F036FA88E04846FFF78AFE10
:10457C0084E0287940070ED5687949494018802194
:10458C000171202008F83B000124444E308840F48F
:10459C008050308049E7300048BF00203F4E3288C1
:1045AC0080B2884206DA082008F83B00012442F465
:1045BC008060EEE742F001003080A878DFF8E8B0C8
:1045CC009BF8011088423CBF401CA8702879C02180
:1045DC0008421CBF484600F023F99BF80300002852
:1045EC003FF423AF697881423CBF78186870FFF4C0
:1045FC001CAF4846FFF738FE012430884FF4007199
:10460C000843C6E72648284A92784270A8780028C2
:10461C00ABD0300048BF0020204E328880B281429F
:10462C00BEBF102008F83B0042F00100A4BF0124DB
:10463C0042F480603080A878401EA8701EE0687933
:10464C00174940180179491C01712879400705D494
:10465C0008068AD5102008F83B000FE00F4E1248D0
:10466C008079C9B2814204D34846FFF7FDFD01248D
:10467C00ECE60124308840F480603080204603B0A2
:10468C00BDE8F08F074901EB4002B2F9402031F947
:10469C001000101A00B27047D01500205C170020D3
:1046AC00BC1A0020D0160020001B002080B5010091
:1046BC0018BF804701BD134800F1100102220023EE
:1046CC0040F8043B40F8043B41F8043B41F8043B00
:1046DC00521EF5D1704710B50A4C2068A1680843EA
:1046EC0005D00948016808001CBF00208847606895
:1046FC00E168084305D00448016808001CBF01208C
:10470C00884710BDE01A0020101B00202DE9F04155
:10471C00069C079DCF4E3778DFF83CC30CEBC70CDB
:10472C008CF8033000238CF80430CC4B93F800E069
:10473C008CF807E09CF8048062F3C5088CF80480C0
:10474C008CF805008CF80610C54800EB8E0069014A
:10475C0081700EF1010018709CF8040064F30100E4
:10476C008CF8040040F080008CF80400781C307049
:10477C00BDE8F08138B504460846154600F036F918
:10478C00B748B0F920100A46B0F922309342B8BFAE
:10479C001A46B0F924009042B8BF02465918401886
:1047AC00694209B200B2814206DBAB4901EBC4019C
:1047BC000B7943F004030B71A2EB8201081800B2D1
:1047CC0032BD0023521C49B94FF6FF73D2B20AB165
:1047DC004FF6FF7398B27047521E40005FEA004CD0
:1047EC0002D4D2B2002AF7D15FEA014C12D5D2B270
:1047FC00002AEFD05FEA034CEAD45B00521E80B271
:10480C0089B2884224BF401A5B1C4908D2B2002AE4
:10481C00F0D1DFE7521C49005FEA014CFAD5E6E71C
:10482C002DE9F84F00268C4901EBC00999F807A037
:10483C00DFF82CB20BEB8A07B878400900F10108BD
:10484C0099F8050000F0D2F8BBF92420BBF922102E
:10485C00BBF920408C420BDB914204DB4FF48055BA
:10486C00084613460BE0002520460B46144606E08E
:10487C00A242F3DB4FF40055104623460C460C22A3
:10488C002118A1EB430189B2C01A80B2FFF799FF3E
:10489C00401985B242F6FF70ADF800004FF440505D
:1048AC0099F8049009F0C001802916D1A5F267206F
:1048BC0042F63231884228BF012608D240F23370CA
:1048CC00854223BF40F23270281A85B2002542F28D
:1048DC009B10ADF80000002E7AD14FF480745FFA73
:1048EC0088F2082A05D2C2F10801C9B26408491E2F
:1048FC00FCD121464E1E052A38BF490002D3072A97
:10490C0028BF49080022FFF75CFF09F0C0014029CD
:10491C0016D13BF82A10B1F5C05F08D3A1F5C051F0
:10492C0089B28D420CDA05F540518DB208E001F5E3
:10493C00C05292B2AA42BCBF01F540512BF82A10CA
:10494C00B978CA0705D501F0FE00B8700021002027
:10495C0004E0890746BF0146002000213BF82A20CD
:10496C0051188D42A4BFB87800F0FD0005DA40194B
:10497C00824205DBB87840F00200B8702BF82A5060
:10498C003BF82A00B0F5405F24BFA0F540502BF84F
:10499C002A0000222146BDF80000FFF712FF00227A
:1049AC0001463BF82A00FFF70CFF0146F0B28842A3
:1049BC0038BF01462B48504490F88420CBB29A4221
:1049CC0006D080F884102848018841F00401018049
:1049DC00BDE8F18F204901EBC000C079204901EB03
:1049EC008000817841F0010181707047F8B5044670
:1049FC001C4E06EB440505F240070C22B5F840109E
:104A0C007888FFF7DEFE06EB44060C220146708820
:104A1C00FFF7D7FEADF800000C22B5F84010B888AF
:104A2C00FFF7CFFE01460C22B088FFF7CAFE064600
:104A3C00ADF802600A4F2046FFF724FE3884B5F823
:104A4C004000BDF90010411A7984801BB884F1BD77
:104A5C0000000000BC1A0020D0150020B31C002060
:104A6C00BC190020D01600205C17002095489649F0
:104A7C0008600420954908604FF4807094490860E0
:104A8C0094489549086095480068C007FBD5924842
:104A9C00006893490843904908609248924908601D
:104AAC008E4800688007FBD54FF400708F49086072
:104ABC0042F211008E490860884800680007FBD557
:104ACC0042F212008A490860844800680007FBD54E
:104ADC008848006850F44410864908607F48006894
:104AEC004006FBD5704700208349086000208349AD
:104AFC00086041F26F7082490860002081490860AB
:104B0C00032081490860704780B57B4800687F4965
:104B1C000968401A012817D07D480068401C7C4960
:104B2C0008607C48006850F020007A4908607A4898
:104B3C000078C00708D57948FCF77AFA7448006801
:104B4C00FCF796FAFCF786FA6B4800686F49086028
:104B5C007348006830F4801071490860714800682F
:104B6C0030F004006F4908606A48006850F08040DB
:104B7C006849086067480068400001D530BFF9E714
:104B8C0001BD69486949086069486A49086070470D
:104B9C0080B569486949086069486A4908606A488B
:104BAC006A4908606A486B49086000206A490860D5
:104BBC0000206A4908606A486A4908606A486B497B
:104BCC0008604FF4C0606A4908607FF4C0606949AE
:104BDC0008605FF0FF306849086000206749086092
:104BEC005FF0D850664908600020664908600020D4
:104BFC00654908600020654908606548654908609A
:104C0C000020654908606548654908606548664943
:104C1C000860664866490860664867490860002075
:104C2C006649086000206649086066486649086065
:104C3C00664867490860002066490860664867490D
:104C4C0008606548664908605FF4001065490860B3
:104C5C005448654908600020644908600020644994
:104C6C0008600020634908606348644908600020BC
:104C7C006349086000F00BF862480068C00705D46F
:104C8C002448006850F080702249086001BD5FF034
:104C9C0001105D49086000205C49086003205C49F4
:104CAC00086041F270705B49086041F270705A49BB
:104CBC00086042F6E0605949086042F6E0605849E5
:104CCC000860704773EDFC2710040E4040040E4042
:104CDC0000040E4009F0370020040E4068040E401A
:104CEC0000003701013F072028040E4000080E4049
:104CFC0030040E401C040E40101C0020141C00201C
:104D0C0014E000E018E000E010E000E01C1C0020C3
:104D1C00181C0020F81B0020BC1B00202C020020BB
:104D2C0070040E4010ED00E00085011054120E408E
:104D3C00010000A550120E40FF0123E4000C0E40B0
:104D4C0000FEDC1B040C0E40D5D755BF100C0E40DA
:104D5C002A28AA40140C0E40200C0E40240C0E40A5
:104D6C0000000188300C0E40D5010034340C0E408C
:104D7C00500C0E40540C0E40600C0E40640C0E4057
:104D8C00700C0E40800C0E40840C0E408C0C0E40AF
:104D9C00FF0101B4A00C0E40A40C0E40E7FFBF01B4
:104DAC00000E0E4018004000040E0E4066F59F01E8
:104DBC00100E0E40990A4000140E0E40200E0E40AC
:104DCC00240E0E4000D0A101300E0E4066251E00B0
:104DDC00340E0E40500E0E40FFFFDF01540E0E40FD
:104DEC00600E0E40640E0E40700E0E40800E0E4093
:104DFC00840E0E408C0E0E40E6FF1F00A00E0E40DF
:104E0C00A40E0E403C0E0E4000C0084020C00840CE
:104E1C0000C208400CC2084010C2084004C208403E
:104E2C0008C2084000000000000000040404040054
:104E3C0000040A0A0A000000000A0A1F0A1F0A0AD4
:104E4C00041E050E140F0403130804021918060996
:104E5C0005020509160604020000000008040202FF
:104E6C00020408020408080804020004150E1504C4
:104E7C00000004041F0404000000000006040200EB
:104E8C0000001F00000000000000000606001008D3
:104E9C00040201000E11191513110E04060404046A
:104EAC00040E0E11100804021F1F08040810110E26
:104EBC00080C0A091F08081F010F1010110E0C0214
:104ECC00010F11110E1F1008040202020E11110E17
:104EDC0011110E0E11111E10080600060600060612
:104EEC000000060600060402080402010204080081
:104EFC00001F001F0000020408100804020E11100D
:104F0C00080400040E11101615150E0E11111F11A8
:104F1C0011110F11110F11110F0E11010101110EB1
:104F2C00070911111109071F01010F01011F1F01B1
:104F3C00010F0101010E11011D11110E1111111F93
:104F4C001111110E04040404040E1C0808080809AD
:104F5C0006110905030509110101010101011F11C8
:104F6C001B1515111111111113151911110E111108
:104F7C001111110E0F11110F0101010E111111154B
:104F8C0009160F11110F0509111E01010E10100F3A
:104F9C001F0404040404041111111111110E111138
:104FAC001111110A041111111115150E11110A0408
:104FBC000A11111111110A0404041F100804020132
:104FCC001F0E02020202020E000102040810000E63
:104FDC0008080808080E040A110000000000000070
:104FEC000000001F0204080000000000000E101E4C
:104FFC00111E01010F1111110F00000E0101110EF4
:10500C001010161911111E00000E111F010E0C129A
:10501C000207020202001E11111E100E01010D13D7
:10502C001111110400060404040E08000C080809F0
:10503C0006010109050305090604040404040E0015
:10504C00000B1515111100000D1311111100000E9C
:10505C001111110E00000F110F0101000016191E85
:10506C00101000000D1301010100000E010E100FB5
:10507C000202070202120C00001111111916000095
:10508C001111110A040000111111150A0000110A66
:10509C00040A11000011111E100E00001F0804025A
:1050AC001F08040402040408040404040404040295
:1050BC00040408040402121509000000001F1F1F3D
:1050CC001F1F1F1F012110F01F029140864A40B282
:1050DC00430942F823107047012110F01F02914040
:1050EC00824A40B2430942F82310704738B5002475
:1050FC0000250020C0B202280DDA00217F4AC0B280
:10510C00815400217A4AC0B2815400217C4AC0B239
:10511C008154401CEEE70020C0B202281ADA79490B
:10512C00C0B211EB40014978002905D17649C0B2D3
:10513C0051F820100C430BE07249C0B211EB400146
:10514C004978802904D17049C0B251F820100D4320
:10515C00401CE1E76D4804606D4805606D480068CF
:10516C0004006D48006805000A20FFF7B5FF0B200E
:10517C00FFF7B2FF0A20FFF7A5FF0B20FFF7A2FFF6
:10518C000FF24900654908606548006850F002005C
:10519C00634908606348FBF74BFF31BD80B55F483E
:1051AC000068804701BD0200D2B2022A0CDA5548D1
:1051BC00D2B210EB42004078C9B2884204D15248B6
:1051CC00D2B250F8220000E0002070470020C0B29C
:1051DC0002280ADA4949C0B2415C002903D00FF217
:1051EC000D014E4A1160401CF1E7704770B54E48F6
:1051FC004A4908600026F6B2022E74DA4B4841493F
:10520C00F6B211EB4601497810EB810004003F48DF
:10521C003C49F6B211EB4601497810EB81000500D0
:10522C003648F6B2305C00285BD041483B490860F8
:10523C0019214048F6B210EB8600FBF789FE0028D6
:10524C004FD03048F6B210F81600002811D1206863
:10525C00C0432D49F6B251F82610084204D0012063
:10526C002749F6B2705414E000202549F6B2705468
:10527C000FE020682449F6B251F82610084204D0F9
:10528C0001201F49F6B2705403E000201C49F6B20D
:10529C0070541B48F6B2305C1549F6B2715C88420A
:1052AC0014D01748F6B2305C1149F6B2705410485D
:1052BC00F6B2305C012809D101200E49F6B27054C7
:1052CC001D4800680C49F6B241F8260000200B4935
:1052DC00F6B2705428680C49F6B251F826100843FF
:1052EC002860761C87E770BD00E100E080E200E0FA
:1052FC00961C00209A1C0020441B0020941C0020AB
:10530C00981C0020C00300201C610800400C0E40BB
:10531C00400E0E404C0C0E404C0E0E40B01B0020AC
:10532C00FC1B002034030020D95108003C0C0E401B
:10533C00F95108003C1B0020101C0020012110F02A
:10534C001F029140664A40B2430942F8231070474D
:10535C00012110F01F029140624A40B2430942F809
:10536C002310704710B588B000A85F492022FBF7C6
:10537C001DFE0020C0B2082809DA00A9C0B251F8FD
:10538C0020105A4AC0B242F82010401CF2E7002408
:10539C00E4B21D2C09DA200040B2FFF7CFFF200049
:1053AC0040B2FFF7D5FF641CF2E708B010BD80B522
:1053BC000820FDF7C7FA0920FDF7C4FA0A20FDF70B
:1053CC00C1FA0B20FDF7BEFA0420FDF7BBFA05204D
:1053DC00FDF7B8FA0620FDF7B5FA0720FDF7B2FA8B
:1053EC000120FDF7AFFA0220FDF7ACFA0320FDF720
:1053FC00A9FA0020FDF778FAFEE73D480068401C4A
:10540C003B4908603B48006830F0804039490860EF
:10541C0039480088401E38490880374800880028E1
:10542C0008D14FF47A703449088034480068401C25
:10543C00324908607047F8B531480068040014F42C
:10544C0000300500002D1CD00027FFB2022F18DA07
:10545C0000213800C0B2FFF7A6FE060035420ED080
:10546C002848006830432749086001202649FFB2CC
:10547C0078541F4800682549FFB241F827007F1C6B
:10548C00E3E70A20FFF764FFF1BDF8B52048006898
:10549C00040014F001000500002D1CD00027FFB201
:1054AC00022F18DA80213800C0B2FFF77CFE06000C
:1054BC0035420ED017480068304316490860012069
:1054CC001149FFB278540A4800681049FFB241F8FC
:1054DC0027007F1CE3E74FF4006002490860F1BD30
:1054EC0080E100E080E200E0405F080000E400E0C2
:1054FC00101C0020F81B0020CC030020141C0020E2
:10550C004C0C0E40440C0E40941C00203C1B002004
:10551C004C0E0E40440E0E4080B50020FDF712FAE2
:10552C000120FDF70FFA0220FDF70CFA0320FDF71E
:10553C0009FA0420FDF706FA0520FDF703FA062008
:10554C00FDF700FA0720FDF7FDF90820FDF7FAF941
:10555C000920FDF7F7F90A20FDF7F4F90B20FDF708
:10556C00F1F90C20FDF7C0F90FF211004B4908605E
:10557C0001BD80B549480068804701BD80B54848E9
:10558C000088401C4649088045480088B0F5FA7FE1
:10559C0040F0838000204249088042480078401C3B
:1055AC00404908703F48007810282AD100203D4916
:1055BC0008703D4800788000C01CC0B2FDF7C2F9ED
:1055CC00394800788000801CC0B2FDF7BBF9364822
:1055DC0000788000401CC0B2FDF7B4F93248007866
:1055EC00C0B28000C0B2FDF7ADF92F480078401C66
:1055FC002D4908702C480078032802D100202A4934
:10560C00087028480078C00707D527480078800024
:10561C00C01CC0B2FDF768F906E023480078800092
:10562C00C01CC0B2FDF78EF91E480078800707D564
:10563C001D4800788000801CC0B2FDF755F906E0CB
:10564C00194800788000801CC0B2FDF77BF9154822
:10565C000078400707D5144800788000401CC0B281
:10566C00FDF742F906E0104800788000401CC0B2FB
:10567C00FDF768F90B480078000707D50A48007851
:10568C00C0B28000C0B2FDF72FF906E006480078E2
:10569C00C0B28000C0B2FDF755F901BD8C1C0020D2
:1056AC009E1C0020B01C0020B11C0020E0B500F0B6
:1056BC0043F8012801D0002038E0FEF7FEFC002062
:1056CC00029007200190002000903223002202213A
:1056DC000020FFF71BF8002002900720019000200B
:1056EC0000903223002215211320FFF70FF84549B3
:1056FC004548FEF7B3FCFEF7D2FC00F065F800203D
:10570C004249086000204249086000203B4908706B
:10571C0000203B4908700FF2DD00374908603D4816
:10572C00006850F020003B49086001200EBD80B598
:10573C0031480068804701BD1CB500240020FEF7ED
:10574C00D5FC00A8FEF7A2FCBDF80000C00703D4EE
:10575C003148FBF76DFC03E03048FBF769FC641C37
:10576C00BDF80000C0F3C60080B2202800D0641C35
:10577C00BDF80000C0F3802080B2002804D1284876
:10578C00FBF756FC641C02E02648FBF751FCBDF805
:10579C00000080B2C00A80B2082800D0641C2248E5
:1057AC00FBF746FCBDF80400FBF762FCFBF752FC70
:1057BC00BDF80400B0F5886F00D0641C002C01D13A
:1057CC00012000E0002016BD042018494870142068
:1057DC001649087105201549487100201349C870F5
:1057EC0014201249887001201049087003200F49B9
:1057FC008871704770470000B41B0020A41C002067
:10580C00A51C00209D590800993B08000C1B00208A
:10581C00B81B0020FC1B0020D4600800C0600800EE
:10582C0058600800B45D0800E4600800001B00200C
:10583C00FFFFFFFFFFFF03FFFFFFFFFFFF03FFFF64
:10584C00FFFFFFFF03FFFFFFFFFFFF03FFFFFFFF54
:10585C00FFFF03FFFFFFFFFFFF03FFFFFFFFFFFF44
:10586C0003FFFFFFFFF0FF03FFFFFF7FE0FF03FFDE
:10587C000F0000C6FF03FF0F0000CFFF03FF0F0058
:10588C0000CFFF03FF0F0000C6FF03FF0FFF7FE0F9
:10589C00FF03FF0FFFFFF0FF03FF0FFFFFFFFF03EF
:1058AC00FF0FFFFFFFFF03FF0FFFFFFFFF03FF0FC4
:1058BC00FFFFFFFF03FF0FFFFFFFFF03FF0FFFFFC4
:1058CC00F0FF03FF0FFF7FE0FF03FF0F0000C6FF99
:1058DC0003FF0F0000CFFF03FF0F0000CFFF03FFFC
:1058EC000F0000C6FF03FF0FFF7FE0FF03FF0FFF5A
:1058FC00FFF0FF03FF0FFFFFFFFF03FF0FFFFFFF93
:10590C00FF03FF0FFFFFFFFF03FF0FFFFFFFFF036F
:10591C00FF0FFFFFFFFF03FF0FFFFFFFFF03FF0F53
:10592C00FFFFF0FF03FF0FFF7FE0FF03FF0F0000FF
:10593C00C6FF03FF0F0000CFFF03FF0F0000CFFFD8
:10594C0003FF0F0000C6FF03FFFFFF7FE0FF03FF15
:10595C00FFFFFFF0FF03FFFFFFFFFFFF03FFFFFF52
:10596C00FFFFFF03FFFFFFFFFFFF03FFFFFFFFFF33
:10597C00FF03FFFFFFFFFFFF03FFFFFFFFFFFF031F
:10598C00FFFFFFFFFFFF03FFFFFFFFFFFF03000011
:10599C002DE9F041002400252646FEF78CFE4A48EE
:1059AC000078B8B149494A780B78C0273B4202BF0E
:1059BC00012303FA02F2154309D08B78934206DBDC
:1059CC00012797403E43521CD2B29342F8DA083179
:1059DC00401EE8D100213E480023012202FA01F7C3
:1059EC003E4249D0202930D250F824303B4340F875
:1059FC0024304F1C01F1010CBCF1200F3EBF02FA08
:105A0C0007F73B4340F824300AD300EB8403D3F868
:105A1C0008C007F01F0702FA07F747EA0C079F6058
:105A2C008F1C8B1C202B06D250F82430BA401A4302
:105A3C0040F824201EE000EB8403D3F808C007F0E4
:105A4C001F07BA4042EA0C0213E000EB840301F09A
:105A5C001F0C9F6802FA0CFE0CF1010802FA08F800
:105A6C0048EA0E0E0CF1020C02FA0CF242EA0E029B
:105A7C003A439A60891C12E03D4211D020293EBF66
:105A8C0050F824203A4340F8242008D300EB840338
:105A9C009F6801F01F0C02FA0CF23A439A60012342
:105AAC00002C0CBF1C460024491CC9B2202993DBD6
:105ABC00084902680A6042684A6082688A60C06865
:105ACC00C860BDE8F08100BFBC1A0020D4150020CE
