:020000040008F2
:100000000020082065010800BF000800C1000800AA
:10001000C3000800C5000800C70008000000000079
:10002000000000000000000000000000C9000800FF
:10003000CB00080000000000CD000800CF00080041
:10004000D1000800D3000800D5000800D700080040
:10005000D9000800DB000800DD000800DF00080010
:10006000E1000800E3000800E5000800E7000800E0
:10007000E9000800EB00080000000000ED000800A7
:10008000EF000800F1000800F3000800F500080088
:10009000F7000800F9000800FB000800FD00080058
:1000A000FF00080001010800030108000501080025
:0C00B0000701080009010800BD0008005D
:1000BC00FEE7FEE7FEE7FEE7FEE7FEE7FEE7FEE70C
:1000CC00FEE7FEE7FEE7FEE7FEE7FEE7FEE7FEE7FC
:1000DC00FEE7FEE7FEE7FEE7FEE7FEE7FEE7FEE7EC
:1000EC00FEE7FEE7FEE7FEE7FEE7FEE7FEE7FEE7DC
:1000FC00FEE7FEE7FEE7FEE7FEE7FEE7FEE70000B1
:10010C0000F00CF8002801D0C046C0460020C046C4
:10011C00C04600F00DF800F00CF80000024903484E
:10012C0001600120704700BF0000080008ED00E0EE
:10013C00FEE700F001B800000746384600F002F870
:10014C00FBE7000080B5C046C046024A11001820EB
:10015C00ABBEFBE726000200C046C046C046C04608
:04016C00FFF7CEFFCC
:040000050008016589
:00000001FF
