:020000040008F2
:1000000000200820912C0800E10708009327080031
:10001000E3070800E5070800E70708000000000004
:10002000000000000000000000000000E9070800D8
:10003000EB07080000000000ED070800C7270800D4
:10004000EF070800F1070800F3070800F5070800AC
:10005000F7070800F9070800FB070800FD0708007C
:10006000AD130800FF070800032808005728080000
:1000700001080800CB130800C7010800F1010800BF
:100080000308080005080800792008000708080090
:10009000090808000B0808000D0808000F080800F0
:1000A00011080800130808001508080017080800C0
:0C00B000190808001B080800DF07080002
:1000BC0070B5DFF88006DFF8681608600020DFF8FE
:1000CC00601648600020DFF8581688620020DFF8C0
:1000DC005016C8610020DFF8481688840020DFF82D
:1000EC00401608620020DFF8381608610D20DFF892
:1000FC00301681F82600DFF84006DFF82816086075
:10010C000020DFF8201648600020DFF818168862FF
:10011C000020DFF81016C8610020DFF8081688846C
:10012C000020DFF8001608620020DFF8F8150861DF
:10013C000E20DFF8F01581F82600DFF80006DFF856
:10014C00E81508600020DFF8E01548600020DFF8B3
:10015C00D81588620020DFF8D015C8610020DFF8C0
:10016C00C81588840020DFF8C01508620020DFF86D
:10017C00B81508610F20DFF8B01581F82600DFF8FC
:10018C00A005DFF8BC1508608024FF25DFF8A0650A
:10019C002A002100300000F0E9FA0FF2C530DFF838
:1001AC008C150860DFF89C0500F032FB70BD80B543
:1001BC00DFF878050068804701BD80B5DFF864057D
:1001CC00DFF884150860DFF88805DFF88015086013
:1001DC00DFF880050068401CDFF87815086000F037
:1001EC0016F801BD80B5DFF84005DFF85C15086036
:1001FC00DFF86405DFF854150860DFF86005006867
:10020C00401CDFF85815086000F001F801BD70B50E
:10021C00DFF834050068006840690600DFF828053F
:10022C00006800680069000338D5300336D5DFF864
:10023C00180500684068C06BDFF80C150968896800
:10024C00084214D1DFF804050068006850F0010082
:10025C00DFF8F81409680860DFF8F004006800683B
:10026C0030F00600DFF8E4140968086016E0DFF8E7
:10027C00DC040068006840084000DFF8D01409680E
:10028C000860DFF8C4040068407B012806D1012017
:10029C00DFF8B41409680968C1F80401DFF8A80490
:1002AC00006800680069800570D5B0056ED5DFF870
:1002BC0098040068C06A401EDFF88C140968C86294
:1002CC00DFF884040068006880690400DFF87804B3
:1002DC000068C06A002825D0DFF86C040068006B49
:1002EC00401CDFF8641409680863DFF85C040068DC
:1002FC00006B00780400DFF850040068007B0128D4
:10030C0003D194FAA4F0000E04002000C0B2DFF870
:10031C00381409680968C861DFF82C040068406962
:10032C00804733E04FF40070DFF81C14096809684B
:10033C00C860DFF814040068006930F40010DFF8BE
:10034C000814096808610421DFF8FC030068806A5E
:10035C00006800F07FFEDFF8F0030068283000F042
:10036C0010FE0120DFF8E013096809688860DFF8E7
:10037C00DC030068006850F00200DFF8D013096855
:10038C000860DFF8C403006840698047DFF8B803F1
:10039C00006800680069C00737D5DFF8AC03006857
:1003AC0000684069C00730D5DFF89C03006800681E
:1003BC008069C0B20400DFF890030068007B01285C
:1003CC0003D194FAA4F0000E04002000C0B2FF2860
:1003DC0006D1DFF88C030068401CDFF8841308603A
:1003EC00DFF864030068006A00680470DFF85C03DF
:1003FC000068006850F00400DFF8501309680860CA
:10040C00DFF84403006880698047DFF83C0300682C
:10041C0000680069000760D530075ED5DFF8280357
:10042C000068407B002829D10421DFF81C030068F8
:10043C00806A006800F00EFEDFF80C0300682830BC
:10044C0000F09FFDDFF800030068006930F48000C5
:10045C00BD4909680861BC4800688068BA490968E8
:10046C00496808630220B84909680968C1F8200185
:10047C000820B54909680968C8602EE0B3480068CF
:10048C00006850F00400B14909680860AE48006883
:10049C000068D0F81001401CAB4909680968C1F824
:1004AC001001A94800680068D0F80001A649096845
:1004BC00C969A54A1268928C5118884207D1A24882
:1004CC000068C069A04909680968C1F800010120E9
:1004DC009D4909680968C1F814019B4800680068C7
:1004EC000069C00639D5F00637D504219648006856
:1004FC00806A006800F0AEFD93480068283000F078
:10050C0040FD91480068006930F400108E4909687C
:10051C0008614FF400708C4909680968C1F8200122
:10052C001020894909680968C860002005008648C0
:10053C00006800684069800503D4642D01D26D1CED
:10054C00F5E781480068407B002806D17E480068AA
:10055C0080687D4909684968086370BD0000000027
:10056C0010B577480068806A002800F0B5807448A0
:10057C000068006910F4C00F40F0AE80704800684D
:10058C00407B002806D16E48006880686C49096879
:10059C00496848636A480068806A08306449884240
:1005AC002CD1032166480068806A006800F052FD77
:1005BC0063480068006950F480006149096808616B
:1005CC005F480068806A08305D4909680968C1F8AD
:1005DC0000015B480068806A4068594909680968ED
:1005EC00C1F804010820564909680968886001208F
:1005FC00534909680968C1F820016DE0022150488F
:10060C000068806A006800F025FD4D4800680069AC
:10061C0050F400104A490968086149480068407B59
:10062C0002283BD146480068806A40684449096802
:10063C00C86243480068806A083041490968086309
:10064C003F480068006B007804003D480068007B60
:10065C00012803D194FAA4F0000E040008203849B4
:10066C00096809680860402035490968096808600C
:10067C002000C0B2324909680968C86101203049BC
:10068C0009680968C8604FF400702D490968096849
:10069C0088602B480068406980471DE02848006846
:1006AC00806A0830264909680968C1F8080124489D
:1006BC000068806A4068224909680968C1F80C0121
:1006CC0010201F490968096888604FF480701C4924
:1006DC0009680968C1F820011948006890F82600DB
:1006EC000D2804D015D30F2809D004D311E00D48E0
:1006FC001349086013E00C48114908600FE00848E2
:10070C000F49086017480068400840001549086008
:10071C0005E0154800F07CF801480949086010BD57
:10072C0034100020681000209C10002008120020BB
:10073C00740F00200000094000400940008009406F
:10074C00101200207001002014120020181200203A
:10075C00001200201C120020041200202012002085
:10076C00241200200C1200208801002062F30F22BA
:10077C0062F31F42401810F0030308D0C91A1FD3AC
:10078C00DB0748BF00F8012D28BF20F8022D13000D
:10079C0030B414461546103928BF20E93C00FAD86D
:1007AC00490728BF20E90C0048BF40F8042D8900F8
:1007BC0028BF20F8022D48BF00F8012D30BC70472F
:1007CC00C91818BF00F8012DCB0728BF00F8012D60
:1007DC007047FEE7FEE7FEE7FEE7FEE7FEE7FEE713
:1007EC00FEE7FEE7FEE7FEE7FEE7FEE7FEE7FEE7D5
:1007FC00FEE7FEE7FEE7FEE7FEE7FEE7FEE7FEE7C5
:10080C00FEE7FEE7FEE7FEE7FEE7FEE7FEE7FEE7B4
:10081C0070B50400250000262878002802D0761C2C
:10082C006D1CF9E722003100DFF8B005006800F01C
:10083C0027FD70BD80B5DFF8A8050088ADF8000075
:10084C0000AA0221DFF89405006800F019FD01BD33
:10085C002DE9FE43040000250026DFF888850020E2
:10086C00C0B20A2819DAB4FBF8F1303100AAC0B2D0
:10087C00815400A9C0B2415C302901D001210D0086
:10088C00EDB2002D00D0761CB4FBF8F108FB11443E
:10089C000A21B8FBF1F8401CE2E7EDB2002D01D1C2
:1008AC0001200600F6B2300000F0B4FE8146B9F12A
:1008BC00000F08D10220DFF8301508700FF2E94064
:1008CC00DFF828150860092007003000C0B20028A6
:1008DC0009D000A9795CC0B210EB090202F8011C26
:1008EC007F1E401EF2E74A46F6B23100DFF8EC04F8
:1008FC00006800F0C5FC484600F0E4FEBDE8F78354
:10090C0070B5A4B000A8DFF8E814052200F01AFFB7
:10091C0011A8DFF8E014482200F024FF012401257F
:10092C0002A8DFF8D4143C2200F01CFF11A8FFF73A
:10093C006FFF0026F6B2062E12DADFF8C00400684C
:10094C0004420AD10020050002A8F6B20A2101FBDC
:10095C000600FFF75DFFFFF76DFF6400761CE9E70B
:10096C00EDB2002D02D000A8FFF752FFFFF762FF97
:10097C0024B070BD00B585B0002080B2802806D2AE
:10098C000021DFF87C2480B28154401CF5E7DFF8AD
:10099C007004DFF870140860DFF86404DFF8681482
:1009AC000860DFF86804DFF86814086002208DF82E
:1009BC000000DFF84C040190DFF84C04029080201A
:1009CC00ADF802000FF25900039000A800F0A4FB50
:1009DC00DFF808140860DFF804040068002805D16B
:1009EC000FF2C530DFF80414086010E0DFF82404BF
:1009FC00FFF70EFFDFF80404006850F00400DFF886
:100A0C00FC1308600FF2ED10DFF8E013086005B07E
:100A1C0000BD80B5DFF8D4030068804701BD00003D
:100A2C00DFF8E4030068401CDFF8DC130860DFF833
:100A3C00D8030068DFF8E013884204D1DFF8C00364
:100A4C00DFF8C4130860704710B592B00AA8DFF83D
:100A5C00CC13192200F076FE3A208DF802002020EB
:100A6C008DF803000A208DF824000D208DF8250048
:100A7C000AA8FFF7CDFE0024E4B2082C2CDAE4B26D
:100A8C000A2C07DBE4B20A2094FBF0F030308DF82E
:100A9C00000002E030208DF80000E4B20A2094FB44
:100AAC00F0F100FB114030308DF801000020C0B295
:100ABC0020280CDADFF86813E4B251F83410C0B215
:100ACC00415C00AAC0B282181171401CEFE700A86B
:100ADC00FFF79EFE641CCFE7FFF7ACFE12B010BD13
:100AEC0010B584B000A8DFF83C131CC91CC00C392D
:100AFC000C3800A8FFF78CFE1FBD10B584B000A801
:100B0C00DFF824131CC91CC00C390C3800A8FFF7E3
:100B1C007FFEDFF818030078C0070AD5DFF80C0356
:100B2C00006840084000C1490860C148FFF770FEEA
:100B3C0008E0BE48006850F00100BC490860BD48A0
:100B4C00FFF766FE1FBD10B50400E4B2572C02D1AE
:100B5C00002000F0A5FEE4B2502C02D1012000F0E0
:100B6C009FFEE4B2422C02D1022000F099FEE4B2C6
:100B7C00432C02D1032000F093FEE4B2472C02D1A7
:100B8C00042000F08DFEE4B2592C02D1052000F0B7
:100B9C0087FEE4B24F2C02D1062000F081FEE4B2B5
:100BAC00522C02D1072000F07BFE10BD00B589B09D
:100BBC0000A8A149232200F0C5FD00A8FFF728FEDC
:100BCC009A480078C00709D598480068400840004A
:100BDC00964908609648FFF71BFE08E093480068AA
:100BEC0050F00100914908609248FFF711FE09B0DE
:100BFC0000BD000038B500248248006882490968AD
:100C0C00884262D0E4B2002C5FD17E480068007844
:100C1C0005008A480078012803D12800C0B2FFF7EC
:100C2C0092FFEDB22800082802D00D2813D018E04E
:100C3C00774800687549884209D075480068401E9D
:100C4C00734908607E480088401E7D4908807D48B5
:100C5C00FFF7DEFD2BE0012004000FF28100634959
:100C6C0008602900C9B25D48006800F0F1FA6848D4
:100C7C000068057066480068401C6549086070484B
:100C8C000088401C6E490880614800686E498842A3
:100C9C000DD3EDB20D2D0AD05C485D4908600020E3
:100CAC00674908806948FFF7B3FD694908605548F2
:100CBC000068401C534908605248006856498842F5
:100CCC009AD34F484F49086096E76148006800285E
:100CDC0003D05F48006800F0C7F831BD70B501243F
:100CEC00002005004948EDB2285C5A49EDB2695C18
:100CFC00884201D0002004006D1CE4B2002C02D00C
:100D0C00EDB2042DEEDBE4B2002C2ED0002004005A
:100D1C003E48EDB22856303806006D1C76B2002ED7
:100D2C0023D476B20A2E20DA0A2000FB06F04A49B8
:100D3C0008703648EDB22856303806006D1C76B275
:100D4C00002E12D476B20A2E0FDA434800783018EF
:100D5C004149087040480078082806DA2B48EDB263
:100D6C00285C0D2801D101200400E4B2002C04D031
:100D7C000FF21D001D49086005E03848FFF748FDDB
:100D8C0037481A49086021482149086070BD0000A5
:100D9C0080B533481549086021482F49097810EB74
:100DAC00C1004068804701BD80B52048006850F004
:100DBC0000401E4908602B48FFF72AFD0A480078BE
:100DCC00FFF746FDFFF736FD00201D4908800F4850
:100DDC000F49086022480549086001BDB411002084
:100DEC00A229080000CA9A3B56120020B01100201C
:100DFC009C2C0800A4290800EC290800CC11002028
:100E0C00F40E0020C0110020BC110020F40F0020B3
:100E1C00C411002070000020740F0020F82B080073
:100E2C00B4000020782C0800842C0800AC110020A1
:100E3C00E0010020D8010020702B0800F2010020F6
:100E4C0054120020E8010020341000202001002062
:100E5C00B8110020D001002057120020B40100204E
:100E6C00010C0800400100200100FF20944A136887
:100E7C008B4204D0934B9A4201D00C32F7E7914B42
:100E8C009A420BD013791800C0B2042802D0C0B219
:100E9C00052803D10023136000231371C0B27047DF
:100EAC002DE9F84F04000D001600AB465FF0000969
:100EBC00BBF1000F62D084480078401C8249087056
:100ECC00814800780E2806DB8048006850F002004C
:100EDC007E49086005E07D48006830F002007B49DF
:100EEC0008607B4882469AF80000002802D11AF16B
:100EFC00900AF8E700208AF800001AF104000700B5
:100F0C00BBF1810F04D380208146BBF1800B02E042
:100F1C00D946002083466F4800683860C7F80490B3
:100F2C000020C7F8880000207968884205D2317803
:100F3C00C2191172761C401CF6E72068002801D1FA
:100F4C0027600AE020688046D8F88800002802D084
:100F5C00D8F88880F8E7C8F888705E48006800F018
:100F6C0087F85C480068401C5A490860594800687A
:100F7C0000289DD101205749086099E73868BDE8E1
:100F8C00F28F0268002A06D1504A126852F004020D
:100F9C004E4B1A601FE04E4A11000A1D03689A421C
:100FAC0004D04D4A914201D09031F6E74A4A914221
:100FBC0006D1464A126852F00802444B1A600AE005
:100FCC000268D2F88820026001220A703E4A127828
:100FDC00521E3D4B1A70704700203B49087001208F
:100FEC003C490860002080B2102808DA0121384AF8
:100FFC0080B2902303FB00221170401CF3E7002009
:10100C0080B2402816DA00212D4A80B20C2303FB53
:10101C000022116000212A4A80B20C2303FB00221B
:10102C0011710021264A80B20C2303FB002291602F
:10103C00401CE5E722482949086000202349086044
:10104C000FF2610026490860704780B5244800689B
:10105C00804701BD1A4A1368834204D0194B9A4247
:10106C0001D00C32F7E7174B9A4200D01171704740
:10107C001A49096808600121184A12681171194946
:10108C000968164A12689160144909680C31134AB0
:10109C001160124909680B4A914202D108490F4A62
:1010AC001160704710480068401E0F4908600E48D8
:1010BC000068002803D14FF47A700B490860704720
:1010CC00F40A0020F40D002058120020D01100204A
:1010DC00F4010020D8110020F40A0020DC110020BB
:1010EC00D4110020E0110020EC010020012110F0AF
:1010FC001F029140DFF8B42440B2430942F8231098
:10110C007047012110F01F029140DFF8A42440B277
:10111C00430942F8231070472DE9F047040020786A
:10112C00012806D046D3032823D012D3042830D06C
:10113C0040E0DFF88004050050200600DFF878045A
:10114C000700002080465FF0FF3081461A2082465F
:10115C0032E0DFF86804050050200600DFF8580480
:10116C000700082080467FF0080081461A2082463E
:10117C0022E0DFF84C04050060200600DFF8440490
:10118C000700002080465FF0FF3081463020824609
:10119C0012E0DFF83404050050200600DFF82C04C0
:1011AC0007005FF4002080465FF0FF30814600208E
:1011BC00824601E0002049E02879C00701D50020D3
:1011CC0044E0DFF80C040068012195F922209140DD
:1011DC000843DFF8FC130860606868616088288445
:1011EC00A068A861E068E861686850F00100686078
:1011FC0028680660286847602868C0F80880286856
:10120C00C0F80C902868C0F820A060682968C1F864
:10121C0000016068401C2968C1F810010120296890
:10122C00C1F8040101202968C1F8140140F2011031
:10123C002968C1F8200195F9220040B2FFF761FF3F
:10124C0095F9220040B2FFF751FF2800BDE8F08766
:10125C0070B582B004000D008DF8005000AA012179
:10126C0014F10800FFF71CFE0600002E06D0DFF874
:10127C0068030068002801D500F091F8300076BDB5
:10128C00F8B504000D0016003200290014F1080016
:10129C00FFF706FE0700002F06D0DFF83C030068BE
:1012AC00002801D500F07BF83800F2BD0020DFF8F3
:1012BC002C130860DFF82803DFF8F8120860002010
:1012CC00DFF8F01288600020DFF8E8124861002097
:1012DC00DFF8E01208840020DFF8D81288610020C3
:1012EC00DFF8D01248600820DFF8C81281F822001D
:1012FC00DFF8F002DFF8C41208600020DFF8BC123F
:10130C0088600020DFF8B41248610020DFF8AC12CE
:10131C0008840020DFF8A41288610020DFF89C12FA
:10132C0048600D20A54981F82200DFF8BC02A449D1
:10133C0008600020A24988600020A1494861002073
:10134C009F49088400209E49886100209C49486080
:10135C000E209B4981F82200A4489B49086000207C
:10136C009949886000209849486100209649088472
:10137C000020954988610020934948600F209249CC
:10138C0081F822008B489A4908600FF24910914964
:10139C000860704780B58F480068804701BD704772
:1013AC0080B58448934908609348944908609448F0
:1013BC000068401C9249086000F010F801BD80B52F
:1013CC007E488C4908608F488C4908608E480068BC
:1013DC00401C8D49086000F001F801BD80B58548BE
:1013EC00006800680069000738D58248006800680A
:1013FC004069000732D581480068006850F002004F
:10140C007E49096808607B4800680068D0F81001C4
:10141C00401C784909680968C1F8100175480068D2
:10142C000068D0F81001734909684969714A12685B
:10143C00128C5118884207D16E48006840696D497A
:10144C0009680968C1F810016A480068C0698047DA
:10145C000120684909680968C1F8140165480068E9
:10146C0000680069C00632D56248006800684069AF
:10147C00C0062CD504215F48006880680068FFF71F
:10148C00E9FD5C4800680830FFF77BFD59480068AF
:10149C00406830F400105749096848604FF40070F8
:1014AC00544909680968C1F820011020514909689C
:1014BC000968C86055480078002805D05348007862
:1014CC00401E5249087002E05148FFF7A1F901BDD6
:1014DC000000000080B5464800688068002836D0BF
:1014EC00434800684068800231D4022140480068BB
:1014FC0080680068FFF7AEFD3D480068406850F416
:10150C0000103B4909684860394800688068083019
:10151C00374909680968C1F80801354800688068CE
:10152C004068334909680968C1F80C01102030493A
:10153C0009680968886035480078401C3349087090
:10154C004FF480702A4909680968C1F820012848BD
:10155C00006890F82200082806D00D2808D00E2824
:10156C000AD00F280CD01DE01448214908601CE05B
:10157C0013481F49086018E013481D49086014E01F
:10158C000C481B49086014480068002809D51F48FE
:10159C000078002805D111480068400840000F4928
:1015AC00086002E003481249086001BD00E100E058
:1015BC0080E200E0D0100020C0084000F4100020B1
:1015CC0018110020CE1845003C110020FF184100D6
:1015DC0010040E4030120020C811002034120020DC
:1015EC0000060E4000000940004009400080094000
:1015FC00381200203C12002028120020401200203B
:10160C00441200202C120020481200205C120020F2
:10161C00D82B080070B5054605F10F00C408E4008E
:10162C00C046C046A54232D2082C04D2082402E09F
:10163C00083000F047F82248026811000CD1011D57
:10164C000A6802B31368A34238BF111DF8D310E027
:10165C001D68A5420DD2191D0B68002BF8D112681C
:10166C00011D00E0191D0B6893420CD01D68A542AA
:10167C00F8D361B10D682A68A2F10803A3420AD21B
:10168C006A680A600FE000F051FA0028D0D1C04619
:10169C00C046002070BD63190B60121B6E685E6043
:1016AC000B681A602C60096800291DBF4A68002A63
:1016BC00091D00210160C046C04605F1080070BD3F
:1016CC009011002000B9704738B5A0F108042068CB
:1016DC00082833D310F0070F30D1C046C046184845
:1016EC00416809B18C4203D26160446017E019462D
:1016FC004B680BB1A342FAD30B685D18AC421BD3F9
:10170C00A54204D12268D2180A600C4607E04A6848
:10171C001AB123681B199A420ED362604C6061683F
:10172C0051B1226813198B4206D10023036008685B
:10173C008018206048686060C046C04631BD00001B
:10174C009011002062B38B0708D0521E11F8013B98
:10175C0000F8013B00F024808B07F6D1830740F0A2
:10176C00208000BF103A07D330B4B1E83810103ADB
:10177C00A0E83810F9D230BC530724BFB1E80810E8
:10178C00A0E8081044BF51F8043B40F8043BD207D2
:10179C0024BF31F8022B20F8022B44BF0B780370C6
:1017AC007047083A07D3B1E80810083A40F8043BF0
:1017BC0040F804CBF7D25307E4E710B450F8041BFD
:1017CC0081B102681218001D50F8043BDC0744BFBD
:1017DC00A9F10104E31852F8044B43F8044B091F18
:1017EC00F9D1EBE710BC704710B4DFF82023C0B27E
:1017FC000A2303FB0022D279012A0CD1DFF8102333
:10180C00DFF80833C0B20A2404FB00331B7A12EB56
:10181C00830211000AE0DFF8FC22BC4BC0B20A24A0
:10182C0004FB00331B7A12EB83021100BA4AC0B2DC
:10183C0052F820200A600022B44BC0B20A2404FBE8
:10184C0000331A7010BC704710B4B04AC0B20A23EF
:10185C0003FB0022D279012A0AD1AE4AAB4BC0B2AB
:10186C000A2404FB00331B7A12EB8302110009E0FB
:10187C00A74AA64BC0B20A2404FB00331B7A12EB16
:10188C0083021100A44AC0B252F820200A60002240
:10189C009E4BC0B20A2404FB00331A7010BC704774
:1018AC009E499A4AC0B20A2303FB0022127A11EB1A
:1018BC0082010A68984BC0B253F820305A400A6033
:1018CC0070472DE9F04182B04FF47A644FF4FA7509
:1018DC00601B1421B0FBF1F61427FFB2002F40D08F
:1018EC00210089B2012000F0FBF9012000F023FA5D
:1018FC00290089B2022000F0F3F9022000F01BFA53
:10190C005FF028081FFA88F8B8F1000F0DD0844852
:10191C0000680090012100A800F0ACFA0028F9D072
:10192C0000F041F8B8F10108ECE7FFB2142F06D132
:10193C0040F2DC5100A800F09DFA0028F8D00020FD
:10194C00C0B20B2809DAFFB2791E704AC0B20A2362
:10195C0003FB00225180401CF2E7A41B75197F1E6B
:10196C00BBE700F020F8C82100A800F083FA00289B
:10197C00F9D0012000F0E2F9022000F0DFF9082094
:10198C00FFF732FF0920FFF72FFF0A20FFF72CFF8C
:10199C006448006850F00100624908606248FEF734
:1019AC0037FFBDE8F38110B50024E4B20B2C80F2B4
:1019BC00AA805648E4B20A2101FB040000780128F1
:1019CC0072D15248E4B20A2101FB0400B0F90200C2
:1019DC00002804D12000C0B2FFF736FF5CE04B4872
:1019EC00E4B20A2101FB0400B0F90200142804D16E
:1019FC002000C0B2FFF7F8FE4EE04448E4B20A21E2
:101A0C0001FB04008088401E4049E4B20A2202FB1C
:101A1C00041188803D48E4B20A2101FB040080884F
:101A2C00002839D13948E4B20A2101FB040080793D
:101A3C0001281AD12000C0B2FFF706FF3348E4B2E8
:101A4C000A2101FB0400B0F90200D0F114002F4967
:101A5C00E4B20A2202FB0411888000202B49E4B274
:101A6C000A2202FB0411887116E02000C0B2FFF7B5
:101A7C00BBFE2648E4B20A2101FB0400408823493E
:101A8C00E4B20A2202FB0411888001201F49E4B24F
:101A9C000A2202FB0411887101201C49E4B20A22BB
:101AAC0002FB041108702CE01848E4B20A2101FB77
:101ABC0004000078022824D11448E4B20A2101FB66
:101ACC0004008088401E1149E4B20A2202FB041172
:101ADC0088800E48E4B20A2101FB040080880028AB
:101AEC000FD12000C0B2FFF7DBFE0848E4B20A2198
:101AFC0001FB040040880549E4B20A2202FB0411F0
:101B0C008880641C51E710BD00000000000000201C
:101B1C00300C0E40340C0E40F4000020380C0E40FB
:101B2C00E0110020CC110020580100200749086862
:101B3C0008B1002070470648C008C000086005497D
:101B4C00C908C900091A0160704700BF5012002073
:101B5C00671200206032002070470020794908602D
:101B6C0000207949086041F26F70784908600020C4
:101B7C00774908600320774908607047002040F2DD
:101B8C00A461884201D2401CF9E77047724873493E
:101B9C000860734873490860704780B57248734990
:101BAC000860734873490860734874490860744846
:101BBC00744908600020744908600020734908606B
:101BCC007348744908605FF040507349086073486B
:101BDC00734908607348744908607FF001007349C9
:101BEC0008600120724908605FF0F6407149086096
:101BFC00002071490860002070490860002070497D
:101C0C00086070487049086000207049086070488E
:101C1C0070490860704871490860714871490860E2
:101C2C0071487249086000207149086000207149B0
:101C3C0008607148714908600020714908600020F3
:101C4C00704908607FF07E406F4908606F487049AA
:101C5C0008604FF4F0706F4908605F486E49086087
:101C6C0000206E49086000206D49086000206D4915
:101C7C0008606D486D49086000206D49086000F0EF
:101C8C0001F801BD5FF001106A49086000206A4943
:101C9C00086003206949086041F270706849086067
:101CAC0041F270706749086042F6E060664908606E
:101CBC0042F6E0606549086003206549086040F21F
:101CCC00DC506449086040F2DC506349086040F61F
:101CDC00B8306249086040F6B83061490860704716
:101CEC0010B4604B89B2B3FBF1F31A0001280FD189
:101CFC005D4B1B68DB0705D5524B1A605308534CE0
:101D0C00236016E04E4B1A6053084F4C236010E0D2
:101D1C0002280ED1544B1B689B0705D54E4B1A60FD
:101D2C0053084F4C236004E04A4B1A6053084B4C49
:101D3C00236010BC70474D49086070474C490860DF
:101D4C0070470000E0110020E411002014E000E0D6
:101D5C0018E000E010E000E00085011054120E4085
:101D6C00010000A550120E4007000384000C0E4029
:101D7C00F8FFFC7B040C0E40F9D755BF100C0E403D
:101D8C000628AA40140C0E40200C0E40240C0E40C9
:101D9C0000000188300C0E40340C0E40000600048C
:101DAC00500C0E40FFF9FFFB540C0E40600C0E4023
:101DBC00640C0E40700C0E40800C0E40840C0E40D7
:101DCC008C0C0E40000001B4A00C0E40A40C0E4074
:101DDC00E7FFBF01000E0E4018004000040E0E403D
:101DEC00E0FFBF01100E0E401F004000140E0E400D
:101DFC00200E0E40240E0E4000FEBF01300E0E4091
:101E0C00340E0E40500E0E40540E0E401FFEFF01BD
:101E1C00600E0E40640E0E40700E0E40800E0E4092
:101E2C00840E0E408C0E0E40E0FF1F00A00E0E40E4
:101E3C00A40E0E4000C0084020C0084000C208405C
:101E4C000CC2084010C2084004C2084008C2084036
:101E5C0020C208402CC2084030C2084024C20840AE
:101E6C0028C20840808D5B000CC0084004C00840AC
:101E7C0008C0084002000120704750F8041B61B1F3
:101E8C0050F8042BD30744BFA9F101039A1800237F
:101E9C0042F8043B091FFAD1EFE77047012110F01B
:101EAC001F029140DFF8A42540B2430942F82310E9
:101EBC007047012110F01F029140DFF8942540B2C9
:101ECC00430942F82310704710B51224DFF894052B
:101EDC0000680121A1400843DFF888150860002044
:101EEC00DFF884150860DFF88405DFF86C150860EE
:101EFC000020DFF86C1508700020DFF874150870EE
:101F0C000020DFF850150870DFF86805DFF85C1565
:101F1C0008600020DFF8541548600020DFF84C15ED
:101F2C0088600020DFF84415C860DFF82C050068D5
:101F3C000068006850F08000DFF81C15096809681B
:101F4C000860DFF834050068DFF8301508600521FB
:101F5C00DFF82805FFF78EFF0028F8D0DFF8200502
:101F6C00DFF8F4140968096808612420DFF8E81424
:101F7C000968096808600020DFF8DC140968096842
:101F8C0048604FF4A170DFF8D01409680968486202
:101F9C004FF63560DFF8C0140968096888622000C4
:101FAC0040B2FFF786FF200040B2FFF777FF00201A
:101FBC00DFF8D01408600020DFF8CC1408600FF2B2
:101FCC006910DFF8C814086010BD80B5DFF8BC04D8
:101FDC000068804701BD0120C0B200281DD0DFF889
:101FEC00A4140968002918D0DFF89C140968097832
:101FFC00DFF86424126812685163DFF88C140968E6
:10200C00491CDFF884241160DFF878140968491E34
:10201C00DFF870241160401EDEE7DFF868140968F1
:10202C0000291CD10421DFF8302412681268916257
:10203C00DFF82814DFF83824127811EB0211897AB2
:10204C00002912D1DFF8101409680968096851F0E9
:10205C000201DFF8042412681268116005E0042103
:10206C00DFF8F423126812685162704710B5DFF87C
:10207C00200400680400DFF81C0400680440E0053C
:10208C0008D5DFF8E403006850F08070DFF8D8134F
:10209C00086046E0A00731D5DFF8BC030068007B80
:1020AC0000072BD5DFF8B00300680068006BDFF881
:1020BC00A813096889680870DFF89C0300688068B9
:1020CC00401CDFF8941309688860DFF8B8030068D7
:1020DC00401EDFF8B0130860DFF8A8030068012881
:1020EC001FD1DFF8740300680068006850F002002C
:1020FC00DFF8641309680968086012E0600708D506
:10210C00DFF854030068007B800702D5FFF763FFFC
:10211C0007E0DFF85403006850F00070DFF8481354
:10212C00086010BD0000000080B5DFF834030078B3
:10213C00DFF83C130978884200F096800020DFF825
:10214C0018130968096848602420DFF80C13096823
:10215C0009680860DFF80403DFF814130978090133
:10216C00085C002832D1BC48006800684068BB4954
:10217C00DFF8FC22127811EB0211097A50EA0140C7
:10218C00B549096809684860B34800684068406808
:10219C00BC490860B048006840680830BA4908601B
:1021AC00FFF719FF0221AC48006840680068FEF791
:1021BC0051FFA9480068C06850F00600A64909689C
:1021CC00C8600FF2A900B149086044E0A348A849CF
:1021DC0009780901085C01283DD19F480068006816
:1021EC0040689D490968096848609C48A04909787D
:1021FC0010EB01104068A349086098489C49097885
:10220C0010EB0110C0689449096888609D4800680B
:10221C0001280AD1904800680068006850F003005B
:10222C008D4909680968086009E08B4800680068F6
:10223C00006850F001008849096809680860864800
:10224C000068C06850F0080083490968C8600FF244
:10225C00F1008E4908608448006810F07F4F03D06D
:10226C000FF255108949086001BD000080B57B480C
:10227C007F49097810EB0110807A002818D1814829
:10228C000068002826D1744800680068006A40077E
:10229C0020D5714800680068006AC0071AD56E48DE
:1022AC000068C06830F006006B490968C86011E02E
:1022BC007448006800280DD1674800680068006AFF
:1022CC00400707D564480068C06830F002006249D6
:1022DC000968C86060480068007B800725D4042129
:1022EC005D48006840680068FEF7B4FE5A48006814
:1022FC00001DFEF746FE5C480068400840005A4945
:10230C00086065486149086059480078401C584984
:10231C00087050480078401E4E49087054480078A8
:10232C00102802D10020524908704F48006810F064
:10233C007F4F03D00FF281005449086001BD0000AB
:10234C005048006800282DD1434800680068006A96
:10235C00800727D5404800680068006AC00721D56F
:10236C003D480068C06830F008003B490968C86007
:10237C003D480068400840003B49086046484349D6
:10238C0008603B480078401C394908703148007897
:10239C00401E3049087036480078102802D10020C1
:1023AC00334908703048006810F07F4F03D00FF2AB
:1023BC00090036490860704780B52B480068C00199
:1023CC003AD526482649097810EB0110407A401C72
:1023DC002249234A127811EB021148721F482049F6
:1023EC00097810EB0110407A032821D1204800789D
:1023FC00401C1F49087017480078401E154908708A
:10240C001B480078102802D1002019490870124886
:10241C000068007B80070BD506210F4800684068D8
:10242C000068FEF717FE0C480068001DFEF7A9FDBA
:10243C00002009490968C8600B4800680002000ABE
:10244C000949086014481149086001BD00E100E029
:10245C0080E200E05B120020F4110020F40D00205B
:10246C005912002010040E40F011002080110020A1
:10247C005A12002000400840E0110020EC1100200E
:10248C001D1D0200F8110020FC110020E811002095
:10249C002C4008402040084035210800012110F054
:1024AC001F029140864A40B2430942F823107047FC
:1024BC00012110F01F029140824A40B2430942F8B8
:1024CC002310704738B5002400250020C0B2042822
:1024DC000DDA00217F4AC0B2815400217A4AC0B281
:1024EC00815400217C4AC0B28154401CEEE700208C
:1024FC00C0B204281ADA7949C0B211EB400149780C
:10250C00002905D17649C0B251F820100C430BE0DC
:10251C007249C0B211EB40014978802904D170494D
:10252C00C0B251F820100D43401CE1E76D48046027
:10253C006D4805606D48006804006D480068050032
:10254C000A20FFF7B5FF0B20FFF7B2FF0A20FFF7B9
:10255C00A5FF0B20FFF7A2FF0FF2490065490860A9
:10256C006548006850F00200634908606348FEF754
:10257C004FF931BD80B55F480068804701BD02004E
:10258C00D2B2042A0CDA5548D2B210EB4200407891
:10259C00C9B2884204D15248D2B250F8220000E0AD
:1025AC00002070470020C0B204280ADA4949C0B2A2
:1025BC00415C002903D00FF20D014E4A1160401C02
:1025CC00F1E7704770B54E484A4908600026F6B2EC
:1025DC00042E74DA4B484149F6B211EB46014978A6
:1025EC0010EB810004003F483C49F6B211EB460168
:1025FC00497810EB810005003648F6B2305C0028B3
:10260C005BD041483B49086019214048F6B210EBB9
:10261C008600FFF72FFC00284FD03048F6B210F898
:10262C001600002811D12068C0432D49F6B251F88C
:10263C002610084204D001202749F6B2705414E049
:10264C0000202549F6B270540FE020682449F6B2F8
:10265C0051F82610084204D001201F49F6B27054DC
:10266C0003E000201C49F6B270541B48F6B2305CF3
:10267C001549F6B2715C884214D01748F6B2305C3A
:10268C001149F6B270541048F6B2305C012809D1E9
:10269C0001200E49F6B270541D4800680C49F6B280
:1026AC0041F8260000200B49F6B2705428680C49FA
:1026BC00F6B251F8261008432860761C87E770BDE7
:1026CC0000E100E080E200E0A0110020A811002051
:1026DC007011002098110020A4110020C8010020C6
:1026EC00682C0800400C0E40400E0E404C0C0E4066
:1026FC004C0E0E409C110020CC110020A00100209B
:10270C00B12508003C0C0E40D125080060110020BA
:10271C00E0110020012110F01F029140604A40B2EC
:10272C00430942F823107047012110F01F02914019
:10273C005C4A40B2430942F82310704710B588B088
:10274C0000A859492022FFF70DF80020C0B2082834
:10275C0009DA00A9C0B251F82010544AC0B242F8AC
:10276C002010401CF2E70024E4B21D2C09DA2000F2
:10277C0040B2FFF7CFFF200040B2FFF7D5FF641C3B
:10278C00F2E708B010BD80B50020FFF75DF803201C
:10279C00FFF75AF80120FFF757F80620FFF754F817
:1027AC000220FFF751F80420FFF74EF80520FFF741
:1027BC004BF80720FFF718F8FEE73D480068401C6F
:1027CC003B4908603B48006830F08040394908605C
:1027DC0039480088401E384908803748008800284E
:1027EC0008D14FF47A703449088034480068401C92
:1027FC00324908607047F8B531480068040014F499
:10280C0000300500002D1CD00027FFB2042F18DA71
:10281C0000213800C0B2FFF7B2FE060035420ED0E0
:10282C002848006830432749086001202649FFB238
:10283C0078541F4800682549FFB241F827007F1CD7
:10284C00E3E70A20FFF770FFF1BDF8B520480068F8
:10285C00040014F007000500002D1CD00027FFB267
:10286C00042F18DA80213800C0B2FFF788FE06006A
:10287C0035420ED0174800683043164908600120D5
:10288C001149FFB278540A4800681049FFB241F868
:10289C0027007F1CE3E74FF4006002490860F1BD9C
:1028AC0080E100E080E200E0B82B080000E400E0EA
:1028BC00E0110020C8110020F0010020E4110020DC
:1028CC004C0C0E40440C0E4098110020601100205E
:1028DC004C0E0E40440E0E4080B52348006850F05C
:1028EC00004021490860FFF751F9FFF756F9FFF74F
:1028FC0033F9FFF723FFFFF730F9FEF76DFBFEF717
:10290C00D5FCFEF737F8FDF7D3FBFFF7DDFAFEF742
:10291C00D8FFFFF7D7FD00F031F8FDF7F1FF1248B3
:10292C0000684000400810490860104810490860D1
:10293C00FFF739F8FFF71EFEFEF72CFDFDF737FC0D
:10294C00FFF743FBFEF781FBFEF763F800F01BF883
:10295C005FF0004007490860FFF710F95FF0004096
:10296C0005490860E1E700BFC8110020010000A57F
:10297C0050120E40300C0E40340C0E400FF215006D
:10298C0003490860704780B501480068804701BD65
:10299C004C12002070470A0D0A0D496E697469616A
:1029AC006C697A6174696F6E20636F6D706C65749D
:1029BC00652E205479706520656E2B63303020664F
:1029CC006F72206465627567206D656E752E2020B0
:1029DC004661696C6564207461736B733A0A0D000F
:1029EC004C454400000000000000425554544F4E2A
:1029FC0000000000444542554700000000004C43D5
:102A0C004400000000000000414E54000000000093
:102A1C0000005344000000000000000010B50749FE
:102A2C0079441831064C7C44163404E00A68081DBD
:102A3C00511888470146A142F8D110BD4C01000045
:102A4C006C01000053686F772064656275672063C2
:102A5C006F6D6D616E64206C697374202020202072
:102A6C002020202000000000546F67676C65204C0C
:102A7C0045442074657374202020202020202020C1
:102A8C00202020202020202000000000546F6767A9
:102A9C006C652073797374656D2074696D696E67EC
:102AAC00207761726E696E67202020200000000084
:102ABC0044756D6D7933202020202020202020208B
:102ACC0020202020202020202020202020202020FA
:102ADC000000000044756D6D7934202020202020EA
:102AEC0020202020202020202020202020202020DA
:102AFC00202020200000000044756D6D79352020C9
:102B0C0020202020202020202020202020202020B9
:102B1C0020202020202020200000000044756D6D16
:102B2C00793620202020202020202020202020202A
:102B3C002020202020202020202020200000000009
:102B4C0044756D6D793720202020202020202020F6
:102B5C002020202020202020202020202020202069
:102B6C00000000000A0D53797374656D2074696D53
:102B7C00652076696F6C6174696F6E207265706F19
:102B8C007274696E67200000F3F2FFFF6C10000096
:102B9C00F40100200000000023ECFFFFF401000012
:102BAC00F80000000000002000000000F000F0F031
:102BBC0040F0F0F0F0F05050503030F0F0F020F0E9
:102BCC0020F0004040F0F0F0F01000000A0D5541EC
:102BDC00525420636F756E746572206F7574206F1C
:102BEC00662073796E630A0D000000000A0A0D411D
:102BFC007661696C61626C6520636F6D6D616E648A
:102C0C00733A0A0D0000000000F00CF8002801D007
:102C1C00FFF704FF0020C046C046FFF75DFE00F042
:102C2C000BF800000249034801600120704700BF07
:102C3C000000080008ED00E000F000B80746384638
:102C4C0000F002F8FBE7000080B5C046C046024A1F
:102C5C0011001820ABBEFBE72600020000000200AA
:102C6C000100000002000000040000000A0D447581
:102C7C006D6D79210A0A0D000A0D4C6564205465AE
:102C8C0073742000C046C046C046C046FFF7BCFF68
:102C9C004E4F4E45000000000100140014000101CD
:102CAC0080000100140014000101800001001400D8
:102CBC0014000101800001001400140001018000C7
:102CCC000100140014000101800001001400140024
:102CDC0001018000010014001400010180000100BA
:102CEC001400140001018000010014001400010103
:102CFC008000010014001400010180000100140088
:102D0C0014000101800000000A0A0D2A2A2A205210
:102D1C00415A4F522053414D335532204153434970
:102D2C0049204C434420444556454C4F504D454E4C
:102D3C005420424F415244202A2A2A0A0D446562EB
:102D4C0075672072656164790A0D0000502A0800CD
:102D5C00550A0800742A0800070B0800982A080076
:102D6C00B90B0800BC2A0800ED0A0800E02A08008C
:102D7C00ED0A0800042B0800ED0A0800282B0800B7
:102D8C00ED0A08004C2B0800ED0A0800002000009A
:102D9C0000400000000004000000010000000800DA
:102DAC000000020000800000000010000004000081
:102DBC0000080000001000000D0A2A2A2A20436F88
:102DCC006D6D616E6420746F6F206C6F6E67202A5E
:102DDC002A2A0D0A0A0000000A0A44656275672057
:102DEC007461736B206572726F723A200000000080
:102DFC004C45442066756E6374696F6E7320726502
:102E0C006164790A0D0000005353502050657269BB
:102E1C0070686572616C732052656164790A0D008B
:102E2C00496E76616C6964205353502061747465EB
:102E3C006D70740D0A000000427574746F6E20740E
:102E4C0061736B2072656164790A0D000A496E76B4
:102E5C00616C696420636F6D6D616E640A0A0D00AC
:102E6C000000008000800080656E2B630000000075
:102E7C004F4E0D0A000000004F46460D0A000000A0
:0C2E8C0008200800E8030000E803010033
:0400000500082C9132
:00000001FF
