:020000040008F2
:10000000002008200D020800150108001701080053
:10001000190108001B0108001D0108000000000074
:100020000000000000000000000000001F010800A8
:10003000210108000000000023010800250108003C
:1000400027010800290108002B0108002D010800E4
:100050002F010800310108003301080035010800B4
:1000600037010800390108003B0108003D01080084
:100070003F010800410108000000000043010800A2
:100080004501080047010800490108004B0108002C
:100090004D0108004F0108005101080053010800FC
:1000A0005501080057010800590108005B010800CC
:0C00B0005D0108005F010800130108005A
:1000BC00103A07D330B4B1E83810103AA0E8381031
:1000CC00F9D230BC530724BFB1E80810A0E80810DF
:1000DC0044BF51F8043B40F8043BD20724BF31F82D
:1000EC00022B20F8022B44BF0B7803707047083AA0
:1000FC0007D3B1E80810083A40F8043B40F804CBA9
:10010C00F7D25307E4E7FEE7FEE7FEE7FEE7FEE77C
:10011C00FEE7FEE7FEE7FEE7FEE7FEE7FEE7FEE7AB
:10012C00FEE7FEE7FEE7FEE7FEE7FEE7FEE7FEE79B
:10013C00FEE7FEE7FEE7FEE7FEE7FEE7FEE7FEE78B
:10014C00FEE7FEE7FEE7FEE7FEE7FEE7FEE7FEE77B
:10015C00FEE7FEE700B589B003A80D491422FFF7AE
:10016C00A7FF02A80B490A680260A5208DF80400BD
:10017C004FF6FF71009101AA100000AA110002783D
:10018C00521C02700A68521C0A60401C091DFEE7D2
:10019C00F80108001802080000F00CF8002801D043
:1001AC00C046C0460020C046C046FFF7D3FF00F053
:1001BC000BF800000249034801600120704700BFA2
:1001CC000000080008ED00E000F000B807463846D3
:1001DC0000F002F8FBE7000080B5C046C046024ABA
:1001EC0011001820ABBEFBE7260002000500000042
:1001FC0004000000030000000200000001000000E9
:10020C00C046C046C046C046FFF7C6FF010200000C
:040000050008020DE0
:00000001FF
